:020000040800F2
:1000000018300020111800082118000823180008D3
:10001000251800082718000829180008000000000B
:100020000000000000000000000000002B18000885
:100030002D18000800000000D70B0008DF0800089A
:1000400065180008691800086D1800087118000884
:1000500075180008791800087D1800088118000834
:1000600085180008891800088D18000891180008E4
:1000700095180008991800089D180008A118000894
:10008000A5180008A9180008AD180008B118000844
:10009000B5180008B9180008BD180008C1180008F4
:1000A000C5180008C9180008CD180008D1180008A4
:1000B000D5180008D9180008DD180008E118000854
:1000C000E5180008E9180008ED180008F118000804
:1000D000F5180008F9180008FD18000801190008B3
:1000E00005190008091900080D19000880B500F06D
:1000F000A3FB00F061F900F086F900F0E0F900F0F0
:1001000029F900F01FFC00F05FFC00F08DFC00F00E
:100110009AF900F0B6F900F09CFB00F0AFFC01BDCD
:1001200010B50024DFF8A0060078012841D100F0C6
:1001300031FD0400DFF850050078002806D0DFF814
:1001400048050078401EDFF840150870DFF83805D4
:10015000007800282AD1DFF834050078002825D15E
:1001600000F018FADFF86406DFF86416097850F832
:100170002100DFF860160860DFF854060078DFF829
:1001800058160978884211D0DFF848060068C06B1D
:10019000401CDFF840160968C863DFF840060068B5
:1001A000401CDFF83816086000F011FD200000F058
:1001B000F5FC10BD80B5DFF810060078002819D1D5
:1001C00000F0E8F9DFF808060078DFF80C16087090
:1001D000DFF8F805DFF8F815097850F82100DFF8A6
:1001E000F4150860DFF8EC050068DFF8D415086046
:1001F00000F0D7FC01BD10B5002000F06FFB00F04F
:10020000C9FCDFF8E8150968491CDFF8E025116032
:1002100000F0C4FCDFF8B005007801285CD1DFF8FD
:10022000D0050078002803D0022805D002D309E0C9
:1002300001200CE000200AE001200121DFF8B025B8
:10024000117004E001200021DFF8A4251170C0B274
:10025000002841D0DFF89C0504681FE0002184F8E5
:10026000351094F83410090715D4DFF88C15097887
:1002700094F83A201143DFF880251170DFF87C15DF
:1002800094F83820895C94F839201143DFF86C2504
:1002900094F83830D154646900F080FC94F836004A
:1002A0003F2819D000F076FC216B0029F3D0216B98
:1002B000491E2163216B0029EDD194F834103722B7
:1002C0001142CBD094F8341011F0C80184F83410E6
:1002D000012184F83510C4E710BD704710B490F8C0
:1002E0003820D2B201EB0203DB7A90F83940A34305
:1002F000D2B201EB0204E372D2B20A44D27A002AEB
:1003000005D18A7A90F83A0032EA0000887210BC6F
:10031000704770B490F8382090F83A3090F839402F
:10032000086813E0D2B200EB0205ED7AA543D2B221
:1003300000EB0206F572D2B200EB0205ED7A002D59
:1003400002D1857A9D438572091D08680028E9D18C
:1003500070BC704710B5F021DFF8A80400F0E3F896
:10036000002013E0411CDFF89C2480B2182303FB1B
:1003700000F31A44DFF88C3489B21824614319441D
:1003800000231370516093A15161401C80B2092871
:10039000E8D3DFF8701480B21822504301EB00025A
:1003A00000201070002050608AA05061DFF85404D3
:1003B000DFF85414086010BD0020DFF83014086026
:1003C0000020B14908700020B04908700020DFF813
:1003D0003C1408700020DFF8F01308700020DFF8EC
:1003E000FC1308600020DFF8F81308600020DFF835
:1003F000201408600020DFF8EC1308600020DFF80C
:10040000E813087070470020DFF8EC130870002034
:1004100005E00021DFF8E423C0B21154401CC0B253
:100420000828F6D30020DFF8B01308700020DFF8AA
:10043000A01308700020DFF89C1308600020DFF88C
:1004400080130860704700B587B003200490002037
:10045000039080200290DFF8BC0301904FF6FF70FC
:1004600000903F23DFF8B02300210FF2491000F085
:1004700037FC05AADFF8A4133F2000F04CFD07B0BD
:1004800000BD00B587B003200490002003908020B9
:100490000290DFF88C0301904FF6FE7000903E232F
:1004A000DFF8802300210FF2311000F019FC05AABB
:1004B000DFF874133E2000F02EFD07B000BD10B52C
:1004C0004FF4F261DFF8640300F02DF84FF480710F
:1004D000BE4800F028F8002011E0411CDFF84C2352
:1004E000C0B2582303FB00F31A44DFF84033C9B20B
:1004F000582461431944516136A11165401CC0B2B2
:100500001528EAD3C949C0B25822504301EB000272
:10051000002050612FA010650020B6490860C34834
:10052000C349086010BD03E000220270401C491E50
:1005300089B20029F8D1704710B5002400F02AFBD9
:10054000040051480078002820D150480078002845
:100550001CD100F01FF89D489D49097850F82100F2
:100560009C4908609A4800789B49097888420DD0D8
:1005700098480068C06B401C96490968C863974852
:100580000068401C9549086000F01DFB200000F049
:1005900005FB10BD9A4898490978405CC0B298495B
:1005A000964A0300DBB2D25C895C11EBC00088493B
:1005B0000870704780B5002100F0ECFA010088480F
:1005C0000068401C864A1060080000F0E7FA00F05E
:1005D00043F9F1E73F00000080B50100002002E090
:1005E000142000F07BFD804800780028F8D07D487A
:1005F00000686421B0FBF1F07A490860794800682E
:10060000002805D100208B490870FF2000F0ECFC89
:1006100000F0C0FA724909687D4A11600021704AF1
:10062000116000F0BBFA7A4800686E490968B0FBB7
:10063000F1F0D0F164007F49087000F00FF900F08C
:1006400004F80A2000F04AFDE2E71CB5002417E098
:1006500069462000C0B200F08BFCC0B200280ED169
:100660005A48E4B250F82400002808D0012806D0E7
:100670008168C26801EB820181640199C164641CD4
:10068000E4B2402CE4D313BD034400200444002012
:100690002DE9F0410400884617001E00002000F0FC
:1006A00079FA63490D68002D00F085806969604A18
:1006B000116000F073FAC5F8008085F8364000201C
:1006C00085F83400002085F835000020286307985D
:1006D00068600698E860AF60089828826E82002003
:1006E00085F83B002000C0B2C00885F8380014F03F
:1006F000070085F83700012095F83810884085F804
:100700003A00012095F83710884085F8390000201C
:10071000E861002028620020A862002068620020B2
:10072000E86300206864002028640020A86400209A
:10073000E86424A02865002005E00021C0B205EB94
:1007400080025165401CC0B20028F6D0280000F09D
:10075000C4F8280000F07EF800F01CFA1B49E4B24F
:1007600041F824502349096869610021A9612149A0
:100770000968002902D01F4909688D611D490D6073
:100780001D49097895F83A2011431B4A11701B49FD
:1007900095F83820895C95F839201143174A95F867
:1007A0003830D15419490978491C184A117000F0A1
:1007B000F5F9002002E000F0F1F94220BDE8F081F7
:1007C000E04300203F00000008440020A840002033
:1007D00006440020E843002005440020C8430020D0
:1007E000DC430020D443002002440020F8430020D2
:1007F0000A440020EC43002007440020C0430020AE
:10080000B0120008A8410020CC4300200944002079
:10081000D8430020A8390020A43B0020F01700088E
:10082000A8370020A4390020001800081830002044
:10083000E4430020014400203A49802003E0401EA8
:1008400000220A60091D0028F9D13748374908609D
:100850007047704770477047704770477047030094
:1008600010005FF080720260001F0360001F304ABA
:100870000260001F5FF012320260001F5FF003325F
:100880000260001F5FF002320260001F5FF0013261
:100890000260001F0160001F5FF011310160001F46
:1008A0005FF010310160001F5FF009310160001F2F
:1008B0005FF008310160001F5FF007310160001F29
:1008C0005FF006310160001F5FF005310160001F1D
:1008D0005FF004310160704770477047704780B522
:1008E00000F058F913490978491C124A117000F0B8
:1008F00055F9FFF780FCFFF713FC01BD401E0E49C0
:100900000860FF200D4908700D48006850F0050090
:100910000B4908600A48006850F002000849086066
:1009200070470000A83B0020A43D0020FC430020AD
:10093000871000080344002014E000E023ED00E0ED
:1009400010E000E080B550211448FFF7ECFD0020D6
:100950000EE0411C114A80B203011A440F4B89B2C8
:10096000090119440023137051600AA1D160401C91
:1009700080B20428EDD3094980B2000101EB0002E6
:10098000002010700020506002A0D060034802498F
:10099000086001BD3F000000D043002070430020EC
:1009A00041680268002906D1C1684A60002A06D061
:1009B0000021516003E00A60002A00D05160806885
:1009C000002181627047010080B578211548FFF74A
:1009D000AAFD002110E0134889B2182202FB01F29F
:1009E0001044104A89B2182303FB01F31A44183249
:1009F00042600AA24261491C89B20429EBD309482A
:100A000089B21822514308440021416003A1416189
:100A100004480349086001BD000000003F000000D9
:100A2000F04300209842002010B560211248FFF7E3
:100A30007AFD00200DE0411C0F4A80B2182303FB11
:100A400000F31A440C4B89B2182461431944116015
:100A5000401C80B20328EED3074980B218225043CD
:100A600001EB00020020106003480249086010BD3D
:100A700000000000F44300201043002017481848ED
:100A80001848194819481A481A481B481B481C4856
:100A90001C481D481D481E481E481F481F48204826
:100AA00020482148214822482248234823482448F6
:100AB00024482548254826482648274827482848C6
:100AC0002848294829482A482A482B482B482C4896
:100AD0002C482D482D482E48704700BFC6090008F5
:100AE0003C180008BA170008C61700086616000868
:100AF0003A18000810190008121900081419000803
:100B000016190008181900081A1900081C190008FD
:100B10001E190008201900082219000824190008CD
:100B200026190008281900082A1900082C1900089D
:100B30002E1900083019000832190008341900086D
:100B400036190008381900083A1900083C1900083D
:100B50003E1900084019000842190008441900080D
:100B600046190008481900084A1900084C190008DD
:100B70004E190008501900085219000854190008AD
:100B800056190008581900085A1900085C1900087D
:100B900070190008EFF3108072B6704780F3108868
:100BA00070471D48FF210170002080F309881B4811
:100BB000016881F308881A480121017019481A490F
:100BC000016062B6FEE71748174901607047154893
:100BD00015490160704772B6EFF3098028B12038DB
:100BE00080E8F00F11490968086000B51048804797
:100BF0005DF804EB0F4810490A7802700B480F4962
:100C00000A680260106890E8F00F203080F30988CD
:100C10004EF0040E62B6704722ED00E0FC43002067
:100C20000844002004ED00E000000010E043002034
:100C3000D90800080544002006440020E8430020AD
:100C4000FEB505000E0017001C000020FFF7A2FFF4
:100C5000DFF85C140978002903D0FFF79FFF3C20E0
:100C60003DE0DFF83814E4B251F82410002933D104
:100C70000121DFF82824E4B242F82410FFF78EFFA8
:100C800000233A0031002800FFF7E9FD01000020B1
:100C900002900020019000200090002300222000FC
:100CA000C0B2FFF7F5FC0500EDB2002D07D1DFF86B
:100CB000FC03007801280CD1FFF73EFC09E0FFF7A8
:100CC00069FF0021DFF8D423E4B242F82410FFF7D3
:100CD00065FF2800C0B202E0FFF760FF2820FEBDDC
:100CE0002DE9F04784B006000F0090461D0000205B
:100CF000FFF750FFDFF8B8130978002903D0FFF79A
:100D00004DFF3C2049E0DFF89413EDB251F8251077
:100D100000293FD10121DFF88423EDB242F82510EC
:100D2000FFF73CFFDDF83490DDF838A0109C22007E
:100D300092B25146484600F0C5F923009BB24246A4
:100D400039003000FFF78BFD0100A4B202940F9828
:100D50000190CDF800A00C9B4A462800C0B2FFF7D6
:100D600097FC0400E4B2002C07D1DFF840030078C0
:100D700001280CD1FFF7E0FB09E0FFF70BFF002192
:100D8000DFF81823EDB242F82510FFF707FF200027
:100D9000C0B202E0FFF702FF282004B0BDE8F087F0
:100DA00070B504000025DFF808030078002801D0A2
:100DB0004020AFE0E4B23F2C01D13E20AAE0FFF793
:100DC000E9FE0500E4B2FF2C04D1DFF8D40200688C
:100DD00090F83640DFF8C402E4B250F82460002EE8
:100DE00004D12800FFF7DAFE432093E0012E04D15E
:100DF0002800FFF7D3FE3D208CE0DFF8A80296F82C
:100E00003810405C96F839108843DFF8981296F84D
:100E100038208854DFF88C0296F83810405C00289F
:100E200008D1DFF88402007896F83A108843DFF89A
:100E300078120870F069002803D0F1693000FFF7DC
:100E40004DFA306A002803D0316A3000FFF761FAAA
:100E5000B06A002801D0FFF7A3FD00203063002016
:100E600086F83400002086F83500DFF84802007864
:100E7000FF2806D0DFF83C020078401CDFF834126F
:100E800008702800FFF78AFEFFF727FAFFF782FEB7
:100E90000500DFF820020078002806D0DFF81402F1
:100EA0000078401EDFF80C1208703000FFF7D3FC0A
:100EB000DFF804020078401EDFF8FC110870002003
:100EC000DFF8D811E4B241F82400B069002807D156
:100ED0000020716988617069DFF8E011086005E041
:100EE0007069B1694861B06971698861DFF8D001E2
:100EF00000687061DFF8C80106603AA0306528001C
:100F0000FFF74CFEDFF8A4010078012801D1FFF7BC
:100F100013FB002070BD70B506000D00140000200A
:100F200063480078002802D0122020701FE0FFF7ED
:100F300031FEF6B2FF2E03D15949096891F83660A7
:100F40005649F6B251F82610002904D1FFF726FEC3
:100F5000432020700BE0012904D1FFF71FFE43203E
:100F6000207004E00D65FFF719FE0020207070BDB1
:100F7000F8B505000C000020002020600020606013
:100F8000FFF708FEEDB2FF2D03D14549096891F83E
:100F900036504249EDB251F82510002903D1FFF730
:100FA000FDFD43201CE0012903D1FFF7F7FD43209D
:100FB00016E00A7CD20703D4FFF7F0FD45200FE0CE
:100FC0000026CF688D68FFF7E9FD00E0761C280059
:100FD000051D00680028F9D02660B81B606000205D
:100FE000F2BD00003F00000038B505000020FFF70B
:100FF000D1FDEDB2FF2D05D12949096891F8365090
:1010000001240AE02900264A126892F83620C9B263
:10101000914201D1012400E000242049EDB251F8B1
:101020002510002903D1FFF7B9FD48202AE0012946
:1010300003D1FFF7B3FD432024E091F83820194B8A
:10104000D2B29B5C91F83950AB43164DD2B2AB543F
:10105000144BD2B29A5C002A06D1134A127891F846
:101060003A309A43104B1A7091F8342052F008022B
:1010700081F83420FFF792FDE4B2012C01D1FFF793
:101080005BFA002032BD80B505480068FFF7E5FB3C
:10109000FF20FFF785FE01BD00000000A8400020F2
:1010A000E0430020C0430020074400200844002003
:1010B000034400200444002009440020EC430020A5
:1010C000E4430020D30708D5920704D405E0491E65
:1010D00000220260001D0029F9D1704710B50400FC
:1010E00000201848007800282BD1174800780028E5
:1010F00027D1002C25D0FFF74DFD1449096891F840
:101100003810134AC9B2525C104B1B6893F839303F
:101110009A430F4BC9B25A540D4AC9B2515C0029C7
:1011200008D10C490978094A126892F83A2091438B
:10113000084A1170054909680C63FFF72FFDFFF796
:10114000FBF910BD0344002004440020E0430020CC
:10115000C04300200744002080B54E48006850F08E
:1011600001004C4908604C4800684C4908404A4915
:101170000860484800684A490840464908604548B0
:10118000006830F48020434908604348006830F428
:10119000FE00414908605FF41F004249086000F00A
:1011A00005F85FF000604049086001BD80B500F0BF
:1011B00001F801BD82B00020019000200090354868
:1011C000006850F48030334908603248006810F4F9
:1011D000003000900198401C01900098002803D135
:1011E0000198B0F5A06FF0D12A480068800302D5BD
:1011F0000120009001E0002000900098012847D1D4
:101200002A48006850F01000284908602748006804
:1012100080088000254908602448006850F00200DA
:10122000224908601C4800681B4908601A48006889
:10123000194908601848006850F480601649086031
:101240001548006830F47C101349086012480068A3
:1012500050F4E810104908600E48006850F08070A3
:101260000C4908600B4800688001FBD50A480068FB
:1012700080088000084908600748006850F00200B4
:10128000054908600448006810F00C000828F9D1EE
:1012900002B0704700100240041002400000FFF846
:1012A000FFFFF6FE0810024008ED00E000200240BB
:1012B0000000010002000100030001000200010023
:1012C000040001000200010003000100020001000F
:1012D00005000100020001000300010002000100FE
:1012E00004000100020001000300010002000100EF
:1012F00006000100020001000300010002000100DD
:1013000004000100020001000300010002000100CE
:1013100005000100020001000300010002000100BD
:1013200004000100020001000300010002000100AE
:10133000070001000200010003000100020001009B
:10134000040001000200010003000100020001008E
:10135000050001000200010003000100020001007D
:10136000040001000200010003000100020001006E
:10137000060001000200010003000100020001005C
:10138000040001000200010003000100020001004E
:10139000050001000200010003000100020001003D
:1013A000040001000200010003000100020001002E
:1013B00000210021002200213449096811F00C01AC
:1013C000002904D0042905D0082906D021E030499D
:1013D000016020E02E4901601DE02C49096811F4EC
:1013E00070112A4A126812F48032890C891C002A72
:1013F00003D1284A514301600AE0244A126892034B
:1014000003D5244A5143016002E0214A514301605F
:1014100001E01F4901601D49096811F0F001090947
:101420001D4A515C0268CA4042601849096811F4BB
:10143000E061090A184A515C4268CA408260134957
:10144000096811F46051C90A134A515C4268CA40E4
:10145000C2600E49096811F44041890B0F4A515C82
:10146000C268B2FBF1F101617047C9B2002905D031
:101470000B49096808430A49086005E008490968FA
:1014800031EA00000649086070470000041002407D
:1014900000127A0000093D0000000020100000202A
:1014A0001810024070B400220025002300260024FA
:1014B0000025CA7812F00F02CB78DB0601D58B78B5
:1014C0001A430B781B0621D00468002306E0CD7870
:1014D000482D02D101259D4005615B1C082B14D2CB
:1014E000012515FA03F60D883540B542F5D19E0069
:1014F0000F25B540AC4312FA06F52C43CD78282DC4
:10150000E5D101259D404561E7E704600B88FF2B8D
:1015100026DD4468002320E0012513F1080615FAB2
:1015200006F60D883540B54216D19E000F25B54010
:10153000AC4312FA06F52C43CD78282D04D10125B1
:1015400013F10806B5404561CD78482D04D1012539
:1015500013F10806B54005615B1C082BDCD3446021
:1015600070BC704789B20161704789B241617047B0
:1015700080B5FEF7BBFD0423154A00210FF20D00D4
:10158000FFF75EFBFEF716FE002002BD80B50020CF
:1015900000F036F800F02CF84FF47A71B0FBF1F05F
:1015A000FFF7ACF905230B4A00210FF23500FFF7D6
:1015B00047FB094908700623084A00210FF2290059
:1015C000FFF73EFB04490870FF20FFF7E9FB01BD70
:1015D000A43E0020A43F002000440020A44000209E
:1015E00080B500F041F8FCE780B500F051F8FCE769
:1015F00000B585B06846FFF7DBFE019805B000BD79
:1016000080B5FFF7A9FD00F003F800F021F801BD57
:1016100080B501212420FFF728FF4FF48070ADF83A
:10162000000010208DF8030003208DF802006946A9
:101630000548FFF737FF0420ADF80000694603486E
:10164000FFF730FF01BD0000000801400014014019
:1016500080B500215FF0006000F033F84FF4407077
:1016600000F02AF801BD010080B54FF480711048E8
:10167000FFF77BFF4FF4FA70FFF730FD4FF48071F6
:101680000B48FFF76FFF4FF4FA70FFF727FD01BD1E
:1016900080B504210748FFF768FF6420FFF71EFDAF
:1016A00004210448FFF75EFF6420FFF717FD01BD2A
:1016B000000801400014014005490843054908603D
:1016C0007047054A1140084304490860704700000C
:1016D0000000FA050CED00E080FFFF1F08ED00E0C0
:1016E00019E050F8041BCB0744BFA9F101035918B6
:1016F000121F0023042A41F8043BF9D25FEA827CDE
:101700000B4604D54FF0000CA1F800C09B1CD1077C
:1017100044BF0021197050F8042B002AE1D1704712
:1017200010B450F8041B79B10268436802440830D1
:10173000DC0744BFA9F10104E31852F8044B43F855
:10174000044B091FF9D1ECE710BC704710B50749ED
:1017500079441831064C7C44163404E00A68081DAC
:10176000114488470146A142F8D110BD080000008D
:10177000280000006DFFFFFFF41300001830002068
:10178000000000009DFFFFFF14000000500000005B
:10179000000000200000000000F00BF8002801D03D
:1017A000FFF7D4FF0020C046C046FFF7E1FE00F07F
:1017B00002F80120704700F001B80A0007463846D9
:1017C00000F002F8FBE7010080B5C046C046024ABF
:1017D00011001820ABBEFBE726000200000000004D
:1017E00001020304010203040607080902040608B3
:1017F00075432F4F532D49492049646C6500000003
:1018000075432F4F532D49492053746174000000D4
:101810000148804701480047591100082F18000867
:101820007047FEE7FEE7FEE7FEE770477047C046F9
:10183000C046C046C046FFF7AFFF180078563412C6
:10184000FFF7EEBFFFF7EDBFFFF7ECBFFFF7EBBF12
:10185000FFF7EABFFFF7E9BFFFF7E8BFFFF7BBB944
:10186000FFF73DB8FFF7FEBFFFF7FEBFFFF7FEBF74
:10187000FFF7FEBFFFF7FEBFFFF7FEBFFFF7FEBF9C
:10188000FFF7FEBFFFF7FEBFFFF7FEBFFFF7FEBF8C
:10189000FFF7FEBFFFF7FEBFFFF7FEBFFFF7FEBF7C
:1018A000FFF7FEBFFFF7FEBFFFF7FEBFFFF7FEBF6C
:1018B000FFF7FEBFFFF7FEBFFFF7FEBFFFF7FEBF5C
:1018C000FFF7FEBFFFF7FEBFFFF7FEBFFFF7FEBF4C
:1018D000FFF7FEBFFFF7FEBFFFF7FEBFFFF7FEBF3C
:1018E000FFF7FEBFFFF7FEBFFFF7FEBFFFF7FEBF2C
:1018F000FFF7FEBFFFF7FEBFFFF7FEBFFFF7FEBF1C
:10190000FFF7FEBFFFF7FEBFFFF7FEBFFFF7FEBF0B
:10191000F0000100010010001400020005000100A9
:101920003F000100010005000100180078000100DF
:101930000400010004001800080001000400010078
:10194000010001008000010016000100010080007C
:101950000100010040005800640001002401000063
:101960001000010008000A00000000000000000054
:02197000EE0E79
:040000050800182FA8
:00000001FF
