:020000040800F2
:10000000E00600208D20000881030008830300081B
:10001000870300088B0300088F030008000000001E
:100020000000000000000000000000009303000832
:1000300095030008000000009703000899030008DA
:1000400031070008A7200008A7200008A720000803
:10005000A7200008A7200008511D0008A7200008BD
:10006000A7200008A7200008A7200008A720000854
:10007000A7200008A7200008A7200008A720000844
:10008000A7200008A7200008A7200008A720000834
:10009000A7200008A7200008A7200008A720000824
:1000A000A7200008A7200008A7200008A720000814
:1000B000A7200008B7070008A7200008A72000080D
:1000C000A7200008A7200008A7200008A7200008F4
:1000D000A720000801200008A7200008A72000088A
:1000E000A7200008A7200008A720000800F002F8B9
:1000F00000F041F80AA090E8000C82448344AAF181
:100100000107DA4501D100F036F8AFF2090EBAE87E
:100110000F0013F0010F18BFFB1A43F0010318473B
:10012000604D0000804D0000103A24BF78C878C1AF
:10013000FAD8520724BF30C830C144BF04680C60ED
:10014000704700000023002400250026103A28BF35
:1001500078C1FBD8520728BF30C148BF0B60704739
:10016000782904F02F80002070471FB504F03AF979
:100170001FBD10B510BD04F0E3F81146FFF7F5FF01
:1001800000F089F804F001F903B4FFF7F2FF03BCB3
:1001900001F0DCFE70B505467F241DE035F8140043
:1001A000B0F5C87F0CDD4FF6FF706449088004F19C
:1001B0003C018AB288B29623822101F07BFB0AE0DF
:1001C0001F205E49088004F13C018AB288B2962360
:1001D000822101F06FFB641E002CDFDA70BD70B568
:1001E00005465749542004F01BF800240DE035F86B
:1001F00014100812524904F013F835F81410C8B25C
:100200004F4904F00DF8601CC4B2802CEFDB70BDC8
:1002100070B5044600204B4908604FF001004A4980
:10022000C1F8900101F06DFE0120464908604FF0D1
:1002300000004549C1F890014FF0010001F061FE56
:1002400000250EE000203F49086001F00FFE24F871
:10025000020B01203C49C1F88C0101F052FE681CE0
:10026000C5B2802DEEDB70BD08B50121042002F07F
:10027000E1FD1820ADF8000010208DF803000320E8
:100280008DF802006946314802F09AFA18212F4889
:1002900002F041FB08BDC0B000F0E4F8482001F0D6
:1002A00001FE01F04DFE4FF4E13001F05DFE00F083
:1002B00059F900F089F900F0A5FB01F091FDFFF775
:1002C000D3FF4FF478401D49088021A232213C2001
:1002D00001F0D5FC21A246213C2001F0D0FC22A255
:1002E0005A213C2001F0CBFC21A26E213C2001F0E0
:1002F000C6FC1F2011490880C002088096233B22BB
:100300008221104601F0D6FA9623BC2282211046A3
:1003100001F0D0FA10E06846FFF77AFF6846FFF771
:100320005EFF6846FFF736FF1448006808B90120F1
:1003300000E0002011490860EDE7000016000020F1
:10034000240000208C0121420000214200080140CD
:100350004D696E692053544D3332000043434420AD
:100360005445535400000000576F6C66736F6E0065
:10037000323031352F31302F32340000A00121428C
:10038000704700BFFEE700BFFEE700BFFEE700BF0B
:10039000FEE770477047704770470000002100205B
:1003A000674A126842F48032654B1A6000BF644AA3
:1003B000126802F40030491C10B9B1F5A06FF6D1F3
:1003C0005F4A126812F4003F01D0012000E00020D3
:1003D000012842D15B4A126842F01002594B1A6060
:1003E0001A46126822F003021A601A46126842F096
:1003F00002021A60524A5268514B5A601A465268B9
:100400005A601A46526842F480625A601A4652682C
:1004100022F47C125A601A46526842F4E8125A607A
:100420001A46126842F080721A6000BF444A12688D
:1004300012F0007FFAD0424A526822F00302404B89
:100440005A601A46526842F002025A6000BF3C4AA3
:10045000526802F00C02082AF9D1704710B5FFF774
:100460009DFF10BD10B53648006840F001003449CA
:1004700008600846406834490840314948600846E9
:100480000068324908402E4908600846006820F498
:10049000802008600846406820F4FE0048604FF461
:1004A0001F008860FFF7DAFF4FF0006028490860FE
:1004B00010BD10B5002100200022214B5B6803F025
:1004C0000C0121B1042906D0082928D107E0214BCD
:1004D000214C236027E01F4B1F4C236023E0184B67
:1004E0005B6803F47010164B5B6803F480320223E0
:1004F00003EB904022B9194B4343174C23600DE0A6
:100500000F4B5B6813F4003F04D0144B4343124C71
:10051000236003E00F4B43430F4C236003E00D4B7C
:100520000D4C236000BF00BF054B5B68C3F3031392
:100530000B4CE15C084B1B68CB40074C236010BDA3
:1005400000100240002002400000FFF8FFFFF6FE0E
:1005500008ED00E000127A000000002000093D00D4
:100560000400002008B50121042002F063FC4FF4D0
:100570008070ADF8000010208DF8030003208DF886
:10058000020069460E4802F01BF94FF480710C48D6
:1005900002F0C1F90121202002F04CFC0420ADF84A
:1005A000000010208DF8030003208DF8020069463A
:1005B000044802F005F90421024802F0ACF908BD34
:1005C000000801400014014008B50121042002F098
:1005D00031FC4FF42040ADF8000048208DF80300B6
:1005E00069462B4802F0ECF80120ADF80000282005
:1005F0008DF803006946264802F0E2F808BD10B500
:100600000121244802F0ABF92348007858B323486D
:10061000006830B12248006818B1224800680128FB
:1006200021D10A2001F052FC00201B4908701B4810
:10063000006828B901211C4802F091F9012010BD81
:100640001748006828B90121174802F088F90220EC
:10065000F5E714480068012813D10121124802F07F
:100660007EF90320EBE70D480068012809D10C480A
:100670000068012805D10B48006810B9012006491F
:1006800008700121084802F06AF90020D7E700004D
:100690000008014000043000140000203401214211
:1006A0003C012142000121420002300070B50546A4
:1006B0000C4645F2555002F0CFF9284602F0CFF92A
:1006C000204602F0CFF902F0D0F902F0D3F970BD64
:1006D00010B502F0CAF910BD08B500208DF8000071
:1006E00002208DF8010003208DF80200684601F019
:1006F000F2FC08BD70B506460C4615460121C8023D
:1007000002F0A5FB284603F0E6FC204603F0ECFCD3
:10071000304603F0FEFC03F007FDFFF7DDFF03F0BA
:10072000EEFC70BD10B50446204603F0F2FC10BD8F
:1007300010B57F2003F0E7FC03F0F6FC04480068E6
:1007400008B9012000E000200149086010BD000048
:10075000888122427FB504460D460121022002F025
:1007600076FB41F28830ADF8080041F61F40ADF845
:1007700004000020ADF80A00ADF8060001A91748F2
:1007800002F094FC01224121144802F0E4FF1D20F4
:100790008DF8000000208DF8010003208DF8020084
:1007A00001208DF80300684601F095FC01210B48FB
:1007B00002F0ACFF7FBD10B50121084803F065FAD7
:1007C00058B10121054803F071FA0548006808B9DD
:1007D000012000E000200249086010BD0004004034
:1007E000888122424FF48071FE4A51614900516173
:1007F000FD490860802151611161890011617047D4
:1008000010B504460B462046FFF7ECFF4FF480700E
:10081000F449086140004861F34803608020486162
:1008200008618000086110BD70B504462046FFF7DE
:10083000D9FF4FF08830EC490C390860091D086079
:100840004FF6FF70E84908608815E64908614000E6
:10085000486140204861052001F053FB4020E149F8
:100860000861E148001F006885B2481508614FF033
:100870003330DD490C390860091D08604FF6FF7000
:10088000D9490860284670BD00B52220FFF7AAFFAD
:1008900000BD4FF48071D34A116149005161D249C2
:1008A000086080215161116189001161704730B584
:1008B000014601F01F04C1F34513CA0AE50205EB26
:1008C00043151544A8B230BD70B504460D46F02C52
:1008D00002DAB5F5A07F01DB002070BD2946204675
:1008E00003F062FD2220FFF77DFF4FF08830BE4904
:1008F0000C390860091D08604FF6FF70BA4908609E
:100900008815B84908614000486140204861086185
:10091000022001F0F6FA4020B2494861022001F0BD
:10092000F0FA4020AF490861AF48001F006886B266
:10093000481508614FF03330AB490C390860091D88
:1009400008604FF6FF70A8490860A8480088A0F525
:100950008A4131390BD0A5480088A0F50941893971
:1009600005D0A2480088A0F53541053901D13046AF
:10097000B3E73046FFF79BFFAFE700B540F27311D6
:100980000720FFF73DFF00BD00B500210720FFF75E
:1009900037FF00BD70B504460D462946204603F0DA
:1009A00003FD2220FFF71EFF4FF480708D49086180
:1009B000400048618E4800888B4908608020894942
:1009C000486108618000086170BD70B5044600256B
:1009D0000021084603F0E8FCFFF756FF00BF0DE0DA
:1009E0004FF480707F490861400048617E48046090
:1009F000802048610861800008616D1CB5F5963F54
:100A0000EED370BD08B50121192002F013FA0121BF
:100A1000784801F0A4FF4FF4F860ADF80000102012
:100A20008DF8030003208DF8020069466D4801F03F
:100A3000C7FE4FF4F8616B4801F06DFF4FF6FF7091
:100A4000ADF80000694668480C3801F0B9FE4FF671
:100A5000FF7165480C3801F05EFF322001F036FA74
:100A600001210020FFF7CCFE322001F02FFA0020F8
:100A7000FFF7DAFE5D490880084601885EA003F0B2
:100A80005FFB5A480088A0F51341253905D0574827
:100A90000088A0F5134128397ED141F28F01EC2066
:100AA000FFF7AEFE41F23421EF20FFF7A9FE4FF42D
:100AB00080710120FFF7A4FE4FF4E0610220FFF7F0
:100AC0009FFE4FF480710120FFF79AFE4FF4E06122
:100AD0000220FFF795FE41F230010320FFF790FE60
:100AE00000210420FFF78CFE40F207210820FFF7C9
:100AF00087FE00210920FFF783FE00210A20FFF76F
:100B00007FFE01210C20FFF77BFE00210D20FFF767
:100B100077FE00210F20FFF773FE00211020FFF762
:100B20006FFE07211120FFF76BFE00211220FFF757
:100B300067FE00211320FFF763FE322001F0C6F9A3
:100B400041F290511020FFF75BFE40F22721112067
:100B5000FFF756FE322001F0B9F99C211220FFF771
:100B60004FFE322001F0B2F94FF4C8511320FFF7C5
:100B700047FE23212920FFF743FE0E212B20FFF7FC
:100B80003FFE322001F0A2F900212020FFF738FEBD
:100B900040F23F11212000E08AE0FFF731FE3220D1
:100BA00001F094F907213020FFF72AFE40F2077187
:100BB0003120FFF725FE06213220FFF721FE40F20B
:100BC00004713520FFF71CFE41F604713620FFF753
:100BD00017FE04213720FFF713FE00213820FFF70E
:100BE0000FFE0FE0001001400C0C01401A00002025
:100BF0001600002000023000204C43442049443AB3
:100C000025780A0040F206713920FFF7F9FD40F21D
:100C100001713C20FFF7F4FD0F213D20FFF7F0FDAF
:100C2000322001F053F900215020FFF7E9FDEF21B8
:100C30005120FFF7E5FD00215220FFF7E1FD40F2D2
:100C40003F115320FFF7DCFD4FF427416020FFF7F1
:100C5000D7FD01216120FFF7D3FD00216A20FFF7B6
:100C6000CFFD00218020FFF7CBFD00218120FFF781
:100C7000C7FD00218220FFF7C3FD00218320FFF77D
:100C8000BFFD00218420FFF7BBFD00218520FFF779
:100C9000B7FD10219020FFF7B3FD4FF4C061922003
:100CA000FFF7AEFD40F233110720FFF7A9FD7EE20A
:100CB000FE480088A0F51341203904D0FB48008885
:100CC000B0F5134F7ED100210846FFF799FD4FF490
:100CD00080710120FFF794FD4FF4E0610220FFF7DF
:100CE0008FFD41F230010320FFF78AFD002104202F
:100CF000FFF786FD40F202210820FFF781FD002169
:100D00000920FFF77DFD00210A20FFF779FD012171
:100D10000C20FFF775FD00210D20FFF771FD00216C
:100D20000F20FFF76DFD322001F0D0F840F20111E5
:100D30000720FFF765FD322001F0C8F84FF4865117
:100D40001020FFF75DFD07211120FFF759FD4FF43B
:100D500088711220FFF754FD4FF430611320FFF724
:100D60004FFD00212920FFF74BFD44F210012B20FD
:100D7000FFF746FD00215020FFF742FDEF215120F3
:100D8000FFF73EFD00215220FFF73AFD40F23F11F0
:100D90005320FFF735FD4FF41C516020FFF730FD65
:100DA00001216120FFF72CFD00216A20FFF728FDBB
:100DB00000218020FFF724FD00218120FFF720FD86
:100DC000002100E02DE08220FFF71AFD00218320A2
:100DD000FFF716FD00218420FFF712FD002185207A
:100DE000FFF70EFD10219020FFF70AFD0021922051
:100DF000FFF706FD01219320FFF702FD4FF48871F4
:100E00009520FFF7FDFC00219720FFF7F9FC00215A
:100E10009820FFF7F5FC40F273110720FFF7F0FC74
:100E200045E7A2480088A0F5A84108397ED14FF4D3
:100E300080710120FFF7E4FC4FF4E0610220FFF72E
:100E4000DFFC41F230010320FFF7DAFC002104202F
:100E5000FFF7D6FC40F207210820FFF7D1FC002164
:100E60000920FFF7CDFC00210A20FFF7C9FC002173
:100E70000C20FFF7C5FC00210D20FFF7C1FC00216D
:100E80000F20FFF7BDFC142001F020F841F2B06103
:100E90001020FFF7B5FC01211120FFF7B1FC012163
:100EA0001720FFF7ADFC4FF49C711220FFF7A8FC50
:100EB0004FF400611320FFF7A3FC09212920FFF75D
:100EC0009FFC09212A20FFF79BFC0021A420FFF7AB
:100ED00097FC00215020FFF793FCEF215120FFF7F2
:100EE0008FFC00215220FFF78BFC40F23F11532072
:100EF000FFF786FC4FF41C516020FFF781FC0121B5
:100F00006120FFF77DFC00216A20FFF779FC0021BA
:100F10008020FFF775FC00218120FFF771FC002184
:100F20008220FFF76DFC0021832000E023E0FFF723
:100F300067FC00218420FFF763FC00218520FFF778
:100F40005FFC13219020FFF75BFC00219220FFF74C
:100F500057FC03219320FFF753FC4FF48871952031
:100F6000FFF74EFC40F273110720FFF749FC3220D7
:100F700000F0ACFF9BE64D480088A0F5A85105396C
:100F80007ED10720FFF73CFC322000F09FFF4FF49A
:100F90008E711220FFF734FC0121A420FFF730FCF2
:100FA0000F210820FFF72CFC08210A20FFF728FC5E
:100FB00008210D20FFF724FC40F207713020FFF7D5
:100FC0001FFC07213120FFF71BFC40F20361322098
:100FD000FFF716FC4FF4E0613320FFF711FC40F2FD
:100FE00002213420FFF70CFC02213520FFF708FC1A
:100FF00041F60F713620FFF703FC40F207713720EE
:10100000FFF7FEFB00213820FFF7FAFB0021392013
:10101000FFF7F6FB40F207713A20FFF7F1FB0021E2
:101020003B20FFF7EDFB07213C20FFF7E9FB002108
:101030003D20FFF7E5FB322000F048FF01210720AB
:10104000FFF7DEFB01211720FFF7DAFB322000F06B
:101050003DFF4FF4BD511020FFF7D2FB40F21721A6
:101060001120FFF7CDFB4FF48F711220FFF7C8FB63
:101070004FF470611320FFF7C3FB00212A2000E02A
:1010800096E0FFF7BDFB0A212920FFF7B9FB4FF4DB
:101090009F711220FFF7B4FB00215020FFF7B0FB37
:1010A000EF215120FFF7ACFB002101E01A000020E6
:1010B0005220FFF7A5FB40F23F115320FFF7A0FBA2
:1010C0004FF41C516020FFF79BFB01216120FFF7CB
:1010D00097FB00216A20FFF793FB00218020FFF798
:1010E0008FFB00218120FFF78BFB00218220FFF77F
:1010F00087FB00218320FFF783FB00218420FFF77B
:101100007FFB00218520FFF77BFB13219020FFF759
:1011100077FB4FF440719220FFF772FB052193207B
:10112000FFF76EFB00219520FFF76AFB0021972057
:10113000FFF766FB00219820FFF762FB4FF48071F8
:101140000120FFF75DFB4FF4E0610220FFF758FB41
:1011500041F230010320FFF753FB00210420FFF789
:101160004FFB00210C20FFF74BFB00210F20FFF766
:1011700047FB00212020FFF743FB00212120FFF740
:101180003FFB21210720FFF73BFB142000F09EFED0
:1011900061210720FFF734FB142000F097FE40F296
:1011A00073110720FFF72CFB142000F08FFE46E39D
:1011B000FE480088A0F5354105397DD10846FFF786
:1011C0001FFB00210846FFF71BFB00210846FFF725
:1011D00017FB00210846FFF713FB0121A420FFF7AE
:1011E0000FFB142000F072FE4FF41C516020FFF73B
:1011F00007FB40F202210820FFF702FB4FF40571C4
:101200003020FFF7FDFA43F215713120FFF7F8FAAD
:1012100040F204613220FFF7F3FA40F61661332002
:10122000FFF7EEFA42F211213420FFF7E9FA4FF40A
:10123000A8513520FFF7E4FA48F207513620FFF7AE
:10124000DFFA41F207413720FFF7DAFA41F20341B2
:101250003820FFF7D5FA20213920FFF7D1FA1A21DB
:101260009020FFF7CDFA00211020FFF7C9FA0721DF
:101270001120FFF7C5FA00211220FFF7C1FA002163
:101280001320FFF7BDFA142000F020FE4FF4E661B2
:101290001020FFF7B5FA40F237111120FFF7B0FA2E
:1012A000142000F013FE4FF4DC711220FFF7A8FAAF
:1012B000142000F00BFE00E083E04FF47061132077
:1012C000FFF79EFA80212A20FFF79AFA4821292069
:1012D000FFF796FA142000F0F9FD4FF48071012019
:1012E000FFF78EFA4FF4E0610220FFF789FA41F22E
:1012F00030210320FFF784FA40F202210820FFF793
:101300007FFA00210A20FFF77BFA00210C20FFF76B
:1013100077FA00210D20FFF773FA30210E20FFF736
:101320006FFA00215020FFF76BFAEF215120FFF7F1
:1013300067FA00215220FFF763FA40F23F11532071
:10134000FFF75EFA4FF41C516020FFF759FA0121B4
:101350006120FFF755FA00216A20FFF751FA1121A9
:101360009020FFF74DFA4FF4C0619220FFF748FA42
:1013700040F202419320FFF743FA02219420FFF745
:101380003FFA142000F0A2FD01210720FFF738FAF0
:10139000142000F09BFD61210720FFF731FA40F295
:1013A00073110720FFF72CFA00212020FFF728FAFD
:1013B00000212120FFF724FA22210020FFF720FA44
:1013C0003DE27A480088A0F5094189397DD10121A3
:1013D0000020FFF715FA4AF6A4010320FFF710FAE0
:1013E00000210C20FFF70CFA40F60C010D20FFF74E
:1013F00007FA4FF42C510E20FFF702FAB0211E20FD
:10140000FFF7FEF942F63F310120FFF7F9F94FF4FB
:10141000C0610220FFF7F4F900211020FFF7F0F976
:1014200046F270011120FFF7EBF900210520FFF7CC
:10143000E7F900210620FFF7E3F94EF61C711620AC
:10144000FFF7DEF903211720FFF7DAF940F2332125
:101450000720FFF7D5F900210B20FFF7D1F9002174
:101460000F20FFF7CDF900214120FFF7C9F9002136
:101470004220FFF7C5F900214820FFF7C1F940F2EB
:101480003F114920FFF7BCF900214A20FFF7B8F9C6
:1014900000214B20FFF7B4F94FF46F414420FFF7D0
:1014A000AFF900214520FFF7ABF940F23F1146208C
:1014B000FFF7A6F940F207713020FFF7A1F94FF4CA
:1014C00001713120FFF79CF900E03DE04FF401711C
:1014D0003220FFF795F940F202513320FFF790F9DF
:1014E00040F207513420FFF78BF94FF4017135209A
:1014F000FFF786F94FF401713620FFF781F940F2CA
:1015000002513720FFF77CF940F202313A20FFF711
:1015100077F940F202313B20FFF772F900212320D6
:10152000FFF76EF900212420FFF76AF94FF400411C
:101530002520FFF765F900214F20FFF761F9002111
:101540004E20FFF75DF97AE118480088A0F58A413E
:1015500031397DD101210020FFF752F90A2000F036
:10156000B5FC41F228611020FFF74AF90E21122044
:10157000FFF746F940F639211320FFF741F90A2019
:1015800000F0A4FC40211120FFF73AF9502115206A
:10159000FFF736F90A2000F099FC1E211220FFF710
:1015A0002FF90A2000F092FC02E000001A0000204F
:1015B0004FF4B1511020FFF723F942F639211320DF
:1015C000FFF71EF90A2000F081FC4FF48071012022
:1015D000FFF716F94FF440710220FFF711F941F2BD
:1015E00030010320FFF70CF940F202210820FFF739
:1015F00007F908210A20FFF703F900213020FFF73F
:10160000FFF840F202413120FFF7FAF84FF48371FE
:101610003220FFF7F5F840F203513320FFF7F0F8DE
:101620004FF482713420FFF7EBF840F2013135209E
:10163000FFF7E6F840F207713620FFF7E1F840F2D5
:1016400005313720FFF7DCF84FF40271382000E055
:1016500040E0FFF7D5F840F60B713920FFF7D0F8DE
:1016600002214120FFF7CCF84FF41C516020FFF716
:10167000C7F801216120FFF7C3F84FF404719020EF
:10168000FFF7BEF84FF485719220FFF7B9F80421F7
:101690009320FFF7B5F84FF48071A020FFF7B0F862
:1016A00001210720FFF7ACF821210720FFF7A8F858
:1016B00023210720FFF7A4F833210720FFF7A0F824
:1016C00040F233110720FFF79BF80021A020FFF71D
:1016D00097F8B4E0F8480088A0F58A413539F8D188
:1016E00030211520FFF78CF810219A20FFF788F899
:1016F00020211120FFF784F843F228411020FFF742
:101700007FF802211220FFF77BF841F23801132005
:10171000FFF776F8282000F0D9FB12210846FFF7E2
:101720006FF8282000F0D2FB43F220411020FFF791
:1017300067F843F238011320FFF762F8462000F003
:10174000C5FB00213020FFF75BF840F20241312059
:10175000FFF756F840F207313220FFF751F84FF407
:1017600041713320FFF74CF804213420FFF748F88B
:1017700040F201413520FFF743F840F2077136206F
:10178000FFF73EF840F205313720FFF739F84FF404
:10179000C2613820FFF734F84FF4C2613920FFF7F7
:1017A0002FF84FF480710120FFF72AF84FF44071B1
:1017B0000220FFF725F841F230010320FFF720F85F
:1017C00040F608010820FFF71BF808210A20FFF760
:1017D00017F84FF41C516020FFF712F80121612027
:1017E000FFF70EF84FF49F719020FFF709F84FF4C0
:1017F00080719220FFF704F84FF480719320FEF778
:10180000FFFF4FF44051A020FEF7FAFF1021A32064
:10181000FEF7F6FF01210720FEF7F2FF2121072046
:10182000FEF7EEFF23210720FEF7EAFF3321072012
:10183000FEF7E6FF40F233110720FEF7E1FF01203B
:101840009E4908604FF6FF70FFF7BFF808BD2DE90D
:10185000F05F05460E4617469846DDF828A04FF083
:10186000000B781B401C1FFA80FB34461EE021460B
:10187000284602F099FDFFF707F84FF0000911E044
:101880004FF480708E490861400048618D48C0F86F
:1018900000A08020486108618000086109F1010012
:1018A0001FFA80F9D945EBDB601C84B24445DEDDCC
:1018B000BDE8F09F2DE9FF4F85B081468A460020A4
:1018C000049003900798A0EB09050898A0EB0A067E
:1018D000CDF80890CDF804A0002D01DD012705E02A
:1018E0000DB9002702E04FF0FF376D42002E02DDF8
:1018F0004FF0010806E016B94FF0000802E04FF083
:10190000FF387642B54201DD2C4600E034464FF008
:10191000000B21E0019881B2029880B2FFF73AF8FB
:101920000498284404900398304403900498A042FB
:1019300005DD0498001B0490029838440290039837
:10194000A04205DD0398001B0390019840440190DC
:101950000BF101001FFA80FB601C8345DADD09B042
:10196000BDE8F08F2DE9F04104460D4616461F46AE
:101970002B46324629462046FFF79CFF3B4622462F
:1019800029462046FFF796FF3B4632463946204619
:10199000FFF790FF3B46324629463046FFF78AFF65
:1019A000BDE8F0812DE9F04706460F469046002439
:1019B00045460320A0EB480948E03A1B91B2721B50
:1019C00090B2FEF7E7FF3A1B91B2721990B2FEF7A0
:1019D000E1FF7A1991B2321B90B2FEF7DBFF3A1B9E
:1019E00091B2721B90B2FEF7D5FF7A1B91B2321BF7
:1019F00090B2FEF7CFFF3A1991B2721990B2FEF78A
:101A0000C9FF7A1B91B2321990B2FEF7C3FF7A195F
:101A100091B2321990B2FEF7BDFF3A1991B2721B22
:101A200090B2FEF7B7FF641CB9F1000F03DAA00013
:101A3000801D814404E0601B80000A3081446D1EDB
:101A40007A1991B2321990B2FEF7A4FFAC42B4DD1C
:101A5000BDE8F0872DE9F84F0746894616461D4632
:101A6000BB46194800880090E82F02DCB9F59C7F3E
:101A700001DDBDE8F88FA6F12000C6B20A98002863
:101A800047D1002442E00C2D07D106EB46000F4958
:101A900001EB800010F804A004E00D4800EB0610F4
:101AA00010F804A04FF0000824E01AF0010F11D044
:101AB00005490098088011E01A000020A801224280
:101AC000001001400C0C014016000020F2430008F9
:101AD000664800087C4800887C49088049463846AA
:101AE000FEF758FF4FEA6A0A781C87B208F1010036
:101AF00000F0FF0805EBD571B8EB610FD5DB5F4651
:101B000009F101001FFA80F9601CC4B2AC42BADBD3
:101B10002DE0002429E00C2D07D106EB46006C498E
:101B200001EB800010F804A004E06A4800EB061006
:101B300010F804A04FF0000810E01AF0010F07D0D1
:101B400009EB040291B207EB080290B2FEF722FF04
:101B50004FEA6A0A08F1010000F0FF0805EBD571B1
:101B6000B8EB610FE9DB601CC4B2AC42D3DB574970
:101B70000098088000BF7CE710B50246012000E015
:101B800050430B00A1F10104E1B2F9D110BD2DE9E0
:101B9000FF4F81B0074691461E460E9D4FF0000A4A
:101BA000002439E0301B401EC1B20A20FFF7E4FFD9
:101BB000B9FBF0F00A21B0FBF1F201FB1208BAF117
:101BC000000F16D1701EA04213DDB8F1000F0ED128
:101BD0000020AB4605EBDB71491001FB047100905E
:101BE00088B22B4620220299FFF734FF12E04FF013
:101BF000010A0020AB4605EBDB71491001FB0471C3
:101C0000009088B22B4608F13001CAB20299FFF762
:101C100021FF00BF601CC4B2B442C3DB05B0BDE805
:101C2000F08F2DE9FF4F81B0074690461D46DDE954
:101C30000E6A00241EE0281B401EC1B20A20FFF7D6
:101C40009BFFB8FBF0F00A21B0FBF1F201FB120997
:101C5000B34606EBDB71491001FB047188B23346D1
:101C600009F13001CAB2CDF800A00299FFF7F2FEE7
:101C7000601CC4B2AC42DEDB05B0BDE8F08FF8B545
:101C800005460E4614461BE0E82D03DD002506F14F
:101C9000100086B2B6F59C7F06DD0020054606469C
:101CA0004FF6FF70FEF791FE00200090227810237F
:101CB00031462846FFF7CEFE05F1080085B2641CC8
:101CC00020780028E0D1F8BD180000201600002080
:101CD000F24300086648000810B50121042000F016
:101CE00034FA0121080701F0B2F8012000F0EEFEFD
:101CF00000F00AFF10BD10B500214FF4FE7001F096
:101D0000B3F8FFF7E9FF10BD70B5002500240020EF
:101D10002F4908601BE02F48006818B1681CC5B245
:101D2000002409E0601CC4B2032C05DD0120284911
:101D300008604FF0000070BD1E2000F0C7F8642D51
:101D400005DB0020224908604FF00100F3E7E2E7DD
:101D500010B5012020490860FFF7D6FF08B1FFF752
:101D6000CAFF10BD1FB50121052001F063F8012055
:101D7000ADF80C0028208DF80F0003A9174800F0DB
:101D80001FFD0021084600F02FFE012000900020DA
:101D90008DF8040008208DF8050001208DF806005C
:101DA000684600F02DFC06208DF8080002208DF812
:101DB00009008DF80A0001208DF80B0002A800F040
:101DC0008AF9FFF7A1FF08B9FFF786FF1FBD0000E2
:101DD000A0012142000121421404014000080140F9
:101DE00000B587B001214FF4017001F023F84FF4E2
:101DF000004000F086FF0F20ADF8040000208DF8B1
:101E0000070001A9254800F0DBFC254800F0CCF9CB
:101E1000002002908DF80C008DF80D004FF460202A
:101E200004900020059001208DF8180002A91C489C
:101E300000F0E1F901211A4800F009FA184800F011
:101E400028FA00BF164800F029FA0028FAD11448F1
:101E500000F02EFA00BF124800F02FFA0028FAD145
:101E600001210F4800F033FA07B000BD10B5044659
:101E70000723012221460A4800F055FA01210848AB
:101E800000F025FA00BF0221054800F07BFB002886
:101E9000F9D0034800F0AEFA10BD00000008014080
:101EA0000024014010B504466FF0040000F05EF914
:101EB000E11704EB5171C9101F4A117010460078E8
:101EC0004FF47A7148431D49088010BD01461B4AF2
:101ED00012884A434FF0E0235A6100229A6101229E
:101EE0001A6100BF4FF0E022106910F0010F02D01C
:101EF00010F4803FF6D000224FF0E0231A619A617F
:101F0000704701460C4A12784A434FF0E0235A6169
:101F100000229A6101221A6100BF4FF0E02210698D
:101F200010F0010F02D010F4803FF6D000224FF0E5
:101F3000E0231A619A6170471C0000201E000020F7
:101F400010B54FF4A06000F0C1F810BD014600BF0D
:101F5000704700BF494A128812F0400FFAD0C2B24F
:101F6000464B1B1D1A80704710B586B004460121F0
:101F700044F2050000F05EFF4FF40070ADF814006D
:101F800003208DF8160018208DF8170005A93C488D
:101F900000F016FC4FF48060ADF8140004208DF8BA
:101FA000170005A9364800F00BFC25208DF800002D
:101FB00003208DF801008DF8020001208DF8030048
:101FC000684600F088F801940020ADF80800ADF8EC
:101FD0000A00ADF80C00ADF810000C20ADF80E00B2
:101FE00001A9264801F0A9FE012240F2255123480B
:101FF00001F03BFF0121214801F02BFF06B010BD8D
:1020000010B540F225511D4802F017F810B31B48D7
:1020100001F093FFC4B21B48007810F0800F2BD161
:102020001848007810F0400F0CD00A2C03D0002084
:102030001449087020E01348007840F080001149EE
:10204000087019E00D2C06D10E48007840F04000D1
:102050000C49087010E00B48007800F03F000A4976
:102060000C5408480078401C06490870084600785F
:102070003F2801DD0020087010BD0000003801403D
:1020800000080140200000203C0000200948804753
:1020900009480047FEE7FEE7FEE7FEE7FEE7FEE74A
:1020A000FEE7FEE7FEE7FEE704480549054A064B62
:1020B0007047000065040008ED000008E000002003
:1020C000E0060020E0020020E00200203149014348
:1020D000314A1160704770B5002100230F22C47887
:1020E0000CB32D4C246804F4E064C4F5E064210AC8
:1020F000C1F10403CA40447804FA03F1847814401F
:1021000021430901254C0678A155047804F01F05E8
:102110000124AC4005786D114FF0E02606EB8505F3
:10212000C5F8004109E0047804F01F050124AC4023
:102130001B4D0678761145F8264070BD194A0A40B5
:102140000243154B1B1F1A60704739B1124A121D0A
:1021500012680243104B1B1D1A6006E00E4A121D46
:10216000126882430C4B1B1D1A607047042808D16B
:102170004FF0E021096941F004014FF0E0221161C4
:1021800007E04FF0E021096921F004014FF0E0225F
:10219000116170470000FA050CED00E000E400E07A
:1021A00080E100E080FFFF1F10B50446F94884423B
:1021B00008D10121401500F057FE0021601500F004
:1021C00053FE17E0F448844208D10121001500F0C5
:1021D0004BFE0021201500F047FE0BE0EF48844243
:1021E00008D10121C80300F03FFE00214FF4004058
:1021F00000F03AFE10BD30B50246002000235068C2
:10220000E74C20400D790C6844EA052420435060D7
:102210009068E44C2040D1E902542C434D7944EAC3
:10222000450420439060D06A20F470000C7C641E4A
:10223000E4B2234340EA0350D06230BD0021016084
:10224000017141718160C16001210174704721B148
:10225000826842F00102826003E0826822F001029B
:102260008260704721B1826842F48072826003E02C
:10227000826822F480728260704710B50023CBB26E
:102280001AB144681C43446002E044689C434460C3
:1022900010BD816841F0080181607047014600204F
:1022A0008A6812F0080F01D0012000E0002070477A
:1022B000816841F0040181607047014600208A680E
:1022C00012F0040F01D0012000E00020704721B17E
:1022D000826842F4A002826003E0826822F4A002D5
:1022E00082607047014600208A6812F4800F01D096
:1022F000012000E00020704710B50A4600210023AD
:10230000416821F46041531E41EA4331416010BDF0
:1023100021B1426842F40062426003E0426822F464
:10232000006242607047F0B504460D46002000216F
:10233000092D11DDE068A5F10A0606EB4607072620
:1023400006FA07F18843A5F10A0606EB460603FAEA
:1023500006F10843E0600CE0206905EB450707261D
:1023600006FA07F1884305EB450603FA06F1084330
:102370002061072A0FDA606B561E06EB86071F26C0
:1023800006FA07F18843561E06EB860605FA06F1A3
:102390000843606322E00D2A0FDA206BD61F06EB9C
:1023A00086071F2606FA07F18843D61F06EB860626
:1023B00005FA06F10843206310E0E06AA2F10D0679
:1023C00006EB86071F2606FA07F18843A2F10D06E1
:1023D00006EB860605FA06F10843E062F0BD21B17E
:1023E000826842F48012826003E0826822F48012E4
:1023F000826070470146C86C80B2704765484C30B7
:102400000068704721B1426842F48062426003E094
:10241000426822F480624260704721B1426842F40F
:102420008052426003E0426822F48052426070476A
:102430000A460021816821F4E04111438160704720
:1024400021B1826842F40042826003E0826822F493
:1024500000428260704721B1826842F402128260B9
:1024600003E0826822F40212826070470146002075
:102470008A6812F4001F01D0012000E0002070479C
:10248000F0B504461546002000220026092911DD7A
:10249000E068A1F10A0707EB470C072707FA0CF2DF
:1024A0009043A1F10A0707EB470703FA07F210432D
:1024B000E0600CE0206901EB410C072707FA0CF201
:1024C000904301EB410703FA07F210432061A06B30
:1024D000C0F30156EF1C06F1010CA7EB0C0707EB4C
:1024E000870C1F2707FA0CF29043EF1C06F1010C32
:1024F000A7EB0C0707EB870701FA07F21043A0636D
:10250000F0BD10B50A4600210023816B21F4401173
:10251000531E41EA0351816310BD10B500230346E9
:102520000B441A6010BD02460023134601F1280037
:102530000344186880B270470A46002141681A4B6C
:1025400019401143416070474162826270470A46F8
:102550000021416821F01F0111434160704740B1E3
:102560000C490831096841F400010A4A0832116037
:1025700007E008490831096821F40001054A0832DA
:10258000116070470246002013680B420ED00120F4
:102590000DE000000024014000280140003C014003
:1025A000FFFEF0FFFDF7F1FFFFFD3FFF002070474A
:1025B000CA430260704770B5024600200023002421
:1025C0000B125568CEB205EA060415681D4202D00A
:1025D0000CB1012000E0002070BD00220A12D3439C
:1025E00003607047002044490860091D0860091D08
:1025F0000860091D086041483F4914310860704770
:1026000000213D498279002A3AD00A4612680368BF
:102610009A430B461A600A1D126803689A430B1D01
:102620001A60027911440A6803681A430A60324A40
:102630000832126803689A432F4B08331A601A1D38
:10264000126803689A432C4B0C331A604279102AA3
:102650000ED11A1F126803681A43274B08331A60F9
:102660001A1D126803681A43234B0C331A600DE0DD
:102670002149427911440A6803681A430A6005E057
:10268000027911440A6803689A430A60704700217E
:10269000016001710C21417100218171704716495F
:1026A000103109680143144A103211607047014625
:1026B0000020114A143212680A4201D0012000E0C1
:1026C000002070470C491431086070470146002013
:1026D0000022094B1B6803EA0102074B14331B68F5
:1026E0000B4202D00AB1012000E0002070470249ED
:1026F000143108607047000000040140FFFF0F0024
:1027000010B50446CA48844208D10121042000F0D3
:10271000ABFB0021042000F0A7FB46E0C548844243
:1027200008D10121082000F09FFB0021082000F0C3
:102730009BFB3AE0C048844208D10121102000F000
:1027400093FB0021102000F08FFB2EE0BB48844259
:1027500008D10121202000F087FB0021202000F07B
:1027600083FB22E0B648844208D10121402000F0DA
:102770007BFB0021402000F077FB16E0B14884424B
:1027800008D10121802000F06FFB0021802000F0A3
:102790006BFB0AE0AC48844207D10121801500F0B0
:1027A00063FB0021A01500F05FFB10BD10B50121F7
:1027B000084600F059FB0021012000F055FB10BD38
:1027C0002DE9F041024600250026002000230024C8
:1027D000002791F803C00CF00F0591F803C01CF01E
:1027E000100F03D091F802C04CEA0505B1F800C003
:1027F0001CF0FF0F31D0146800202BE04FF0010CCB
:102800000CFA00F3B1F800C00CEA03069E4220D196
:1028100083004FF00F0C0CFA03F7BC4305FA03FCDE
:102820004CEA040491F803C0BCF1280F06D14FF024
:10283000010C0CFA00FCC2F814C00AE091F803C0C5
:10284000BCF1480F05D14FF0010C0CFA00FCC2F8A6
:1028500010C0401C0828D1D31460B1F800C0BCF1EE
:10286000FF0F34DD546800202EE000F1080C4FF01B
:10287000010808FA0CF3B1F800C00CEA03069E4206
:1028800021D183004FF00F0C0CFA03F7BC4305FA7B
:1028900003FC4CEA040491F803C0BCF1280F05D1F5
:1028A00000F1080C08FA0CF8C2F8148091F803C083
:1028B000BCF1480F07D100F1080C4FF0010808FAED
:1028C0000CF8C2F81080401C0828CED35460BDE834
:1028D000F0814FF6FF710180022181700421C170E7
:1028E00070470246002093680B4201D0012000E0AF
:1028F000002070470146886880B270470246002079
:10290000D3680B4201D0012000E00020704701464F
:10291000C86880B2704701617047416170470AB171
:10292000016100E041617047C16070474FF480323F
:102930000A438261816182618269826970470246CD
:102940000020424B18684FF68073184040EA02108E
:1029500008433E4B186070473D49C8617047F0B569
:102960000A46002300240021002500F00046B6F1AD
:10297000004F02D1354EF16901E0344E7168C0F369
:10298000034583B200F44016B6F5401F08D121F08C
:1029900070612E4E766826F070662C4F7E6012E0D5
:1029A00000F48016B6F5801F06D1032606FA05F45A
:1029B000A14341F0706106E0460D360103FA06F6C8
:1029C000B14341F0706122B1460D360103FA06F6BB
:1029D000314300F00046B6F1004F02D11B4EF161C9
:1029E00001E01A4E7160F0BD30B500228B071C0F5C
:1029F0000F2303FA04F2154B08338C1053F82430DC
:102A00009343124C08348D1044F8253023468C1023
:102A100053F824308C07240F00FA04F423430B4CA2
:102A200008348D1044F8253030BD0A4908607047DD
:102A300000080140000C014000100140001401405A
:102A400000180140001C014000200140000001402E
:102A500000002042DC0020420E49086070470D490A
:102A6000486070470B49886070474AF6AA200949B8
:102A7000086070474CF6CC40064908607047014634
:102A80000020044AD2680A4201D0012000E0002060
:102A9000704700000030004010B50121080700F029
:102AA000F0F900214FF0805000F0EBF910BD2949FA
:102AB0000862704727490861704701460020264A8E
:102AC000106820F0E0000843106070472349086058
:102AD000704710B5024600201F4B186820F0030015
:102AE000104318601E4B1B6843F004031C4C23600A
:102AF000012901D130BF00E020BF194B1B6823F032
:102B00000403174C236010BD1348006840F0040014
:102B1000114908600846006840F00200086010484B
:102B2000006840F004000E49086000BF00BF30BFDD
:102B3000704701460020084A52680A4201D001202D
:102B400000E0002070470449096841EA8001024A18
:102B50001160704700000E4200700040A0000E425D
:102B600010ED00E0DC48006840F00100DA49086040
:102B700008464068D9490840D74948600846006877
:102B8000D7490840D44908600846006820F48020EE
:102B900008600846406820F4FE0048604FF41F00BB
:102BA00088607047CC49096821F48031CA4A1160B5
:102BB0001146096821F480211160B0F5803F03D0EF
:102BC000B0F5802F0ED106E0C349096841F4803189
:102BD000C14A116007E0C049096841F4A021BE4A1A
:102BE000116000E000BF00BF704710B50146002231
:102BF000002300204A11012A02D1B74C236806E0C5
:102C0000022A02D1B44C236A01E0B34C636A01F09A
:102C10001F02012494401C4201D0012000E000204A
:102C200010BD70B500240025002600BF3120FFF73D
:102C3000DCFF0646641CB4F5A06F01D0002EF5D071
:102C40003120FFF7D2FF08B1012500E0002528461A
:102C500070BD01460020A04A106820F0F80040EA4C
:102C6000C100106070479F4908607047024600200D
:102C7000994B586820F47C1042EA01031843964BA4
:102C80005860704797490866704701460020924A8D
:102C9000506820F003000843506070478E48406839
:102CA00000F00C007047014600208B4A506820F06D
:102CB000F00008435060704701460020864A506883
:102CC00020F4E06008435060704701460020824ACB
:102CD000506820F4605040EAC1005060704729B14C
:102CE0007D4A527A02437C4B5A7206E07A4A527A03
:102CF000C343DBB21A40784B5A7270477A49086076
:102D0000704701460020744A506820F44040084350
:102D1000506070470021754A11706F4A82F8201088
:102D2000012802D0042808D103E001216F4A117064
:102D300004E005216D4A117000E000BF00BF70473C
:102D40006B49086070476449096A0143624A11622D
:102D50007047674944390860704730B50021002248
:102D6000002400235C4D6D6805F00C0121B104299D
:102D700005D0082923D105E05E4D056022E05D4DB8
:102D800005601FE0544D6D6805F47012524D6D687A
:102D900005F48034022505EB92421CB9564D55438B
:102DA00005600BE04C4D6D6815F4003F03D0524DAB
:102DB0005543056002E04F4D5543056002E04D4D1F
:102DC000056000BF00BF444D6D6805F0F0010909C2
:102DD0004A4D6B5C0568DD4045603F4D6D6805F40C
:102DE000E061090A454D6B5C4568DD4085603A4D00
:102DF0006D6805F46051C90A404D6B5C4568DD4063
:102E0000C560354D6D6805F44041890B3C4D6B5CE8
:102E1000C568B5FBF3F5056130BD29B12E4A52698D
:102E200002432D4B5A6104E02B4A526982432A4BDC
:102E30005A61704729B1284A92690243264B9A6128
:102E400004E0254A92698243234B9A61704729B175
:102E5000214AD2690243204BDA6104E01E4AD2695A
:102E600082431D4BDA61704729B11B4AD268024385
:102E7000194BDA6004E0184AD2688243164BDA60D4
:102E8000704729B1144A12690243134B1A6104E0D6
:102E9000114A12698243104B1A6170471449403934
:102EA000086070470F49C86470470B49C871704784
:102EB0000948406A40F080700749486270470146FF
:102EC0000020054A92680A4201D0012000E000205B
:102ED0007047014988727047001002400000FFF8F7
:102EE000FFFFF6FE00004242D8004242201002409E
:102EF0008004424200127A0000093D0028000020B0
:102F00003800002010B50446FE48844208D1012153
:102F1000C014FFF7A9FF0021E014FFF7A5FFC4E0EC
:102F2000B4F1804F08D101210846FFF7AAFF002124
:102F30000120FFF7A6FFB8E0F348844208D1012141
:102F40000220FFF79EFF00210220FFF79AFFACE06E
:102F5000EE48844208D101210420FFF792FF0021AE
:102F60000420FFF78EFFA0E0E948844208D1012148
:102F70000820FFF786FF00210820FFF782FF94E07A
:102F8000E448844208D101211020FFF77AFF002194
:102F90001020FFF776FF88E0DF48844208D1012146
:102FA0002020FFF76EFF00212020FFF76AFF7CE062
:102FB000DA48844208D101214014FFF755FF00216F
:102FC0006014FFF751FF70E0D548844209D1012118
:102FD000C804FFF749FF00214FF40020FFF744FF2A
:102FE00063E0D048844209D101210805FFF73CFF86
:102FF00000214FF48010FFF737FF56E0CA488442A3
:1030000009D101214805FFF72FFF00214FF40010DF
:10301000FFF72AFF49E0C548844208D1012140203A
:10302000FFF72FFF00214020FFF72BFF3DE0C048B6
:10303000844208D101218020FFF723FF0021802056
:10304000FFF71FFF31E0BB48844208D10121801502
:10305000FFF717FF0021A015FFF713FF25E0B64883
:10306000844209D101210804FFF7FEFE00214FF43C
:103070008030FFF7F9FE18E0B048844209D1012101
:103080004804FFF7F1FE00214FF40030FFF7ECFE9B
:103090000BE0AB48844208D101218804FFF7E4FE2D
:1030A00000214FF48020FFF7DFFE10BD00220288D0
:1030B000944B98420ED0994B98420BD0B0F1804F70
:1030C00008D0914B984205D0904B984202D0904B3B
:1030D000984204D14FF68F731A404B881A438D4B98
:1030E000984207D08C4B984204D04FF6FF431A40C9
:1030F000CB881A4302808B8883850B880385814B9C
:1031000098420BD0854B984208D08B4B984205D003
:103110008A4B984202D08A4B984201D10B7A03869F
:1031200001238382704770B5002400220023058CA0
:103130004FF6FE7635400584028C8388048B4FF66B
:103140008F752C40B51E2C400D882C43751E2A40CF
:103150000D892A434D882A436A4DA8420BD06F4DF2
:10316000A84208D0744DA84205D0744DA84202D0A0
:10317000734DA84213D14FF6F7752A404D892A4363
:103180004FF6FB752A408D882A434FF6FF652B408A
:103190004FF6FF552B408D892B43CD892B438380E0
:1031A0000483CD888586028470BD70B5002400221A
:1031B0000023058C4FF6EF7635400584028C83881A
:1031C000048B48F6FF752C404FF6FF452C400D88C8
:1031D0002D0644EA15444FF6DF752A400D892D056A
:1031E00042EA15424D882D0542EA1542454DA84256
:1031F00002D04A4DA8421BD14FF67F752A404D8917
:103200002D0542EA15424FF6BF752A408D882D05DF
:1032100042EA15424FF6FF352B404FF2FF752B4027
:103220008D89AD0443EA1543CD89AD0443EA1543C6
:1032300083800483CD880587028470BD70B5002427
:1032400000220023058C4FF6FF6635400584028C72
:103250008388848B4FF68F752C404FF6FC752C407D
:103260000D882C434FF6FF552A400D892D0642EA62
:1032700015424D882D0642EA1542224DA84202D041
:10328000264DA8421BD14FF2FF752A404D892D06CD
:1032900042EA15424FF6FF352A408D882D0642EA54
:1032A00015424EF6FF752B404DF6FF752B408D896C
:1032B0002D0543EA1543CD892D0543EA1543838047
:1032C0008483CD888587028470BD70B50022002379
:1032D0000024058C4EF6FF7635400584038C8488E7
:1032E000828B48F6FF752A404FF6FF452A400D882D
:1032F0002D0642EA15424DF6FF752B400D892D072C
:1033000020E00000002C01400004004000080040C4
:10331000000C004000100040001400400034014048
:10332000004C014000500140005401400018004092
:10333000001C0040002000400040014000440140CB
:103340000048014043EA15434D882D0743EA1543E1
:10335000F84DA84202D0F84DA84206D14BF6FF75B1
:103360002C408D89AD0544EA154484808283CD8844
:10337000A0F84050038470BD828B4FF2FF331A4097
:103380008283828B0B0642EA134282837047F0B538
:103390000C461546002200210026078C4EF6FF7CC5
:1033A00007EA0C070784828B018C27073E0C40F646
:1033B000FF473A402F0642EA17421F0742EA1742E8
:1033C000DC4FB8420ED0DC4FB8420BD0B0F1804F8A
:1033D00008D0DA4FB84205D0D94FB84202D0D94F01
:1033E000B84206D14DF6FF77394046F4805739434D
:1033F00005E047F6FF57394044F48057394382834C
:103400000184F0BD828B4FF6F3731A408283828B66
:103410000A4382837047F0B50C461546002200210E
:103420000026078C4FF6FF6C07EA0C070784828B97
:10343000018C27063E0C4FF60C773A401F0545EAF3
:1034400017473A43BB4FB8420ED0BB4FB8420BD0E0
:10345000B0F1804F08D0B94FB84205D0B84FB8424C
:1034600002D0B84FB84206D14FF6FF57394046F464
:103470008077394305E04FF2FF57394044F48077B5
:10348000394382830184F0BD028B4FF2FF331A402F
:103490000283028B0B0642EA134202837047F0B5A7
:1034A0000C461546002200210026078C4FF6EF7CC3
:1034B00007EA0C070784028B018C27053E0C40F6B7
:1034C000FF473A401F0742EA17422F0642EA1742D7
:1034D000984FB8420ED0984FB8420BD0B0F1804F01
:1034E00008D0964FB84205D0954FB84202D0954FBC
:1034F000B84206D14FF6DF77394046F0100739431E
:1035000005E04FF65F77394044F0100739430283F6
:103510000184F0BD028B4FF6F3731A400283028BD5
:103520000A4302837047F0B50C461546002200217D
:10353000068C4FF6FE773E400684028B018C4FF6D8
:103540000C7632401E0545EA16463243794EB042AB
:103550000ED0794EB0420BD0B0F1804F08D0774EEC
:10356000B04205D0764EB04202D0764EB04206D17F
:103570004FF6FD76314044F00106314305E04FF649
:10358000F576314044F00106314302830184F0BDF9
:1035900070B505460C46674885420ED066488542A0
:1035A0000BD0B5F1804F08D06448854205D06448FF
:1035B000854202D06348854200D100E000BF2088E8
:1035C00050B92389A28861882846FFF7ACFFE188BB
:1035D0002846FFF79FFF25E0208804280AD1238989
:1035E000A28861882846FFF75AFFE1882846FFF73E
:1035F0004BFF17E0208808280AD12389A288618818
:103600002846FFF708FFE1882846FFF7FBFE09E0A0
:103610002389A28861882846FFF7B9FEE1882846F9
:10362000FFF7AAFE70BD2DE9F04105460C460026C5
:103630000127608808B9022600E00026A08801283A
:1036400001D1022700E001272088A0B92389A288A0
:1036500061882846FFF767FFE1882846FFF75AFF91
:1036600023893A4631462846FFF719FFE188284664
:10367000FFF70AFF13E02389A28861882846FFF735
:103680000EFFE1882846FFF7FFFE23893A463146C0
:103690002846FFF748FFE1882846FFF73BFFBDE8D3
:1036A000F0810A884B881A438B881A43CB881A43C7
:1036B0000B891A434B891A438B891A43A0F844207B
:1036C00070474FF6FF71818000210180C1804180E9
:1036D000017270470021018041808180C180018199
:1036E00041818181C1817047002101804180012198
:1036F00081800021C18001817047002101804180CB
:103700008180C180018141818181704721B102881E
:1037100042F00102028004E002884FF6FE731A4074
:103720000280704781B1B0F8442042F40042A0F812
:1037300044200FE0002C0140003401400004004010
:1037400000080040000C0040B0F84420C2F30E0214
:10375000A0F84420704710B51AB183890B438381C8
:1037600004E08389CC43A4B22340838110BD8182CD
:10377000704741EA0203A0F84830704710B51AB10B
:1037800083890B43838104E08389CC43A4B2234023
:10379000838110BD01894FF6F87211400181704795
:1037A0000A46002101894FF68F73194011430181A8
:1037B000704730B504460D4629462046FFF7F0FF16
:1037C000208940F00700208130BD2DE9F0410446FA
:1037D0000D4616461F46602D06D13B460122314656
:1037E0002046FFF75CFE05E03B46012231462046BD
:1037F000FFF799FE29462046FFF7D2FF208940F0C7
:1038000007002081BDE8F08130B50C460021018918
:10381000C9B21D0642EA154525432943018130BD41
:103820002DE9F04105460E461746984600244346CA
:103830003A4631462846FFF7E7FF2C894FF6F870E5
:10384000044044F007044FF68F70044044F07004C5
:103850002C81BDE8F081F0B504460D4616461F46A2
:103860003B46324629462046FFF7CEFF208940F4EA
:1038700080402081F0BD0185828270470A46002188
:1038800001884FF68F731940114301807047F0B5DE
:103890000C4615461E460021002200230189028B9A
:1038A000038C4FF6F877394021434FF6FC473A40F6
:1038B00040F201173A434FF6DD773B40370545EAC2
:1038C00017473B43018102830384F0BD0A46002170
:1038D000018B4FF68F7319401143018370470A46DD
:1038E0000021018B48F6FF731940130641EA13418A
:1038F000018370470A460021818B4FF68F73194070
:103900001143818370470A460021818B48F6FF737B
:103910001940130641EA13418183704721B102889F
:1039200042F08002028004E002884FF67F731A4062
:103930000280704721B1828842F00402828004E054
:1039400082884FF6FB731A408280704721B18288CB
:1039500042F00802828004E082884FF6F7731A4032
:103960008280704721B1828842F00102828004E0A7
:1039700082884FF6FE731A40828070470A46002103
:10398000018B4FF6F77319401143018370470A46C4
:103990000021018B4FF2FF731940130641EA1341D6
:1039A000018370470A460021818B4FF6F773194057
:1039B0001143818370470A460021818B4FF2FF73C8
:1039C0001940130641EA1341818370470A460021DA
:1039D000018B4FF6FB7319401143018370470A4670
:1039E0000021018B4FF6FF331940130641EA1341C2
:1039F000018370470A460021818B4FF6FB73194003
:103A00001143818370470A460021818B4FF6FF33B3
:103A10001940130641EA1341818370470A46002189
:103A2000018B4FF67F7319401143018370470A469B
:103A30000021018BC1F30E01130641EA13410183FA
:103A400070470A460021818B4FF67F73194011435E
:103A5000818370470A460021818BC1F30E01130652
:103A600041EA1341818370470A460021018C4FF6D9
:103A7000FD7319401143018470470A460021018CEF
:103A80004FF6F77319401143018470470A4600212D
:103A9000018C4FF6DF731940130541EA134101848D
:103AA00070470A460021018C4FF67F7319401305B9
:103AB00041EA1341018470470A460021018C4FF608
:103AC000FF531940130641EA1341018470470A4627
:103AD0000021018C4FF2FF731940130641EA134194
:103AE000018470470A460021018C4DF6FF7319408E
:103AF000130741EA13410184704730B500230124C4
:103B00008C40A3B2048CDD43ADB22C400484048C01
:103B100002FA01F5ADB22C43048430BD30B5002368
:103B200004248C40A3B2048CDD43ADB22C40048449
:103B3000048C02FA01F5ADB22C43048430BD70B59B
:103B40000346002000241846183001258D40ACB2F1
:103B50001D8CE643B6B235401D8409B1082909D150
:103B600000EB6100056825F07005056005681543E8
:103B700005600CE00D1FADB200EB6500056825F493
:103B8000E04505600568160645EA1645056070BD06
:103B900021B1028842F00202028004E002884FF65E
:103BA000FD731A400280704721B1028842F004027E
:103BB000028004E002884FF6FB731A4002807047CF
:103BC00021B1828842F08002828004E082884FF630
:103BD0007F731A408280704702884FF6F7731A404D
:103BE000028002880A430280704782884FF68F73F2
:103BF0001A40828082880A438280704702894FF689
:103C0000F8731A40028102890A43028170470289CF
:103C10004FF67F731A40028102890A43028170477E
:103C2000818470478185704781867047018770471E
:103C300081877047A0F84010704702884FF6FF4315
:103C40001A40028002880A43028070470146888E2B
:103C500070470146088F70470146888F70470146BC
:103C6000B1F8400070470146888C70470146088DC6
:103C7000704702460020138A0B4201D0012000E069
:103C800000207047CA430282704730B502460020C8
:103C900000230024158A05EA0103958905EA010439
:103CA00013B10CB1012000E0002030BDCA430282F4
:103CB0007047000010B50446FC48844209D1012138
:103CC0008803FFF7D1F800214FF48040FFF7CCF8CC
:103CD00032E0F748844209D101214804FFF7D1F8C6
:103CE00000214FF40030FFF7CCF825E0F148844282
:103CF00009D101218804FFF7C4F800214FF4802086
:103D0000FFF7BFF818E0EC48844209D10121C8044C
:103D1000FFF7B7F800214FF40020FFF7B2F80BE0EF
:103D2000E648844208D101210805FFF7AAF80021DE
:103D30004FF48010FFF7A5F810BD2DE9F04786B0CD
:103D400005460E460024A24600BFA1460027B089C2
:103D500000B100BF2F462C8A4CF6FF700440F0885B
:103D600004432C82AC894EF6F3100440B0883189AC
:103D70000843718908430443AC81AC8A4FF6FF4085
:103D80000440B0890443AC8201A8FEF7E6FFC748AF
:103D9000874202D1DDF810A001E0DDF80CA0A8896F
:103DA00010F4004F08D00AEBCA0000EB0A1031688B
:103DB0004900B0FBF1F807E00AEBCA0000EB0A107B
:103DC00031688900B0FBF1F86420B8FBF0F0040121
:103DD0002009642101FB1089A88910F4004F08D044
:103DE000322000EBC900B0FBF1F000F00700044303
:103DF00008E0322000EB09106421B0FBF1F000F084
:103E00000F0004432C8106B0BDE8F0874FF4165133
:103E1000016000218180C18001810C21418100214C
:103E20008181704710B502460020108A4FF2FF03CF
:103E300018400B884C8823438C882343CC88234329
:103E40001843108210BD0021018041808180C18013
:103E5000704721B1828942F40052828104E0828954
:103E60004DF6FF731A4082817047F0B50346002477
:103E7000002600250020A1F510676A3F00D100BF91
:103E80001846C1F3421401F01F06012707FA06F590
:103E9000012C01D10C3004E0022C01D1103000E0E3
:103EA00014301AB107682F43076002E00768AF4378
:103EB0000760F0BD10B51AB1838A0B43838204E01A
:103EC000838ACC43A4B22340838210BD028A4FF67A
:103ED000F0731A400282028A0A4302827047828982
:103EE0004FF2FF731A40828182890A4382817047B0
:103EF00021B1828942F00202828104E082894FF678
:103F0000FD731A4082817047028A4FF6DF731A40B0
:103F10000282028A0A430282704721B1028A42F475
:103F20008042028204E0028A4BF6FF731A4002824A
:103F30007047C1F308028280704701468888C0F349
:103F400008007047818941F0010181817047028B2F
:103F5000D2B20283028B42EA012202837047028BB3
:103F600002F47F420283028B0A430283704721B12D
:103F7000828A42F02002828204E0828A4FF6DF7356
:103F80001A408282704721B1828A42F010028282F6
:103F900004E0828A4FF6EF731A408282704721B1A3
:103FA000828A42F00802828204E0828A4FF6F77326
:103FB0001A408282704721B1828942F40042828194
:103FC00003E08289C2F30E028281704721B1828AA6
:103FD00042F40062828204E0828A4FF2FF731A4048
:103FE00082827047828A4FF6FB731A408282828AED
:103FF0000A438282704721B1828A42F002028282A1
:1040000004E0828A4FF6FD731A40828270470246AE
:104010000020B1F5007F00D100BF13880B4201D012
:10402000012000E00020704701F40072B2F5007F2B
:1040300000D100BFCA430280704770B50246002419
:10404000002300250020A1F510666A3E00D100BFC4
:10405000C1F3421501F01F03012606FA03F3012DF7
:1040600002D19689334006E0022D02D1168A3340F0
:1040700001E0968A33400C12012606FA04F41688F1
:10408000344013B10CB1012000E0002070BD10B528
:1040900000220023A1F510646A3C00D100BF0A127F
:1040A00001249440A3B2DC43048010BD00380140D9
:1040B0000044004000480040004C004000500040D8
:1040C00010B50121C802FEF7DCFE00214FF40060AC
:1040D000FEF7D7FE10BD0021164A126822F4C07107
:1040E0000143144A116070470021124A126822F0FD
:1040F0007F0100F07F0211430E4A116070470120DA
:104100000D490860704700F07F010A4A121F1160D4
:10411000704740F08001074A121F11607047054840
:10412000001D0068C0B2704700200249091D0860E8
:1041300070470000042C0040A48005427047000036
:104140000FB4044910B503AA029800F0CBF810BCD4
:104150005DF814FB240000202DE9F04104460E46D2
:1041600000200AE0E1682046884738B3252806D0B9
:10417000D4E901219047206A401C2062F2E7E168FF
:10418000204600278847050018D0A5F141001928CE
:1041900002D820354FF40067324629462046276072
:1041A000FBF7DEFF40B1012804D0F61D26F007061C
:1041B0000836D7E7361DD5E72846D9E7206ABDE897
:1041C000F081000070B504460D4621461068AFF33B
:1041D00000802168090502D5104A7A4402E00F4A9E
:1041E0007A440E32002104F1240307E000F00F06A8
:1041F0004FEA1010965D5E5401F101010028F5D1DF
:1042000003462068000704D5702D02D009B1113291
:1042100002232046BDE8704000F008B8780C00008A
:10422000FDF797BE70477047704770472DE9F0471C
:104230000D4604469246994600F124080168880616
:1042400004D5E06921F01001216000E00120A842BE
:1042500002DDA0EB050700E00027A16907EB0502DE
:1042600002EB0900A1EB0000A0612068C00602D4A7
:104270002046AFF30080002608E0D4E901211AF8B7
:1042800006009047206A401C761C20624E45F4DBF5
:104290002068C0060AD52046AFF3008006E0D4E9C6
:1042A000012130209047206A401C2062381EA7F16F
:1042B0000107F4DC07E0D4E9012118F80500904774
:1042C000206A401C2062281EA5F10105F3DC20466F
:1042D000AFF300802068000602D50220BDE8F08719
:1042E0000120FBE7074B70B50C467B4400F011F84A
:1042F0000546204600F020F810B14FF0FF3070BDA9
:10430000284670BD65DCFFFF01694A1C0261087820
:10431000704700B58FB0CDE9013100210591054905
:104320007944CDE9031011466846FFF715FF0FB039
:1043300000BD0000E5FFFFFFC06800F0800070478F
:10434000754600F029F8AE4605006946534620F050
:104350000700854618B020B5FDF7A6FEBDE8204051
:104360004FF000064FF000074FF000084FF0000B31
:1043700021F00701AC46ACE8C009ACE8C009ACE8E4
:10438000C009ACE8C0098D4670470446AFF3008011
:104390002046FBF7F9FE0000004870477C00002033
:1043A000004870478000002030B504460D460C4898
:1043B0000088A0F50941893908D121464E20FCF733
:1043C0001FFA29464F20FCF71BFA07E02146202060
:1043D000FCF716FA29462120FCF712FA30BD00003E
:1043E0001A00002010B5FFF7DBFF4FF0000101605D
:1043F00010BD0000000000000000000000000000F0
:104400000404040404040004000000140A0A000068
:10441000000000000000000014143F140A3F0A0AC4
:10442000000000041E1505060C14150F0400000002
:1044300012150D0A142C2A1200000000040A0A1E8C
:1044400015150936000000020201000000000000FE
:1044500000000020100808080808081020000002CA
:104460000408080808080804020000000004150EEB
:104470000E150400000000000404041F04040400DE
:104480000000000000000000000000020201000027
:104490000000001F000000000000000000000000FD
:1044A00000000002000000100808080404020202D4
:1044B000010000000E1111111111110E0000000079
:1044C000040604040404040E000000000E11110888
:1044D0000402011F000000000E11100C1010110E3C
:1044E00000000000080C0A0A091E0818000000005D
:1044F0001F01010F1010110E000000000E09010F26
:104500001111110E000000001F0908040404040426
:10451000000000000E11110E1111110E000000001C
:104520000E1111111E10120E0000000000000400F8
:10453000000000040000000000000004000000046F
:1045400004000020100804020408102000000000ED
:1045500000001F00001F00000000000204081020DF
:1045600010080402000000000E11110804040004E9
:10457000000000000E111915151D011E000000009D
:1045800004040C0A0A1E1233000000000F12120E5F
:104590001212120F000000001E1101010101110E84
:1045A000000000000F1212121212120F0000000081
:1045B0001F120A0E0A02121F000000001F120A0E2C
:1045C0000A020207000000001C1201013911120C3E
:1045D000000000003312121E1212123300000000FD
:1045E0001F0404040404041F000000003E0808081F
:1045F000080808090700000037120A060A0A1237DD
:1046000000000000070202020202223F0000000038
:104610001B1B1B1B15151515000000003B12161661
:104620001A1A1217000000000E1111111111110EAB
:10463000000000000F12120E02020207000000002C
:104640000E1111111117190E180000000F12120E81
:104650000A121237000000001E1101060810110F87
:10466000000000001F1504040404040E00000000F4
:10467000331212121212120C000000003312120A2E
:104680000A0C0404000000001515150E0A0A0A0A97
:10469000000000001B0A0A04040A0A1B00000000B4
:1046A0001B0A0A040404040E000000001F09080489
:1046B0000402121F0000001C040404040404040487
:1046C0001C00000202020404080808100000000E8A
:1046D00008080808080808080E0000040A0000007E
:1046E00000000000000000000000000000000000CA
:1046F000003F000400000000000000000000000077
:104700000000000C121C123C000000000302020E0C
:104710001212120E000000000000001C1202021C07
:10472000000000001810101C1212123C00000000C3
:104730000000000C121E021C000000003804041EC1
:104740000404041E000000000000003C120C021EC5
:10475000221C00000302020E121212370000000099
:10476000040000060404040E000000000800000C11
:1047700008080808080700000302023A0A0E123768
:1047800000000000070404040404041F00000000EB
:104790000000000F15151515000000000000000FA7
:1047A00012121237000000000000000C1212120C4E
:1047B000000000000000000F1212120E020700009D
:1047C0000000001C1212121C103800000000001B18
:1047D00006020207000000000000001E020C101E6E
:1047E000000000000004040E04040418000000008F
:1047F0000000001B1212123C0000000000000037F5
:10480000120A0C040000000000000015150E0A0A30
:10481000000000000000001B0A040A1B000000004A
:1048200000000037120A0C04040300000000001E00
:104830000804041E000000180808080408080808F6
:1048400018000808080808080808080808080006EA
:1048500004040408040404040600022518000000EF
:104860000000000000000000000000000000000048
:104870000000000000000000000808080808080800
:1048800000001818000000486C241200000000000E
:104890000000000000000000002424247F121212F7
:1048A0007F12121200000000081C2A2A0A0C182885
:1048B000282A2A1C080800000022251515152A5848
:1048C0005454542200000000000C1212120A7625E3
:1048D0002911916E0000000606040300000000008C
:1048E0000000000000000040201010080808080820
:1048F00008101020400000020408081010101010CA
:104900001008080402000000000008086B1C1C6B63
:1049100008080000000000000000080808087F08E0
:10492000080808000000000000000000000000006F
:104930000000060604030000000000000000FE0066
:104940000000000000000000000000000000000067
:1049500000000606000000008040402020101008E3
:1049600008040402020000000018244242424242AD
:10497000424224180000000000080E080808080839
:104980000808083E00000000003C4242422020107F
:104990000804427E00000000003C424220182040F3
:1049A0004042221C00000000002030282424222243
:1049B0007E20207800000000007E0202021A2640BD
:1049C0004042221C0000000000382402021A264245
:1049D0004242241800000000007E22221010080825
:1049E0000808080800000000003C42424224182445
:1049F0004242423C000000000018244242426458F7
:104A00004040241C000000000000000018180000B6
:104A1000000018180000000000000000000800005E
:104A200000000008080400000040201008040204F0
:104A30000810204000000000000000007F0000007F
:104A40007F00000000000000000204081020402049
:104A50001008040200000000003C424246402010C2
:104A60001000181800000000001C225A555555551A
:104A70002D42221C00000000000808181414243CD9
:104A8000224242E700000000001F2222221E224292
:104A90004242221F00000000007C4242010101014D
:104AA0000142221C00000000001F224242424242FA
:104AB0004242221F00000000003F4212121E12124A
:104AC0000242423F00000000003F4212121E12123A
:104AD0000202020700000000003C222201010171D5
:104AE0002122221C0000000000E7424242427E4296
:104AF000424242E700000000003E0808080808089B
:104B00000808083E00000000007C10101010101073
:104B100010101010110F0000007722120A0E0A1256
:104B200012222277000000000007020202020202A5
:104B30000202427F000000000077363636362A2A0D
:104B40002A2A2A6B0000000000E346464A4A5252D5
:104B50005262624700000000001C22414141414175
:104B60004141221C00000000003F424242423E02FE
:104B70000202020700000000001C224141414141A5
:104B80004D53321C60000000003F4242423E121270
:104B9000222242C700000000007C4242020418208A
:104BA0004042423E00000000007F49080808080813
:104BB0000808081C0000000000E74242424242424E
:104BC0004242423C0000000000E7424222242414FA
:104BD0001418080800000000006B49494949555560
:104BE000362222220000000000E742242418181870
:104BF000242442E700000000007722221414080851
:104C00000808081C00000000007E21201010080485
:104C10000442423F00000078080808080808080815
:104C200008080808780000000202040408080810B8
:104C3000102020204040001E1010101010101010E6
:104C4000101010101E00003844000000000000008A
:104C50000000000000000000000000000000000054
:104C60000000000000FF0006080000000000000037
:104C7000000000000000000000000000003C42783E
:104C8000444242FC0000000000030202021A2642D5
:104C90004242261A000000000000000000384402D2
:104CA0000202443800000000006040404078444266
:104CB000424264D80000000000000000003C427E38
:104CC0000202423C0000000000F08808087E08084C
:104CD0000808083E0000000000000000007C2222BE
:104CE0001C023C42423C000000030202023A4642DF
:104CF000424242E700000000000C0C00000E0808D1
:104D00000808083E00000000003030000038202075
:104D100020202020221E0000000302020272120A3C
:104D20001612227700000000000E08080808080884
:104D30000808083E0000000000000000007F92927A
:104D4000929292B70000000000000000003B464233
:104D5000424242E70000000000000000003C4242E6
:104D60004242423C0000000000000000001B2642BE
:104D70004242221E02070000000000000078444268
:104D80004242447840E000000000000000774C04FC
:104D90000404041F0000000000000000007C420228
:104DA0003C40423E0000000000000008083E0808A9
:104DB00008080830000000000000000000634242C4
:104DC000424262DC000000000000000000E74224D4
:104DD00024140808000000000000000000EB49490E
:104DE0005555222200000000000000000076241823
:104DF0001818246E000000000000000000E74224A4
:104E0000241418080807000000000000007E22108B
:104E10000808447E000000C0202020202010202010
:104E200020202020C00010101010101010101010A2
:104E300010101010101000060808080808100808C4
:104E40000808080806000C32C2000000000000003C
:104E50000000000000003031323334353637383945
:104E600041424344454640305800303132333435B6
:104E70003637383961626364656640307800000017
:104E8000A04E0008000000203C000000280100089F
:104E9000DC4E00083C000020A4060000440100088D
:104EA00000A24A0400000000000000000102030408
:104EB0000607080901000000FFFF000000000000D5
:104EC00000000000000000000000000001020304D8
:0C4ED0000102030406070809020406089A
:04000005080000ED02
:00000001FF
