:10000000F8FF0020110400009B1700009B17000060
:100010009B1700009B1700009B1700009B17000018
:100020009B1700009B1700009B1700009B17000008
:100030009B1700009B1700009B1700009B170000F8
:100040009B1700009B1700009B1700009B170000E8
:100050009B1700009B1700009B1700009B170000D8
:100060009B1700009B1700009B1700009B170000C8
:100070009B1700009B1700009B1700009B170000B8
:100080009B1700009B1700009B1700009B170000A8
:100090009B1700009B1700009B1700009B17000098
:1000A0009B1700009B1700009B1700009B17000088
:1000B0009B1700009B1700009B1700009B17000078
:1000C0009B1700009B1700009B1700009B17000068
:1000D0009B1700009B1700009B1700009B17000058
:1000E0009B1700009B1700009B1700009B17000048
:1000F0009B1700006D1000009B1700008F10000080
:100100009B170000B11000009B170000D3100000E7
:100110009B170000F51000009B170000171100004E
:100120009B1700009B1700009B1700009B17000007
:100130009B1700009B170000E91B0000F91B000043
:10014000091C00009B1700009B1700009B17000074
:1001500055190000B1190000BF190000CD190000A9
:100160009B1700009B1700009B1700009B170000C7
:100170009B1700009B1700009B1700009B170000B7
:100180009B1700009B1700009B1700009B170000A7
:100190009B170000B51C00009B170000CD0C000051
:1001A0000B0D0000490D0000870D0000C50D00007B
:1001B0009B1700009B1700009B1700009B17000077
:1001C0009B1700009B1700009B1700009B17000067
:1001D0009B1700009B1700009B1700009B17000057
:1001E0009B1700009B1700009B1700009B17000047
:10040000FFFFFFFFFFFFFFFFFFFFFFFFFEFFFFFFFD
:100410004FF000004FF000014FF000024FF00003DA
:100420004FF000044FF000054FF000064FF00007BA
:100430004FF000084FF000094FF0000A4FF0000B9A
:100440004FF0000C62B601F037FBFEE70000000041
:10045000000000000000000000000000000000009C
:10046000000000000000000000000000000000008C
:1004700000000000000000000000000000C0E0F0EC
:10048000F8787878F8F0E0E0C0C08080808080C0A4
:10049000C0C0C0C0C0E0E0C0C080000000000000DC
:1004A000000000000000000000000000000000004C
:1004B000000000000000000000000000000000003C
:1004C000000000000000000000000000000000002C
:1004D000000000000000000000000000000000001C
:1004E000000000000000000000000000000000000C
:1004F0000000000000000000000000C0FF7F0700B7
:1005000000000000000101030303030303030303CE
:100510000101010101010FFFFFFC000000000000CC
:1005200000000000000000000000000000000000CB
:1005300000000000000000000000000000000000BB
:1005400000000000000000000000000000000000AB
:10055000000000000000000000000000000000009B
:1005600000000000000000000000C0E0F0F8FCFC0B
:10057000FEFEFEFEFEFEFEFCFCFCF8F8F8F0F0E0ED
:10058000C0C08080000000000000000000000000EB
:10059000000000000000017FFFC000000000000319
:1005A00007060E9EFEFCF8000000000000000000A0
:1005B000000000000000000000000000000000003B
:1005C000000000000000000000000000000000002B
:1005D000000000000000000000000000000000001B
:1005E00000000000000000001E7FFFFFFF0F070358
:1005F0000101010100000001010101030307070FD0
:100600000F1F3F3F7F7EFEFCF8F8F0F0F0E0E0E0E7
:10061000C0C0C08080808080818080C0C0C0E0E099
:10062000F0FC7F3F0F07000000000000000000000A
:1006300000000000000000000000000000000000BA
:1006400000000000000000000000000000000000AA
:10065000000000000000000000000000000000009A
:100660000000000000000000000103070600000079
:10067000000000000000000000000000000000007A
:10068000000000000000000119393B3B3337070729
:100690000707777737CFE7FF3F0F0707030301000F
:1006A000000000000000000000000000000000004A
:1006B000000000000000000000000000000000003A
:1006C000000000000000000000000000000000002A
:1006D000000000000000000000000000000000001A
:1006E000000000000000000000000000000000000A
:1006F00000000000000000000000000000000000FA
:1007000000001C3C3C30303038383CBC9CDEFEFEE7
:100710007C3C7E7F7B7938000000000000000018E0
:1007200070F0E0C0000000000000000000000000C9
:1007300000000000000000000000000000000000B9
:1007400000000000000000000000000000000000A9
:100750000000000000000000000000000000000099
:1007600000000000000000000080E0F0783C1C1E4B
:100770001E1E1F3F3F3F7F7FFFFEFEFEFEFEFEFE72
:10078000FEFEFEFEFEFEEEEFC7C7C3838180800043
:10079000000000008080808080C0C0E0E0F0F8FCB5
:1007A0007F3F1F0300000000000000000000000069
:1007B0000000000000000000000000000000000039
:1007C0000000000000000000000000000000000029
:1007D0000000000000000000000000000000000019
:1007E0000000000000000000030300000000000003
:1007F00000000000000000000101030307070F0FC5
:100800000F1F1F1F1F3F3F3F3F3F3F3F3F3F3F3FA8
:100810003F3F3F1F1F1F0F0F0F070703030100007C
:1008200000000000000000000000000000000000C8
:1008300000000000000000000000000000000000B8
:1008400000000000000000000000000000A00640C2
:1008500000B0064000C0064000D0064000A00E4098
:1008600000B00E400821DFF85423126852F4005201
:10087000DFF848331A60DFF84423126832F480321C
:10088000DFF838331A6019E0DFF83023126832F4E9
:100890000042DFF828331A60DFF82023126852F490
:1008A0008032DFF818331A6000BFDFF810231268B7
:1008B00032F48032DFF804331A6040000A00511E1F
:1008C000D2B2002A0AD00206DED5DFF8F022126882
:1008D00052F40042DFF8E4321A60DDE770470000AE
:1008E0000821DFF8D822126832F40052DFF8CC3247
:1008F0001A60DFF8C822126832F48032DFF8BC32A6
:100900001A6019E0DFF8B422126832F40042DFF80E
:10091000AC321A60DFF8A422126852F48032DFF899
:100920009C321A6000BFDFF89422126832F48032E1
:10093000DFF888321A6040000A00511ED2B2002A45
:100940000AD00206DED5DFF87422126852F40042A3
:10095000DFF868321A60DDE7704710B50400B1F1C6
:100960005000C0B2FFF7BCFFE4B2200950F0100005
:10097000C0B2FFF7B5FF14F00F0050F00100C0B295
:10098000FFF7AEFF10BD70B50400002508E02000A1
:10099000C0B2FFF767FF761CF6B2802EF7DB6D1C46
:1009A000EDB2082D0CDAB5F15000C0B2FFF798FF98
:1009B0000120FFF795FF1020FFF792FF0026EBE7DD
:1009C00070BD38B5002407E00020FFF74BFF6D1C19
:1009D000EDB2802DF8DB641CE4B2082C0CDAB4F123
:1009E0005000C0B2FFF77CFF0120FFF779FF102015
:1009F000FFF776FF0025EBE731BD06E040F2375107
:100A00000A00511E002AFBD1401E0028F6D1704773
:100A100080B5002301221021DFF8A00100F012F9B7
:100A2000002301220F21DFF8940100F00BF90023CD
:100A300001220E21DFF8840100F004F900230122D5
:100A40000D21DFF8780100F0FDF8DFF87001006893
:100A500050F48030DFF864110860DFF8600100684E
:100A600030F48040DFF8541108603220FFF7C5FFF2
:100A7000DFF84801006850F48040DFF8401108605A
:100A8000AE20FFF72DFF0020FFF72AFF1020FFF711
:100A900027FF4020FFF724FF8120FFF721FFCF2011
:100AA000FFF71EFFA120FFF71BFFC820FFF718FF6D
:100AB000A620FFF715FFA820FFF712FF3F20FFF742
:100AC0000FFFD320FFF70CFF0020FFF709FFD52011
:100AD000FFF706FF8020FFF703FFD920FFF700FF95
:100AE000F120FFF7FDFEDA20FFF7FAFE1220FFF7F4
:100AF000F7FEDB20FFF7F4FE4020FFF7F1FE202099
:100B0000FFF7EEFE0220FFF7EBFE8D20FFF7E8FE79
:100B10001420FFF7E5FEA420FFF7E2FEA620FFF772
:100B2000DFFEAF20FFF7DCFE0020FFF72CFF0021E7
:100B30000020FFF712FF01BD70B504000D00EDB2FB
:100B4000E9082000C0B2FFF708FF0120EDB208213C
:100B500095FBF1F202FB115210FA02F6EDB2E80831
:100B60005038C0B2FFF7BCFEE4B2200950F01000CC
:100B7000C0B2FFF7B5FE14F00F00FFF7B1FE300072
:100B8000C0B2FFF76FFE70BD70B50024002609E00B
:100B90000B48205CFFF766FE641C6D1CEDB2802DD7
:100BA000F6DB761CF6B2082E06DA3100C9B2002058
:100BB000FFF7D3FE0025F1E770BD000080F00F4085
:100BC0001004FF1F10B5040006212000C0B2FFF77B
:100BD000C4FEB620FFF784FEE4B2200950F01000F6
:100BE000C0B2FFF77DFE14F00F00FFF779FE002082
:100BF000FFF738FE07212000C0B2FFF7AEFEB72096
:100C0000FFF76EFEE4B2200950F01000C0B2FFF70B
:100C100067FE14F00F00FFF763FE0020FFF722FECF
:100C200010BD50F8041B61B150F8042BD30744BF2A
:100C3000A9F101039A180023091F42F8043BFAD1D5
:100C4000EFE7704770B46F4C246854F478546D4DDE
:100C50002C6005006C4EAD1B08D0403D08D0403DD7
:100C600008D0403D08D0403D08D009E0674C07E07F
:100C7000674C05E0674C03E0674C01E0674CFFE719
:100C80004FF4807544F82150D2B2012A15D142693F
:100C900001248C4022434261012B06D102680123CA
:100CA00013FA01F1114301600EE00268012313FA07
:100CB00001F132EA0101016006E04269012313FA01
:100CC00001F132EA0101416170BC704700205449D2
:100CD00009680A00C240D10707D5514909680122B5
:100CE00012FA00F008434E49086001204C49096897
:100CF0000A00C240D10707D549490968012212FA02
:100D000000F00843464908607047002045490968DB
:100D10000A00C240D10707D542490968012212FAE8
:100D200000F008433F49086001203E4909680A0075
:100D3000C240D10707D53B490968012212FA00F0E9
:100D400008433849086070470020374909680A009D
:100D5000C240D10707D534490968012212FA00F0D0
:100D600008433149086001202F4909680A00C24040
:100D7000D10707D52C490968012212FA00F008436F
:100D80002949086070470020284909680A00C240C4
:100D9000D10707D525490968012212FA00F0084356
:100DA000224908600120214909680A00C240D10790
:100DB00007D51E490968012212FA00F008431B49B1
:100DC0000860704700201A4909680A00C240D1072C
:100DD00007D517490968012212FA00F0084314499F
:100DE00008600120124909680A00C240D10707D5EE
:100DF0000F490968012212FA00F008430C49086003
:100E0000704700003880044000F00F40009004401C
:100E100000A0044000B0044000C0044000D00440E2
:100E2000A0900440A0A00440A0B00440A0C0044092
:100E3000A0D0044010B4C0B2002808D002282CD0A2
:100E400018D304284AD03AD3052856D064E0DFF8F6
:100E5000EC22126852F48062DFF8E0321A604FF43C
:100E60004072DFF8DC321A604FF44072DFF8D4329F
:100E70001A6051E0DFF8C422126852F40062DFF811
:100E8000BC321A604FF44072DFF8BC321A604FF483
:100E90004072DFF8B8321A603EE0DFF8A022126834
:100EA00052F48052A54B1A604FF44072DFF8A03222
:100EB0001A604FF44072DFF89C321A602CE09F4AAF
:100EC000126852F400529D4B1A604FF44072A24BCC
:100ED0001A604FF44072A14B1A601DE0A04A1268DC
:100EE00052F480629E4B1A604FF440729D4B1A6020
:100EF0004FF440729C4B1A600EE0994A126852F40B
:100F00000062974B1A604FF44072984B1A604FF48E
:100F10004072974B1A60FFE7964AC0B252F8202001
:100F2000D27812F0F302934BC0B253F82030DA704B
:100F3000904AC0B252F8202092788E4BC0B253F83B
:100F400020309A70C0B2002802D0C0B2012805D16A
:100F5000894A1278894B03FB02F304E0884A12782D
:100F6000864B03FB02F30A01B3FBF2F292B2B2F535
:100F7000005F01DB41F6FF72B3FBF1F192B2B1EB1E
:100F800002117C4BC0B253F820301B7813F0E00301
:100F9000C2F304242343774CC0B254F8204023709A
:100FA000744BC0B253F820305A70724AC0B252F833
:100FB0002020927A12F0E00311F01F0119436D4ACC
:100FC000C0B252F8202091726A49C0B251F8201084
:100FD000097C51F08801674AC0B252F82020117490
:100FE0006449C0B251F82010C97851F00C01614A2F
:100FF000C0B252F82000C17010BC70475D49C0B249
:1010000051F8201009798906F8D55A49C0B251F82B
:101010002000C0797047574AC0B252F82020127998
:101020001206F8D5534AC0B252F82000C171704779
:1010300070B504000D00160005E029782000C0B24C
:10104000FFF7E9FF6D1C3000461E0028F5D170BD8A
:1010500038B504000D0005E029782000C0B2FFF784
:10106000DAFF6D1C28780028F6D131BD00B585B0B7
:101070000020FFF7C3FFC0B20200424900A800F001
:1010800083F800A90020FFF7E3FF05B000BD00B51D
:1010900085B00120FFF7B2FFC0B20200394900A8B5
:1010A00000F072F800A90120FFF7D2FF05B000BDE3
:1010B00000B599B00220FFF7A1FFC0B2020031498C
:1010C00000A800F061F800A90220FFF7C1FF19B0E5
:1010D00000BD00B585B00320FFF790FFC0B202004D
:1010E000284900A800F050F800A90320FFF7B0FF3E
:1010F00005B000BD00B585B00420FFF77FFFC0B28A
:101100000200204900A800F03FF800A90420FFF7E2
:101110009FFF05B000BD00B585B00520FFF76EFF4D
:10112000C0B20200174900A800F02EF8142200A94E
:101130000520FFF77DFF05B000BD000034800440AE
:101140003C900440389004400CB0044010B004407F
:101150000CC0044008C0044040B0044044B0044007
:101160002880044064D0044060D0044024D004406F
:1011700020D004401008FF1F3209FF1F40420F001B
:101180003309FF1FA01C00000CB41CB5044604A8C2
:1011900001900A46009401AB00A907487844183032
:1011A00000F018F8009A0021117000285CBF009828
:1011B000001B16BC5DF80CFB8B01000070B50446EB
:1011C0001E000846154604D015F8011BA047761EE0
:1011D000FAD170BD2DE9F04784B0824689461446A5
:1011E0001F460DF1000807E00123224649465046FC
:1011F000FFF7E4FF8146641C207810B904B0BDE815
:10120000F0872528F0D1641C14F8010B252801462D
:1012100018D058285CD063280ED0642818BF6928DD
:1012200014D06F2854D0702858D073285DD07528FA
:1012300018BF78284CD0DFE73868386050F8041BB6
:101240003860C9B24846D0478146D5E7386838602B
:1012500050F8045B3860002D03D52D214846D04757
:10126000814664206F2808BF082205D040F0200185
:10127000782914BF0A2210220B216428AC4603D11E
:10128000002D48BFCCF1000CBCFBF2F502FB15CCE5
:101290000CF130064B1E5FFA86FCBCF13A0FA4BF7E
:1012A000A0F15106B44403F808C019465FEA050CE2
:1012B00001D00129E8DA00A80D184846D1F10B0940
:1012C000C2D015F8011BD047B9F10109F9D1BBE72C
:1012D0003968396051F8045B3960C3E738683860B1
:1012E00050F8045B38607820BCE73868386050F804
:1012F000045B3860284600F009F806004846A3D091
:1013000015F8011BD047761EFAD19DE700F10103C5
:10131000810704D010F8011B89B18107FAD1026856
:10132000B2F10131914311F0803F04BF50F8042F16
:10133000F6E710F8011B11B110F8011BFBE7C01A0A
:1013400070470268531C0360117070470100481E0B
:10135000002906D0002189B2B429F7DA00BF491C60
:10136000F9E7704780B50123012204217348FFF794
:1013700069FC0123012205217048FFF763FC01206D
:1013800000F022F901BD10B56C48006850F0200053
:101390006A4908600120FFF7D9FF6848006850F0EB
:1013A0001000664908600120FFF7D0FF634800681D
:1013B00030F02000614908600120FFF7C7FF5F4857
:1013C000006830F010005D490860002412E0012040
:1013D000FFF7BCFF5948006850F0100057490860FB
:1013E0000120FFF7B3FF5548006830F01000534963
:1013F0000860641CE4B27F2CE9DB0120FFF7A6FF44
:101400004E48006850F010004C4908600120FFF77A
:101410009DFF4A48006830F010004849086010BD40
:1014200038B5040000204548006850F020004349CA
:1014300008600120FFF78AFF4048006850F0100064
:101440003E4908600120FFF781FF3C48006830F00A
:1014500020003A4908600120FFF778FF00251AE0D4
:101460000120FFF773FF3548006850F01000334942
:1014700008600120FFF76AFF0523012214210120E3
:1014800000F067F92080A41C2C48006830F01000A0
:101490002A4908606D1CEDB2802DE1DB0120FFF7C9
:1014A00055FF2648006850F01000244908600120CC
:1014B000FFF74CFF2148006830F010001F4908601A
:1014C00031BD00211C2006E01D4AC0B232F81020B8
:1014D00011FA82F1401CC0B26428F5DB4820B1FB50
:1014E000F0F080B21749086040F6C4101549096849
:1014F000401A154908601448006810F5FA7F04DAAC
:1015000012480078401E114908700F480068C92829
:1015100004DB0E480078401C0C4908700B4800782A
:10152000022802DA012009490870084800781428C6
:1015300002DB1420054908707047000000F10F40DD
:101540002808FF1F2C09FF1F2809FF1F3009FF1F54
:1015500070B504001C2614E0F6B234F8160080B210
:10156000050AEDB2102D00DB0F253000C0B2FFF7E9
:1015700029FBD5F13F01C9B23000C0B2FFF7DCFA58
:10158000761CF6B2642EE7DB70BDF8B504000D00E2
:10159000002754212000C0B2FFF73DFD00260FE0D8
:1015A000F6B235F816703912C9B22000C0B2FFF792
:1015B00032FD3900C9B22000C0B2FFF72CFD761C05
:1015C000F6B2802EECDBF1BDC0B2002810D1394854
:1015D000006850F00060374908603748006830F014
:1015E00090003549086034480068334908600FE0CE
:1015F0003248006850F00060304908602E480068AA
:1016000030F410402C4908602B4800682A490860D3
:101610007047C0B2002812D1D2B2900010F00C0076
:1016200050F05000264A10600420264A1060C9B2CB
:1016300011F01F0050F040002349086011E0D2B2C1
:10164000900010F00C0050F05000204A1060042070
:101650001F4A1060C9B211F01F0050F040001D4930
:101660000860704710B504000020D2B2C9B2200053
:10167000C0B2FFF7CEFFE4B2002C0DD112480068D3
:101680000006FBD5144800680F49096831F0800155
:101690000D4A116080B20CE00E4800680006FBD5D0
:1016A0000E4800680B49096831F08001094A116051
:1016B00080B210BD3C80044018800440308004405B
:1016C00008B003400CB0034000B0034008B00B402A
:1016D0000CB00B4000B00B4010B0034010B00B40FA
:1016E0002DE9F04104000D0016003200D2B22900AD
:1016F000C9B22000C0B2FFF7B5FF07003200D2B276
:101700002900C9B22000C0B2FFF7ACFF804632000A
:10171000D2B22900C9B22000C0B2FFF7A3FF010076
:101720001FFA88F8BFB2B84502D238004746804653
:101730001FFA88F889B2884501D2404606E0BFB258
:1017400089B28F4201D2080000E0380080B2BDE8C3
:10175000F0812DE9F84304000D0016001F005FF032
:1017600000085FF000090BE03200D2B22900C9B2D4
:101770002000C0B2FFF7B4FF18FA80F819F1010990
:101780004846C0B280B2BFB2B842EDD3BFB2B8FBD8
:10179000F7F8404680B2BDE8F283704710B4494B79
:1017A0001B6853F47853474C2360C0B2002852D0D2
:1017B000C0B20300302B1ED0322B1FD0602B20D0A4
:1017C000642B21D06E2B22D0782B23D07D2B24D0DC
:1017D000822B25D08C2B26D0962B27D0A02B28D03F
:1017E000AA2B29D0B42B2AD0C82B2BD0E12B2CD05C
:1017F000FA2B2DD02FE0182200212CE018220121F5
:1018000029E01822182126E018221A2123E01822A4
:101810001F2120E0132218211DE013221A211AE0B3
:1018200013221C2117E00E22122114E00E22152192
:1018300011E00E2218210EE00E221B210BE00E22D9
:101840001E2108E00C221C2105E00B221E2102E0D3
:101850000A221F21FFE780231B4C237012F01F0276
:101860001A4B1A701A4A1268194B1B6853F47F03FB
:10187000174C2360174B184C2360154B1A6011F05E
:101880001F0151F04001154A117015490978890668
:10189000FBD5134909784906FBD500210A4A117086
:1018A0000F490978C1F38101C9B20329F8D10D4963
:1018B00008700C480078022190FBF1F00A4908708A
:1018C00010BC704738800440004006400440064089
:1018D00000F001400000270144800440054006401C
:1018E000064006403209FF1F3309FF1F80B53B4AFF
:1018F000126852F40002394B1A60394A1268920891
:101900009200374B1A60374A127851434FF47A727B
:101910005143354AC0B2030199503349C0B211EB6B
:101920000011C96851F001012F4AC0B212EB001238
:10193000D1602D49C0B211EB0011896851F003014B
:10194000294AC0B212EB00129160C0B2443000F0DC
:101950005CF801BD80B52548006850F001002349BE
:10196000086023480078401C21490870214800780D
:10197000D0F11400C0B2022806DB1D490978C0B2BC
:10198000884201D1FFF7FFFC1948007814280ED1D6
:101990000020174908701848FFF742FDFFF791FD36
:1019A00015490020FFF7F1FD1348FFF7D1FD01BDF8
:1019B0001248006850F001001049086070470F4855
:1019C000006850F001000D49086070470C4800683D
:1019D00050F001000A490860704700003C80044054
:1019E000007003403309FF1F007103400C71034076
:1019F0003109FF1F3009FF1F2808FF1F1C7103401A
:101A00003C7103402549086070475C2800DB5B207F
:101A1000202190FBF1F1002903D0022929D014D311
:101A20003AE00121202290FBF2F303FB12039940DC
:101A30001B4A11600121202290FBF2F303FB1203E9
:101A400011FA03F01749086026E00121202290FBDB
:101A5000F2F303FB12039940134A11600121202283
:101A600090FBF2F303FB120311FA03F00F49086035
:101A700012E00121202290FBF2F303FB12039940B4
:101A80000B4A11600121202290FBF2F303FB1203A9
:101A900011FA03F0074908607047000008ED00E004
:101AA00080E200E000E100E084E200E004E100E028
:101AB00088E200E008E100E080B500F053F800F0B3
:101AC00003F800F077F801BD80B51C481C49884236
:101AD0000BD0002006E01949194A52F8202041F89D
:101AE0002020401CB0F5826FF5D31448FFF78AFF21
:101AF0001449154A1548801A03E013780B70521CDC
:101B0000491C0300581E002BF7D111491148401AF7
:101B100002E000220A70491C0200501E002AF8D17F
:101B20000D490E4A0E48801A03E013780B70521CC0
:101B3000491C0300581E002BF7D101BD0000FF1FF8
:101B4000000000001004FF1F4C04000064080000A7
:101B50002808FF1F3409FF1F3409FF1FD41C000091
:101B6000D41C000080B500F009F80A4800884FF640
:101B7000FE7108400749088001BD000072B64CF2B2
:101B80002050054908804DF628100349088062B6A8
:101B900070470000002005400E2005400100481E4F
:101BA000002906D0002189B2B1F5966FF6DA491CFA
:101BB000F9E7704780B56420FFF7F0FD5FF4E1318D
:101BC0000020FFF737F9FEF723FFFEF7DDFF42F2B3
:101BD0001070FFF7E3FFFEF7F4FEFFF7C3FB0121F0
:101BE0000020FFF783FEFEE70B48006800200A494B
:101BF000086000200120704708480068002007495D
:101C00000860002001207047054800680020044952
:101C1000086000200120704750800340509003402E
:101C200050800B4010B5074979441831064C7C446C
:101C3000163404E00A68081D511888470146A1427D
:101C4000F8D110BD0800000014000000D7EFFFFF1E
:101C50000C0100002808FF1F0000000000F00BF836
:101C6000002801D0FFF7DEFF0020C046C046FFF786
:101C7000A1FF00F002F80120704700F001B8000059
:101C80000746384600F002F8FBE7000080B5C04682
:101C9000C046024A11001820ABBEFBE72600020036
:101CA000C4E3B7A2CBCDB5C4CAFDBEDDCEAAA3BAEC
:101CB00025630A000348006850F08000014908606D
:101CC0007047000000000440C046C046C046C04601
:041CD000FFF7C4FF57
:0400000500001CC912
:00000001FF
