:020000040800F2
:10000000A8080020FD3A0008093A00080B3A000849
:10001000193A00081B3A00081D3A000800000000C9
:100020000000000000000000000000001F3A00086F
:10003000213A000800000000233A0008253A000891
:100040003D3B0008413B0008453B0008493B000898
:100050004D3B0008513B0008553B0008593B000848
:100060005D3B0008613B0008653B0008693B0008F8
:100070006D3B0008713B0008753B0008793B0008A8
:100080007D3B0008813B0008853B0008893B000858
:100090008D3B0008913B0008953B0008993B000808
:1000A0009D3B0008A13B0008A53B0008A93B0008B8
:1000B000AD3B0008B13B0008E91F0008B93B000850
:1000C000BD3B0008C13B0008C53B0008C93B000818
:1000D000CD3B0008BF1E0008D53B0008D93B0008F7
:1000E000DD3B0008E13B0008E53B00082DE9F04F4F
:1000F000A1B08246002016461D4602910B900DF1DC
:1001000044086FF000490AE016F8011B0298D04736
:100110000028029000F0B5820B98401C0B903078BC
:10012000010001D10B98AEE22528EDD10020059009
:1001300006900790089009900A9001E040F00100B5
:1001400016F8011F2029F9D023290DD02B2904D01E
:100150002D2906D030290AD00CE040F0020080B2F0
:10016000EEE740F00400FAE740F00800F7E740F05F
:100170001000F4E72A290ED12968296051F8042BD0
:100180002960002A0D9204D5514240F004000D91DF
:1001900080B2761C11E000210D9109E00D994945CE
:1001A00005D001EB810302EB430130390D91761C40
:1001B0003278A2F130010A29F0D331782E2903D008
:1001C0004FF0FF310C911DE016F8011F2A2907D1CD
:1001D00029682960761C51F8042B29600C9211E0E3
:1001E00000210C9109E00C99494505D001EB8103F0
:1001F00002EB430130390C91761C3278A2F13001C8
:100200000A29F0D3ADF838000FF69040317800F0AD
:1002100053FE08B116F8010B8DF83A009DF83A002C
:10022000682802BF31786829622005D06C2804BF95
:1002300030786C2803D171208DF83A00761C11A813
:10024000049016F8017BB7F125002AD01C3800F085
:10025000CA80001F022840F2C680133800F0EB80ED
:10026000093800F0C080801E00F05681401E00F06A
:100270002C81401E022840F2B680001F00F025812C
:10028000401F00F08180401E00F0D580401E24D029
:10029000C01E0BD0801E00F0CE80C01E00F0CB80B0
:1002A00044E125208DF84400012049E128682860B8
:1002B00050F8044B286003940C9F002F04D520466F
:1002C00000F006FE074606E03A460021204600F010
:1002D0001BFE00B1071B069733E129682960002245
:1002E00051F8040B29600021CDE9000111A8039009
:1002F000DDE900019142049F08BF90424FF03C0CA1
:1003000001D10C9AC2B100F00F033033DBB23A2BAB
:10031000A8BF2733ACF101020009BB54944640EA60
:10032000017009090022914208BF904204D0039A4B
:1003300007EB0C039A42E6D307EB0C000390CCF1D9
:100340003C010C980691814209DA401A08904FF658
:10035000EF71BDF838000840ADF83800F1E0002832
:1003600040F1EF809DF8380000F01400102840F0B4
:10037000E8800D98059A801A089A801A401A012878
:10038000C0F2DF800890DCE09DF83A0062281AD0C5
:10039000682806D06A280CD06C281CD0712808D098
:1003A00019E02868286050F8041B28600B98088022
:1003B000C7E02868286050F8042B28600B98C11704
:1003C000C2E90001BDE02868286050F8041B2860DD
:1003D0000B980870B5E02868286050F8041B286066
:1003E0000B980860ADE02868C01D20F007022A6065
:1003F000D2E9000108322A60CDE90001002902D5C6
:1004000005982D210AE0BDF83800810702D505982E
:100410002B2103E0C00705D50598202108F800101E
:10042000401C059011A80599084403903946684678
:1004300000F0E8F985E09DF83A006C280DD07128AD
:1004400018BF6A2809D12868C01D20F007022A6059
:10045000D2E9000108322A6005E02968296051F8D4
:10046000040B29600021CDE900019DF83A006828BD
:1004700003D1DDE9000180B20BE0622803D1DDE9A0
:100480000001C0B205E0742818BF7A2804D1DDE964
:1004900000010021CDE900019DF83800000732D5A8
:1004A000DDE900230020834208BF82422BD047F0C1
:1004B0002000782827D10598302108F80010401C2A
:1004C000411C059108F800701DE09DF83A0029468E
:1004D00000F0DCF8CDE90001DDE9002300218B42CA
:1004E00002DA05982D210AE0BDF83800810702D50F
:1004F00005982B2103E0C00705D50598202108F8B1
:100500000010401C059011A8059908440390394635
:10051000684600F0F2F814E0012005902868286091
:1005200050F8041B28608DF844100AE025208DF84F
:10053000440001200590380003D088F801700220A3
:1005400005900D980599401A0899401A0699401A85
:100550000999401A0799401A0A99471A9DF83800D4
:10056000400710D42020012F8DF840000BDB3C46C3
:10057000012310AA6946504600F079FC002840F09B
:100580008080641EF4D1DDF814B0BBF1000F11AC13
:100590000CD014F8011B0298D0470028029070D0AC
:1005A0000B98401CBBF1010B0B90F2D130208DF861
:1005B0004000089C012C09DB012310AA6946504623
:1005C00000F055FC00285CD1641EF5D1DDF818B0B0
:1005D000039CBBF1000F0CD014F8011B0298D0470C
:1005E000002802904DD00B98401CBBF1010B0B90E2
:1005F000F2D130208DF84000099C012C09DB012349
:1006000010AA6946504600F032FC002839D1641E19
:10061000F5D103980699DDF81CB04418BBF1000F22
:100620000BD014F8011B0298D047029048B30B98E6
:10063000401CBBF1010B0B90F3D130208DF8400032
:100640000A9C012C08DB012310AA6946504600F0E1
:100650000EFCB0B9641EF6D19DF8380040077FF556
:100660005EAD2020012F8DF84000FFF658AD01232C
:1006700010AA6946504600F0FAFB10B97F1EF6D169
:100680004DE54FF0FF3021B0BDE8F08F622826D055
:1006900068281DD06A2808D06C2827D0712804D07B
:1006A000742823D07A280CD020E00868C01D20F0E0
:1006B00007000860D0E9002308300860194610469A
:1006C00070470A680A6052F8040B0A6000217047FC
:1006D0000A680A6052F8040B0A6000B20BE00A686C
:1006E0000A6052F8040B0A6040B204E00A680A602B
:1006F00052F8040B0A60C11770472DE9F343054611
:1007000008462F696F2808BF082405D041F0200152
:10071000782914BF0A2410243C26D5E90023642834
:1007200018BF69289046994606D100218B4203DA0A
:10073000D8F1000869EB49090020814508BF8045D0
:100740000CD1286B50B9082C38D195F83800000727
:1007500034D530203B2687F83B002FE0701E0090F8
:100760000646404649462246E31700F0F9FB02F1EF
:100770003000C0B23A2803DB9DF804105139081844
:10078000B855494640462246E31700F0E9FB80464B
:1007900089460020814508BF804503D0E868B91923
:1007A0008842DBD3082C09D195F83800000705D51D
:1007B000B85D302802D0761E3020B855B919E960EE
:1007C000C6F13C00296BA861884208DA081A286241
:1007D0004FF6EF71288F08402887BDE8F383002982
:1007E0000ED595F8381001F01401102908D1696B65
:1007F0006A69891A2A6A891A0E1A012EA8BF2E62FE
:10080000BDE8F3832DE9F24F04468EB0D4E9000130
:10081000CDE9020104AF9DF8380040F0200BBBF198
:10082000610F0AD0206B002848BF062004D408BFFF
:10083000BBF1670F01D1012020636168C1F30A5049
:1008400040F2FF7290421CD1080304BF20680028C8
:1008500009D10320A0619DF8380061381A2835D3EA
:100860000FF24C6108E00320A0619DF83800613868
:100870001A2828D30FF23061E068032200F0E8FB69
:10088000BDE1012815DA204600F01DFC012810DB2F
:1008900000250020BBF1610F1FD1E16830220A70F2
:1008A0008A1CE2609DF83820612A0CBF7822582209
:1008B0000FE0626840F2FE3161F31E52451A626039
:1008C0004FF0FF30E6E70FF2DC51D5E70FF2DC51D5
:1008D000D2E74A706169891C616110B90026002560
:1008E00084E1BBF1610F40F09880206BD4E900AB4C
:1008F00000284CBF2126461CDDE90201002200230E
:1009000000F004FC36B23ABF8BF00040CDE902A003
:10091000CDE902AB06F101082D1FB8F1010F8DF8EA
:1009200010200DF1110736DBDDE902010022002362
:1009300000F004FC2FD21C2102A800F017FCDDE916
:10094000020100F099FCA8F10708B8F1010F8146F7
:1009500009DB00F0BDFC02460B46DDE9020100F0B8
:10096000CFFCCDE90201F81D072105E009F00F02D7
:1009700000F8012D4FEA2919B9F1010F01DB491ED9
:10098000F4D5491E5CBF002200F8012DF9D5C71D22
:10099000B8F1010FC8DA0DF11100391AB142B8BF30
:1009A0000E4636B230000DF111072FD4884206DA18
:1009B00004A9014449780829A8BF0F2100DA0021C1
:1009C00004AA024400E0761E12F80139401E8B4250
:1009D000F9D00F2904D104A901444A78521C4A7065
:1009E000002802D504AF761C2D1D36B2701E0DD422
:1009F00039180A783032D2B23A2A03DB9DF83830FF
:100A00003A3B9A18401E01F80129F2D5206B0028C4
:100A100040F1EC80701E2063E8E0DDE90201002275
:100A2000002300F073FB3CBF81F00041CDE90201DF
:100A30002DB247F2975068434B49DFF8309190FB55
:100A4000F1F52DB2C5F1070ABAF1010F90461CDB92
:100A5000DDE902675FEACA7007D542464B46304679
:100A6000394600F00DFD06460F46404649464246CF
:100A70004B464FEA6A0A00F003FDBAF1000F8046C8
:100A80008946E7D1CDE9026724E0CAF1000A0026D1
:100A9000374F14E05FEACA7007D542464B463046EE
:100AA000394600F0EDFC06460F46404649464246B0
:100AB0004B4600F0E5FC4FEA6A0A80468946BAF1E7
:100AC000000FE7D1DDE9020132463B4600F0AAFD06
:100AD000CDE90201BBF1660F216BDFF898900CBFE6
:100AE00005F10A0006204618142EA8BF1326302050
:100AF0008DF810000DF11107012E3DDBDDE902013B
:100B000000F0D0FB07F1080104220A23B0FBF3F345
:100B100003EB8307A0EB4700303001F8010C0A20FB
:100B2000B3FBF0F000EB8007A3EB47033033521E1A
:100B300001F8023DE9D1083E012E01F10807DBDB97
:100B4000DDE9020100F0AEFB00F0CCFB02460B46F3
:100B5000DDE9020100F0D4FB00224B4600F090FCDE
:100B6000CDE90201CAE700BFA086010000002440D1
:100B70000000F03F84D797410DF11100381A0DF1B4
:100B8000110702E0401E6D1E7F1C39783029F9D014
:100B9000BBF1660F08BF691C04D0BBF1650F0CBF29
:100BA00001210021226B8E1836B2B042B8BF064632
:100BB00036B231001AD4814204DA785C3528A8BFF5
:100BC000392000DA30207A18521E00E0761E12F822
:100BD0000139491E8342F9D0392802D1785C401C82
:100BE0007854002902D57F1E761C6D1C2DB29DF80D
:100BF0003810009533B23A46204600F003F80FB0A3
:100C0000BDE8F08F2DE9F043054685B01F46D5F8C5
:100C10003080012F8946164602DA01270FF294260A
:100C200049F02000BDF93040662808BF641C17D089
:100C3000672840F0848014F1040FC0F28680444598
:100C400080F2838095F83800641C000702D4474581
:100C5000B8BFB84624B2B8EB040848BF4FF000084C
:100C600024B2E868A969012C27DA4A1C30234354CE
:100C7000B8F1010F03DA95F83800000703D5E968E9
:100C80002E208854521C18EB040FB8BFC8F1000482
:100C900024B260426862A044B845AA61B8BF474622
:100CA000E868AB693FB2EF613A463146184400F05C
:100CB000CFF9A8EB0700A862C2E022469742084499
:100CC00018DA3A46314600F0C3F9A9697918E01BF1
:100CD000B8F1010FA961686203DA95F838000007DE
:100CE00005D5EA682E205054E869401CE861C5F833
:100CF0002880A5E0314600F0ABF9A86920183F1B19
:100D0000B8F1010F03DA95F83810090703D5EA683E
:100D10002E211154401CA8613FB2B845B8BF4746C8
:100D2000E868AB693FB23A463119184400F090F9CF
:100D3000A8693818A861A8EB0700686280E0B9F1DB
:100D4000610F16D14FF0700918E0474504DA95F8A5
:100D50003810090758BFB846B8F1010848BF4FF02E
:100D60000008B9F1670F14BF4FF045094FF065094E
:100D700004E0B9F1410F08BF4FF05009A969EB68D1
:100D8000481CA861B8F1010F16F8012B5A5403DA78
:100D900095F83810090719D5EA68431CAB612E2174
:100DA0001154B8F1010F11DB7F1E3FB2B845B8BF37
:100DB0004746E8683FB23A463146184400F048F9E1
:100DC000A8693818A861A8EB07006862E868A969F3
:100DD0000144200081F8009003D42B2048708E1C21
:100DE00003E02D224A708E1C644200270DF1080892
:100DF00008E00A22684600F040FD019808F8010B5F
:100E00007F1C009C21B20129F3DA022F06DA49F097
:100E10002000652804BF302006F8010B4FB93020B0
:100E200006F8010B07E07F1E02A8C05D303006F80F
:100E3000010B012FF7DAE868A9690844301AE86164
:100E400095F8380000F0140010280DD16869A969E0
:100E50000818696A0818E9690818A96A0818696B06
:100E60008842BCBF081A286205B0BDE8F083F8B517
:100E700004460D4616461F46002077B116F8011BA2
:100E8000A868A047A86030B1E86A401CE86200206A
:100E90007F1EF3D1F2BD4FF0FF30F2BD686A6C7473
:100EA0007A4C00006E616E004E414E00696E660025
:100EB000494E4600300000000278C9B28A421AB199
:100EC0001CBF10F8012FF9E718BF00207047000081
:100ED00000F10103810704D010F8011B89B18107DB
:100EE000FAD10268B2F10131914311F0803F04BFA1
:100EF00050F8042FF6E710F8011B11B110F8011B90
:100F0000FBE7C01A70470000C9B2830706D0521E23
:100F100022D310F8013B9942F7D11FE0083A13D3CE
:100F200002F1040241EA012141EA014150F8043B87
:100F3000121F21BF4B40A3F1013C2CEA030C1CF013
:100F4000803FF3D0C9B2001F083210F8013B521E97
:100F500028BF91EA030FF8D818BF0120401E704740
:100F60001B4213D1094236D12AB18446B0FBF2F0BC
:100F700002FB10C2704700F087BCFCD300220023A4
:100F800070470B000200002100207047904271EB77
:100F9000030CF6D370B5B1FA81F4B3FA83F52C1BC8
:100FA000A340C4F1200532FA05F63343A2405FF0B6
:100FB0000046E64002E05B085FEA3202841A71EB09
:100FC000030524BF204629467641F4D302000B00D6
:100FD0003000002170BD012ACFD970B5140C20D08B
:100FE000B1FA81F4B2FA82F5C4F120046419B4F1C3
:100FF0002006D6D3B2405FF00044F440002502E062
:1010000052085FEA3303C61A71EB020E24BF304662
:10101000714664416D41F3D302000B0020002900AA
:1010200070BD0C46B1FBF2F102FB11452D0445EAFF
:101030001045B5FBF2F402FB145580B240EA0545B9
:10104000B5FBF2F002FB105240EA044070BD000014
:1010500062B38B0708D0521E11F8013B00F8013B28
:1010600000F024808B07F6D1830740F0208000BF7A
:10107000103A07D330B4B1E83810103AA0E838106D
:10108000F9D230BC530724BFB1E80810A0E808101B
:1010900044BF51F8043B40F8043BD20724BF31F869
:1010A000022B20F8022B44BF0B7803707047083ADC
:1010B00007D3B1E80810083A40F8043B40F804CBE5
:1010C000F7D25307E4E730B4436803F0004201214C
:1010D000C3F313034360002B04BF0368002B08D144
:1010E0000DE00368DD0F45EA440444605B000360E3
:1010F000491E4468E302F4D5C4F313034360436814
:101100001A434260084630BC704700004FF4001C90
:101110001CEB410F94BF1CEB430F09E041EA030CA9
:1011200050EA4C0C52EA0C0C03D2994208BF904290
:10113000704714BF8B428242704700004FF4001C7E
:101140001CEB410F94BF1CEB430F09E041EA030C79
:1011500050EA4C0C52EA0C0C03D28B4208BF82427C
:10116000704714BF994290427047000070B5044622
:101170000D466068C0F30A5040F2FF71884207D103
:101180006068000304BF2068002817D0022070BDEB
:1011900020B92046FFF797FF012866DA012D0FDB03
:1011A00040F2FF71091A8D420AD36068002847BFD8
:1011B00000202F4900202F49C4E90001012070BD03
:1011C0004142A942616806DA6FF31E51401941EAB3
:1011D0000050606040E0401E63684519012205F13F
:1011E000350062F31F53352801F00041636003D3DB
:1011F00061600020206070BD002015F11F0F04DA2F
:10120000206823600022203562606A4212D0401EAE
:1012100025688041C2F12003C0439D4045EAD0705B
:1012200025686668D54006FA03F32B43236063689C
:10123000D340636062680A43B0F1004F626003D834
:101240000DD12078C0070AD52068401C2060206896
:1012500028B96068401C60604FF0FF3070BD606866
:10126000884204BF20680028F6D1002070BD00BF6E
:101270000000F0FF0000F07FF446400D40EAC1207E
:10128000490006D200F014F8004248BF6FF0004059
:10129000604700F00DF84FF0004188428CBF0846CF
:1012A00040426047400D40EAC120490080F00D8077
:1012B00040F00040490DA1F58061491C05D4D1F1F1
:1012C0001F0154BFC840C01770474FF0000070475F
:1012D000010040F10980F446404200F005F851F069
:1012E00000416047010000BF09D0B0FA80F188409A
:1012F000C91CC1F58461090501EBD0214005704787
:10130000F0B44FF0004591EA030F44BF6B4000F08A
:10131000BDBA00BF841A71EB030604D26E40001BF5
:10132000B141121973414FF4001C1CEB410F34BF43
:101330007CEB430684E00C0DA4EB1356362E7DDCCB
:10134000012E43DC45EAC32343EA525312BFD202C3
:1013500092025B08240545EAC12141EA5051D2EBD3
:10136000C020994125D407D1B0FA80F610FA06F1D1
:1013700064D00020203608E0B1FA81F6B140C6F111
:10138000200220FA02F21143B0404FEAF474B4EBA9
:10139000465434F001064FEA74040AD8D6F5001614
:1013A000760D04F00044F04061FA06F25040F1403E
:1013B0004840C00A40EA415021F0004128BF5FEA9E
:1013C000500550F1000044EBD12137E045EAC3233A
:1013D000DB0A45EAC121C90AB6F120050EDD42EA61
:1013E0000242120CC5F1200603FA06F6EB4042EA6F
:1013F00006056D42984161F100010DE062FA06F5C3
:10140000F240554063FA06FC82EA0C02F3405A406F
:101410006D42904161EB030111F4801F05D1641E00
:10142000620502D06D004041494121F4801143081A
:1014300075F1004350F1000041EB0451F0BC7047DE
:101440001CEB410F15D223F0004352EA43060BD0A8
:101450004FEA4C0CBCEB410F04D80C0D661E342E29
:10146000B7DDEBE7801A994150EA410608BF002139
:10147000E4E708BF1CEB430F28BF6FF00001DDE776
:10148000B0B581EA030C0CF0004C40F2FF7515EA90
:1014900011541DBF15EA1357AC42AF4239E0E419AD
:1014A00023EA455343F48013C90241F0004141EA65
:1014B000505EC7021100A7FB020200284FF0000097
:1014C000EEFB01204FF00001E3FB072118BF42F0C3
:1014D0000102401800214941E3FB0E01A4F580649C
:1014E0000F0302D252004041494154F101046CDD26
:1014F000470872F1004250F1000051EB0451A1F590
:1015000080115CBF41EA0C01B0BD4CEA05510020DE
:10151000B0BD05EA1357AC4214BFAF4241E050EAF8
:10152000410E1CBF52EA430E02E061460020B0BDEE
:1015300024423C441BD15FEA070EF6D0090302BFE8
:1015400001460020AEF1140EB1FA81F7AEEB0704AC
:1015500001FA07FE0C37C7F1200100FA07F7C8406F
:101560004EEA000E23EA455343F48013A2E733F01A
:101570000043B3FA83F704BFB2FA82FE77440B3F0D
:10158000E41BB7F1200E2FBF02FA0EF3BB40C7F1E8
:10159000200E22FA0EFE38BF43EA0E03BA40641C46
:1015A00082E750EA410E14BF52EA430E6FF0000189
:1015B0004FF4001717EB430F8ABF194617EB410F83
:1015C000B5E74CEA05510020B0BDD4F10104B4F1F7
:1015D00020070FDAC4F12007520828BF42F00102A9
:1015E00010FA07F501FA07F7E1BF2A43E040384354
:1015F000E1400FE0352C98DCC7F1200452EA4002AC
:1016000020FA07F218BF42F0010231FA07F0A140B8
:101610000A43002172F1004250F1000051EB0C012D
:10162000B0BD00002DE9F04140F2FF7581EA030CE6
:101630000CF0004C15EA11541DBF15EA1357AC42CB
:10164000AF42E9E0BC41C1F31301C3F31303801AB5
:10165000994143F4801304D2641E4000494180182C
:101660005941C90241EA5051B1FBF3F603FB16118F
:10167000A2FB0675D7EBC020A94102D2761E8018C6
:101680005941C90241EA5051B1FBF3FE03FB1E115F
:10169000A2FB0E75D7EBC020A94103D2AEF1010E1B
:1016A00080185941890241EA9051760546EA8E2E0A
:1016B000B1FBF3F603FB1611A2FB0675D7EB8020F6
:1016C000A94102D2761E80185941C90241EA5051FF
:1016D0004EEA060EB1FBF3F603FB1611A2FB0675EC
:1016E000D7EBC020A94102D2761E80185941C90209
:1016F00041EA5051B1FBF3F703FB1711A2FB073589
:10170000D3EBC020A94167F100070CBF004247F0AE
:10171000010766F3D5274FEA1E31B80814F5806437
:1017200014DDBD0775F1004250EB0E5051EB045132
:1017300011F5801F5CBF41EA0C01BDE8F0814CF05F
:101740007F6141F0E0410020BDE8F081BD076D08F8
:1017500040EA0E5041F48011D4F10104B4F12006A6
:101760000ADAC4F120060200E04001FA06F3E14083
:101770001843B24015430EE0342C14DCC6F12004AB
:1017800045EA40056D0820FA06F2154321FA06F0F5
:10179000A1400D43002175F1004250F1000051EBD2
:1017A0000C01BDE8F08100205FEA0C01BDE8F0818A
:1017B000CFB992185B41B3FA83F704BFB2FA82F64D
:1017C000BF190B3FB7F120062FBF02FA06F3BB404B
:1017D000C7F1200622FA06F638BF3343BA401CB1DF
:1017E000E419641E2FE77F4231F00041B1FA81F421
:1017F00004BFB0FA80F6A4190B3CB4F120062FBF49
:1018000000FA06F1A140C4F1200620FA06F638BF1E
:101810003143A0403C1B16E7AC421ABF05EA135700
:10182000AF4214E050EA41061CBF52EA4306BFE74C
:1018300050EA4107304661461CBF41EA0551BDE808
:10184000F08152EA430C08BFC143BDE8F08100209B
:101850004FF4001616EB410F98BF16EB430F08BF6D
:1018600016EB410F24BFC14305E016EB430F0CBF3D
:1018700061464CEA0551BDE8F08191FBF2F303FBB0
:101880001211C0E90031704770470000841A71EBF3
:10189000030603D2001BB141121973414FF4001C1F
:1018A0001CEB410F34BF7CEB430443E00C0DA4EB75
:1018B0001356352E50DC45EAC323DB0A45EAC12125
:1018C000C912B6F120050DDD63FA05F6EB4086EA94
:1018D0000305124218BF45F00105C01851F100017F
:1018E0000CD213E062FA06F5F2405540F3415A403B
:1018F000B340F3405A408018594107D349085FEA82
:1019000030005FEA350528BF45F0010501F580117B
:10191000420875F1004250F1000041EB0451F0BC67
:101920004FF4001C1CEB410F38BF70470020090D1D
:10193000090570471CEB410F10D252EA43060BD049
:10194000BCEB410F05D80C0DAB43661E342EB5DD44
:1019500002E0AB4380185941F0BC7047F0BC7047BF
:1019600038B50800110000240A22DFF8E4532A7079
:10197000DBB20722C0B200F038FA012801D00324FC
:1019800006E044F6206000F0C1FA012800D00324EC
:101990002000C0B232BD80B50021012000F002FA63
:1019A0000020DFF8B0130870002000F036FB01BD06
:1019B00080B50021002000F0F5F900F0FDFA01BD2E
:1019C000F8B504000D0016000027DFF88C0300882E
:1019D000FF2808DD9D22DFF88413DFF8840300F080
:1019E00037FBC046C046DFF870030088032819DBC8
:1019F000DFF864030188DFF86C03006800F0C2F9C7
:101A000000280FD1DFF85C03006800782070DFF851
:101A100048030088801E3080DFF848030068401CBF
:101A2000286000E005273800C0B2F2BD10B50024E0
:101A3000DFF820331B78002B2AD1491EDFF828332A
:101A400019600121DFF824331980DFF81C130968BD
:101A50000870DFF8180300881018DFF810130880EA
:101A6000DFF808030188C048006800F08BF9BF491F
:101A700009884A1CBD4B1A80BA4A126889B2505470
:101A80000120BB4908700121002000F08BF900E023
:101A900005242000C0B210BD10B582B00024B448A7
:101AA0000078002806D0E422AC49B24800F0D0FA11
:101AB000C046C046684600F0F0F9A6480078002805
:101AC0006ED0022848D07AD200F063FA9DF8000068
:101AD0003A2806D10020A849087000209E490880B5
:101AE00039E09DF800000D2803D1022099490870C3
:101AF00031E09DF8000000F0FDF89F4909780029C9
:101B000002D0012914D026E093490988FF2909DC75
:101B1000000194490968904A128888540120964926
:101B2000087018E000208B49087000F045FA12E0B8
:101B3000894909888B4A126889B2525C1043894AE4
:101B4000126889B2505484480088401C8249088039
:101B500000208949087032E09DF800007C4909782E
:101B6000884209D100F028FA00207A490870012043
:101B700000F053FA040012E09DF800003A280BD15F
:101B800000207D49087000207349088001207149B8
:101B9000087000F0FEF902E000206E4908700EE0C7
:101BA0009DF800003A280AD100F0F3F900206A49B4
:101BB00008800020704908700120664908702000E4
:101BC000C0B216BD10B5002462480078002807D0C6
:101BD0004FF4A8726149694800F03AFAC046C0461D
:101BE00063480078002860D002280FD003D304286F
:101BF0004CD043D35DE03A20C0B200F045F902205A
:101C00005B49087000205C49087052E05748008822
:101C100000282CD058480078002802D001280ED087
:101C20002BE0514800680078C0B2000900F074F859
:101C3000C0B200F029F901204F4908701DE04A4860
:101C40000068007810F00F0000F066F8C0B200F0F5
:101C50001BF945480068401C43490860002046497C
:101C6000087042480088401E4049088005E00D2069
:101C700000F00AF903203E4908701AE03448007861
:101C800000F002F904203A49087012E000203849B7
:101C90000870032000F0C1F904000021012000F0C9
:101CA00081F800203249087003E00021012000F093
:101CB00079F82000C0B210BD80B526480078401EDB
:101CC000012803D80020234908700FE0214800783C
:101CD00001280BD01F480078022807D04FF4D47297
:101CE0001E49274800F0B4F9C046C04600F064F928
:101CF000002002BDC0B2B0F130010A2902D2303852
:101D0000C0B208E0C0B2B0F14101062902D23738B2
:101D1000C0B200E0FF20704780B5C0B20A2802DAE6
:101D20003030C0B210E0C0B2B0F10A01062902D2D0
:101D30003730C0B208E040F2D112084903A000F0E9
:101D400087F9C046C046302002BD000030000000C8
:101D50001C0A00201A0A00200A0A00208038000805
:101D6000AC38000880000020FC0900200C0A00208C
:101D7000190A0020283A00081B0A0020443A0008EB
:101D800058370008002202E003789A18401C0B0024
:101D9000591E9BB2002BF7D1D2B252421000C0B2F2
:101DA0007047000010B50C00C0B2002806D0012218
:101DB00040F22551514800F0CBF905E0002240F2F5
:101DC00025514E4800F0C4F9E4B2002C06D001229F
:101DD00040F22771494800F0BBF905E0002240F2CB
:101DE0002771464800F0B4F910BD10B586B00C005C
:101DF000012144F2040000F07AFA4FF40070ADF8CB
:101E0000000003208DF8020018208DF803006946B9
:101E10003B4800F09BFA4FF48060ADF800000420CE
:101E20008DF803006946364800F090FA02940020CD
:101E3000ADF80C000020ADF80E000020ADF8100049
:101E40000020ADF814000C20ADF8120002A92B48B8
:101E500000F010F90121294800F06CF94FF4C0603E
:101E600000F0D4FA25208DF8040000208DF805003C
:101E700000208DF8060001208DF8070001A800F071
:101E8000CAFA012006B010BD80B5C0B2010089B207
:101E90001A4800F086F9012002BD10B50400174869
:101EA00000F083F92070012010BD80B5154800684E
:101EB000804701BD80B514480068804701BD80B5EA
:101EC00040F225510D4800F074F9012806D1FFF7C2
:101ED000F1FF40F22551094800F09DF940F22771C9
:101EE000064800F066F9012806D1FFF7DEFF40F250
:101EF0002771024800F08FF901BD00000038014051
:101F000000080140F0090020EC0900201FB5040082
:101F100000200121042000F0FAF93A48006844F654
:101F20002061B0FBF1F0401EADF80840ADF80400B0
:101F30000020ADF80A000020ADF8060001A93248E3
:101F400000F0A2FA0121304800F001FB4FF4C0601C
:101F500000F05CFA1E208DF8000000208DF80100D2
:101F600003208DF8020001208DF80300684600F080
:101F700052FA0121244800F00EFB002201212248E0
:101F800000F0D9FA0021204800F0C7FA012004B07F
:101F900010BD80B501211C4800F0FDFA012201218D
:101FA000194800F0C8FA0021174800F0DEFA0121B4
:101FB000154800F0B2FA01BD80B50121124800F0C9
:101FC000EAFA00220121104800F0B5FA00210E487B
:101FD00000F0CBFA00210C4800F09FFA01BD80B55B
:101FE0000A480068804701BD80B50121064800F01D
:101FF000BEFA002805D00121034800F0CCFAFFF713
:10200000EEFF01BD9800002000080040F409002008
:1020100000200D4908700120704701210A4A117003
:102020000A490870012070470021074A1278002AE7
:1020300006D0064909780170002003490870012183
:102040000800C0B270470000200A00201F0A0020CC
:1020500000B583B00091019202906A4604491820AD
:10206000ABBE002801D100F0AFFA03B000BD00BF45
:102070001010020070B586B004000D000020002092
:10208000002100210026A88900282600208A4CF67D
:10209000FF710840E98808432082A0894EF6F311B9
:1020A0000840A9882A8911436A8911430843A081FD
:1020B000A08A4FF6FF410840A9890843A0826846DC
:1020C00000F0B8F81A48864201D1039800E002985F
:1020D000A189090406D51921484329684900B0FBA4
:1020E000F1F105E01921484329688900B0FBF1F1BD
:1020F0006420B1FBF0F000010209642303FB12111C
:10210000A289120408D5C90032316422B1FBF2F170
:1021100011F00701084307E0090132316422B1FBE5
:10212000F2F111F00F010843208106B070BD0000EC
:1021300000380140C9B2002904D0818951F400510E
:10214000818104E081894DF6FF72114081817047E1
:1021500030B4002300240024002589B240F66A131D
:10216000994205000800C0B24309DBB289B211F000
:102170001F04012010FA04F4012B01D10C3504E0F6
:10218000022B01D1103500E01435D2B2002A03D061
:1021900028682043286002E02868A043286030BCFB
:1021A0007047C905C90D818070478088C005C00D82
:1021B000704710B4002200230022002289B240F6AA
:1021C0006A1291420A00D2B25209D2B289B211F017
:1021D0001F03012414FA03F3012A02D18289134058
:1021E00006E0022A02D1028A134001E0828A1340EB
:1021F00089B20A0A92B2012111FA02F20088024061
:10220000002B03D0002A01D0012200E000221000A0
:10221000C0B210BC70470022002289B240F66A1298
:10222000914289B20A0A012111FA02F292B2D14313
:102230000180704700210021002200213C490968EB
:1022400011F00C01002904D0042905D0082906D07A
:1022500021E03849016020E0364901601DE0344941
:10226000096811F47011324A126812F48032890C34
:10227000891C002A03D1304A514301600AE02C4AEC
:102280001268920303D52C4A5143016002E0294AA7
:102290005143016001E0274901602549096811F0B7
:1022A000F0010909254A515C0268CA404260204990
:1022B000096811F4E061090A204A515C4268CA4089
:1022C00082601B49096811F46051C90A1B4A515CBC
:1022D0004268CA40C2601649096811F44041890B3E
:1022E000174A515CC268B2FBF1F101617047C9B293
:1022F000002905D01349096808431249086005E020
:102300001049096831EA00000E4908607047C9B2F7
:10231000002905D00C49096808430B49086005E00D
:102320000949096831EA0000074908607047000060
:102330000410024000127A0000093D0084000020D1
:1023400094000020181002401C10024070B40022BB
:1023500000250023002600240025CA7812F00F0271
:10236000CB78DB0601D58B781A430B781B0621D07E
:102370000468002306E0CD78482D02D101259D4058
:1023800005615B1C082B14D2012515FA03F60D8894
:102390003540B542F5D19E000F25B540AC4312FA49
:1023A00006F52C43CD78282DE5D101259D404561CA
:1023B000E7E704600B88FF2B26DD4468002320E05C
:1023C000012513F1080615FA06F60D883540B542C9
:1023D00016D19E000F25B540AC4312FA06F52C43EA
:1023E000CD78282D04D1012513F10806B5404561AB
:1023F000CD78482D04D1012513F10806B5400561BB
:102400005B1C082BDCD3446070BC7047194908433F
:10241000194908607047002100220F23C178002964
:102420001DD01549096811F4E061D1F5E061090A90
:10243000D1F10402CB404178914082781A40114397
:1024400009010E4A0378D1540121027812F01F02CB
:1024500091400B4A0078401142F8201009E0012118
:10246000027812F01F029140064A0078401142F8AB
:10247000201070470000FA050CED00E000E400E0D9
:1024800000E100E080E100E000220288DFF8103186
:10249000984212D0DFF8203198420ED0B0F1804F30
:1024A0000BD0DFF80031984207D0DFF8FC309842BB
:1024B00003D0DFF8F830984204D14FF68F731A40FA
:1024C0004B881A43DFF8E830984208D0DFF8E43050
:1024D000984204D04FF6FF431A40CB881A4302803B
:1024E0008A8882850A880285DFF8B42090420FD05E
:1024F000DFF8C42090420BD0DFF8C020904207D014
:10250000DFF8BC20904203D0DFF8B820904201D120
:10251000097A0186012181827047C9B2002904D05D
:10252000018851F00101018004E001884FF6FE723C
:10253000114001807047D2B2002A03D08289114332
:10254000818103E0828932EA010181817047C9B249
:10255000002904D0018851F08001018004E0018845
:102560004FF67F72114001807047818470470022CE
:1025700000220023028A0A40808911EA000392B2F5
:10258000002A04D09BB2002B01D0012200E00022DF
:102590001000C0B2704789B2C94301827047000081
:1025A000002C01400004004000080040000C0040E6
:1025B0000010004000140040003401400040014081
:1025C0000044014000480140012000F001B8000033
:1025D00080B5C046C046024A11001820ABBEFBE7DA
:1025E0002600020038B5080014000025DBB20822DE
:1025F0002100C0B2FFF7F9FB012801D003250EE04E
:10260000B4F5964F01D9232003E09E486100B0FB4A
:10261000F1F080B2FFF77AFC012800D003252800F2
:10262000C0B232BD80B5002097490870002101205A
:10263000FFF7B8FBFFF7ADFC01BD80B5002100201E
:10264000FFF7B0FBFFF7B8FC01BDF8B504000D00C3
:102650001600002000278D480088FF2806DD9D22F7
:102660008B498C48FFF7F4FCC046C0468748008879
:10267000042811DB85480188874800F01DF90028EF
:102680000AD185480078207080480088C01E3080BC
:1026900082482860012000E005273800C0B2F2BD62
:1026A00010B50024784B1B78012B2DD1491E7C4B93
:1026B000196001217B4B19807949096808707948B4
:1026C00000881018774908807648018874480068A7
:1026D00000F0F2F8734909884A1C724B1A806E4A5E
:1026E00089B250546F4909884A1C6E4B1A8080B2D7
:1026F000000A694A89B2505401206B4908700121CF
:102700000020FFF74FFB00E005242000C0B210BD01
:1027100010B582B0002464480078002806D0E72273
:102720005B496248FFF794FCC046C0466846FFF725
:10273000B4FB55480078002805D002281CD008D3E7
:10274000032803D02CE0FFF724FC29E0FFF721FC4D
:1027500026E000204D4908804C480088411C4B4A27
:1027600011809DF800104C4A80B211540220464955
:102770000870FFF70EFC13E044480088FF280ADCCD
:1027800042480088411C414A11809DF80010424A8D
:1027900080B2115402E003203B490870FFF7F9FBB7
:1027A0002000C0B216BD10B50024374800780128BB
:1027B00007D04FF4917236493D48FFF749FCC046B7
:1027C000C04639480078002802D0012805D023E00F
:1027D00000210120FFF7E6FA1EE0324800880028B9
:1027E0000FD02F4800680078FFF74EFB2C48006898
:1027F000401C2B4908602B480088401E294908804E
:102800000AE00320FFF709FC040000210120FFF784
:10281000C9FA0020244908702000C0B210BD10B5CC
:10282000002419480078002804D0022807D0032883
:102830000AD00AE00020FFF7F0FB040019E00120B5
:10284000FFF7EBFB040014E013E00F4800780028CA
:102850000FD00D48007802280BD00B4800780328D1
:1028600007D04FF4AE720A491248FFF7F1FBC04699
:10287000C046FFF7A1FB0120034908702000C0B249
:1028800010BD0000A07F17001E0A0020120A0020C1
:10289000DC370008D4380008A8080020A908002068
:1028A000000A0020100A00201D0A0020603A0008DB
:1028B0007C3A0008A836000810B4FF22FF2308E085
:1028C000DBB204785C40401C084B1B5D5340084A57
:1028D000125D0C00611EA4B2002CF1D1D2B2DBB2A9
:1028E00053EA022080B210BC704700BF8433000856
:1028F0008434000880B501211020FFF7F8FC042083
:10290000ADF8000010208DF8030003208DF80200C0
:1029100069469548FFF71AFD0820ADF800004820E9
:102920008DF8030003208DF8020069468E48FFF7FA
:102930000DFD01BD80B5FFF7DDFF8C48007850F03C
:1029400001008A490870002000904FF416530022BD
:102950000121002000F01AF900F084F90AE084480F
:10296000007810F0FE008249087082480088401C00
:102970008049088000F087F97C480078C00706D5B8
:102980007D48006850F004007B49086005E07A4803
:10299000006830F004007849086078480068000753
:1029A000DDD57348007850F0010071490870DCE70C
:1029B00010B4002389B2B1F57A7F1BDB89B292B2E1
:1029C0005418B4F57B7F15DC89B26D4C2488091B43
:1029D00092B2002A0FD0674C34F81140A4B2240AF6
:1029E0000470401C634C34F811400470401C491CB6
:1029F000521EEDE701231800C0B210BC704730B47E
:102A00001C0089B2B1F57A7F36DB89B292B25518D3
:102A1000B5F57B7F30DC89B25A4D2D88491BE4B275
:102A2000002C10D0012C23D027E0574C34F8114053
:102A3000A4B2240A0470401C534C34F811400470B2
:102A4000401C491C521E92B2002AEED115E00478B7
:102A500024024D4D25F81140401C4B4C34F81140D8
:102A600005782C43484D25F81140401C491C521E46
:102A700092B2002AEBD100E001231800C0B230BCB2
:102A800070472DE9F0410400002592B2160089B28A
:102A9000B1F57A7F35DB89B292B25018B0F57E7FFE
:102AA0002FDCB1F57A77DBB2002B0DD0012B1FD0D4
:102AB00028E03200D2B2390089B22C4800F0DAF9AD
:102AC00088F80000083E0837012E06DBA04618F102
:102AD0000104092EEDDB0822ECE713E03200037855
:102AE000D2B2390089B2214800F08EF9083E083789
:102AF000012E05DB2000441C092EEFDB0822EEE747
:102B000000E001252800C0B2BDE8F0812DE9F041C8
:102B100004000025160036B289B2B1F57A7F1EDBBB
:102B200089B292B25018B0F57E7F18DCB1F57A7791
:102B30000AE03200D2B2390089B20D4800F09AF9A9
:102B400088F80000083E083736B2012E08DBA046A0
:102B500018F1010436B2092EEBDB0822EAE7012561
:102B60002800C0B2BDE8F08100100140040A002036
:102B7000060A0020C80900200C100140081001407E
:102B80009C0000209E000020D009002038B50400E1
:102B9000080011001A000025C0B2002805D0C0B2FC
:102BA000002802D0C0B2F82801DB022557E0774B9D
:102BB0001870049BE4B2002C02D0012C20D03FE01E
:102BC0007348744D28607448744D28607448754D7E
:102BD00028607548754D28600020754D286075483F
:102BE000754D28607548764D28607648764D28608A
:102BF000DBB2C9B265480078FFF7F4FC050020E0BD
:102C00007248644D28607248644D28607148654D73
:102C100028607148654D28600020654D28606F4828
:102C2000654D28606E48664D28606E48664D286088
:102C3000DBB2C9B255480078FEF792FE050000E00D
:102C40000225EDB2002D0AD1FFF7E2F9002801D1EB
:102C5000032504E0644804700120644908702800DA
:102C6000C0B232BD10B5002460480078012806D1FA
:102C700048480068804700205C49087000E006244E
:102C80002000C0B210BD80B5002058480078002850
:102C900001D0062079E06846FFF7C6F9012873D114
:102CA0009DF80000002805D002281BD003D303287C
:102CB0006AD069E068E04F4A4F4950483B4B1B6877
:102CC0009847C0B200280CD14C4800782F490978A9
:102CD000884203D049480078002802D10220FFF73B
:102CE0009CF951E04448006800784549087001208B
:102CF00044490870002200E0521C102A15DA3C48B2
:102D000010F83200002810D0394810F832003C4941
:102D100009788842F0D1374937480068344B03EBD3
:102D2000C20252689047374908703448007800283A
:102D300029D03448007800281CD000202D49088074
:102D40002F48007850F080002B490968294A1288E2
:102D5000885428480088401C264908802948007863
:102D600025490968234A1288885422480088401C53
:102D7000204908801F4802881F48016803480078DE
:102D8000084B1B689847FFE7002002BD140A00208B
:102D900025260008DC0900203B260008E009002069
:102DA000A1260008D80900204B260008E4090020CD
:102DB000E809002011270008EC090020A7270008D7
:102DC000F00900201F280008F409002097190008C6
:102DD000B11900082D1A0008C1190008991A000835
:102DE000C51B0008B91C0008150A0020A00000201F
:102DF00000000020080A0020F8090020160A002020
:102E0000170A0020180A0020F8B504000E00170069
:102E10001D00EDB2FFB2092F06DB3822134914481A
:102E2000FFF716F9C046C046B6B2F008B6B280B297
:102E3000B6EBC0018D400121B9404A1EB6B280B246
:102E4000B6EBC0018A4080B2215C80B204EB000383
:102E50005B7851EA03219143294380B2215489B21E
:102E6000090A80B220444170F1BD000050380008CA
:102E7000DC3A000810B489B2CB0889B29BB2B1EB3E
:102E8000C304012191404A1E9BB2C15C9BB218440D
:102E9000407851EA002189B2E14011400800C0B2F7
:102EA00010BC7047C0B2002804D0012804D0072805
:102EB00004D005E0002004E0022002E0062000E04B
:102EC0000420C0B2704710B500240988052912D12A
:102ED0004178090282781143491C0123012289B2F9
:102EE000C01CFFF78CFDC0B2002805D0C0B2FFF7B0
:102EF000D9FF040000E003242000C0B210BD70B56B
:102F00000C0000252188062928DB417809028278F7
:102F10001143491CC278120203791A43437992B2D1
:102F2000002A19D092B2792A16DA92B25600DBB290
:102F3000F6B2B34210D1012392B289B2801DFFF7DD
:102F40005EFDC0B2002804D0C0B2FFF7ABFF0500A1
:102F500005E00520208002E0032500E0032528008D
:102F6000C0B270BD70B50C0000252188052933D191
:102F70004178090282781143491CC2781602067909
:102F8000B6B2002E26D0B6B27E2E23DA00222280E0
:102F900003220270401C2288521C22803200D2B2CE
:102FA00052000270401C2288521C228000233200F2
:102FB00092B289B2FFF723FDC0B2002804D0C0B29C
:102FC000FFF770FF050008E02088B6B210EB46005E
:102FD000208002E0032500E003252800C0B270BD78
:102FE0002DE9F04104000D00002628880A285DDB49
:102FF00060780702A07807437F1CE0785FEA00282A
:10300000207950EA080860790102A0790143491C3F
:10301000E0790202207A0243607A1FFA88F8B8F158
:10302000000F42D01FFA88F8B8F17E0F3DDA92B255
:10303000002A3AD092B27A2A37DA92B25300C0B25A
:10304000834232D1012392B289B214F10A00FFF710
:10305000D6FCC0B2002820D1002028801720207084
:10306000641C2888401C28804046C0B24000207064
:10307000641C2888401C28800023424692B23900F4
:1030800089B22000FFF7BBFCC0B2002805D1298817
:103090001FFA88F811EB48012980C0B2002805D03A
:1030A000C0B2FFF7FFFE060000E003263000C0B20A
:1030B000BDE8F08170B50C000025218805293DD1BF
:1030C0004178090282781143491CC27812020379BF
:1030D0001A4392B2002A2FD092B2B2F5FA6F2BDACD
:1030E0000023238001230370401C23885B1C238062
:1030F00007231A4205D092B2082392FBF3F35E1C19
:1031000003E092B2082392FBF3F60670401C23887A
:103110005B1C2380002392B289B2FFF7B2FCC0B2DD
:10312000002804D0C0B2FFF7BDFE050007E02088EC
:10313000F6B23018208002E0032500E003252800C5
:10314000C0B270BD10B582B00024098805292AD10B
:103150004178090282781143491C0279002A20D162
:10316000C278FF2A02D0C278002A1AD100228DF834
:103170000120C078FF2803D101208DF8000002E073
:1031800000208DF800000123012289B26846FFF774
:1031900078FCC0B2002807D0C0B2FFF783FE04005D
:1031A00002E0032400E003242000C0B216BDF8B5FD
:1031B0000C0000252188062934DB41780902827839
:1031C0001143491CC278120203791A434379072636
:1031D000324205D092B2082692FBF6F6761C03E046
:1031E00092B2082692FBF6F692B2002A18D092B25A
:1031F000B2F5F66F14DCF6B2DBB29E4210D10123B9
:1032000092B289B2801DFFF73CFCC0B2002804D006
:10321000C0B2FFF747FE050005E00520208002E070
:10322000032500E003252800C0B2F2BD80B54E485A
:10323000006850F001004C4908604C4800684C4957
:1032400008404A490860484800684A4908404649D9
:1032500008604548006830F48020434908604348CE
:10326000006830F4FE00414908605FF41F004249E5
:10327000086000F005F85FF000604049086001BD9B
:1032800080B500F001F801BD82B00020019000205F
:1032900000903548006850F4803033490860324867
:1032A000006810F4003000900198401C01900098D4
:1032B000002803D10198B0F5A06FF0D12A4800682A
:1032C000800302D50120009001E0002000900098CA
:1032D000012847D12A48006850F0100028490860AA
:1032E0002748006880088000254908602448006855
:1032F00050F00200224908601C4800681B49086021
:103300001A480068194908601848006850F480603D
:10331000164908601548006830F47C1013490860AD
:103320001248006850F4E810104908600E48006820
:1033300050F080700C4908600B4800688001FBD594
:103340000A4800688008800008490860074800684B
:1033500050F00200054908600448006810F00C00B5
:103360000828F9D102B07047001002400410024052
:103370000000FFF8FFFFF6FE0810024008ED00E035
:103380000020024000C1814001C0804101C0804155
:1033900000C1814001C0804100C1814000C1814025
:1033A00001C0804101C0804100C1814000C1814015
:1033B00001C0804100C1814001C0804101C0804105
:1033C00000C1814001C0804100C1814000C18140F5
:1033D00001C0804100C1814001C0804101C08041E5
:1033E00000C1814000C1814001C0804101C08041D5
:1033F00000C1814001C0804100C1814000C18140C5
:1034000001C0804101C0804100C1814000C18140B4
:1034100001C0804100C1814001C0804101C08041A4
:1034200000C1814000C1814001C0804101C0804194
:1034300000C1814001C0804100C1814000C1814084
:1034400001C0804100C1814001C0804101C0804174
:1034500000C1814001C0804100C1814000C1814064
:1034600001C0804101C0804100C1814000C1814054
:1034700001C0804100C1814001C0804101C0804144
:1034800000C1814000C0C101C30302C2C60607C714
:1034900005C5C404CC0C0DCD0FCFCE0E0ACACB0B84
:1034A000C90908C8D81819D91BDBDA1A1EDEDF1FB4
:1034B000DD1D1CDC14D4D515D71716D6D21213D3A4
:1034C00011D1D010F03031F133F3F23236F6F73754
:1034D000F53534F43CFCFD3DFF3F3EFEFA3A3BFB44
:1034E00039F9F83828E8E929EB2B2AEAEE2E2FEFF4
:1034F0002DEDEC2CE42425E527E7E62622E2E32364
:10350000E12120E0A06061A163A3A26266A6A76793
:10351000A56564A46CACAD6DAF6F6EAEAA6A6BAB03
:1035200069A9A86878B8B979BB7B7ABABE7E7FBF33
:103530007DBDBC7CB47475B577B7B67672B2B37323
:10354000B17170B0509091519353529296565797D3
:10355000559594549C5C5D9D5F9F9E5E5A9A9B5BC3
:1035600099595898884849894B8B8A4A4E8E8F4F73
:103570008D4D4C8C448485458747468682424383E3
:103580004181804070B582B00C000025218805295A
:103590003ED141780902ADF80010BDF800108278E4
:1035A0001143ADF80010BDF80010491CADF8001033
:1035B000C1780E0201790E43B6B2002E26D0B6B203
:1035C0007D2E23DA0021218004210170401C2188F6
:1035D000491C21803100C9B249000170401C21887A
:1035E000491C2180320092B2BDF80010FFF7E0F9CB
:1035F000C0B2002804D0C0B2FFF754FC050008E0B8
:103600002088B6B210EB4600208002E0032500E0DF
:1036100003252800C0B276BD70B50C0000252188B6
:1036200005293CD14178090282781143491CC278AE
:10363000120203791A4392B2002A2ED092B2B2F546
:10364000FA6F2ADA0023238002230370401C2388A8
:103650005B1C238007231A4205D092B2082392FBF9
:10366000F3F35E1C03E092B2082392FBF3F60670BC
:10367000401C23885B1C238092B289B2FFF746FA74
:10368000C0B2002804D0C0B2FFF70CFC050007E070
:103690002088F6B23018208002E0032500E00325E0
:1036A0002800C0B270BD00002820655263765374B4
:1036B000617465203D3D2053544154455F52585F2D
:1036C000494E49542029207C7C202820655263766D
:1036D0005374617465203D3D2053544154455F52FD
:1036E000585F5243562029207C7C20282065526355
:1036F000765374617465203D3D2053544154455FB9
:1037000052585F4552524F522029000070B4002099
:10371000104B1B68DB010ED470BC70474D782D0236
:1037200025438C7826042E43CC7824063443091D87
:103730001C60121F001D002AEED0E0231B061C682F
:10374000002CFAD00C78042AE8D21C70491C401CCA
:10375000521EF0E7FCED00E02820655263765374BA
:10376000617465203D3D2053544154455F52585F7C
:103770005243562029207C7C2028206552637653B2
:1037800074617465203D3D2053544154455F525847
:103790005F574149545F454F4620290019E050F8D2
:1037A000041BCB0744BFA9F101035918121F0023C2
:1037B000042A41F8043BF9D25FEA827C0B4604D527
:1037C0004FF0000CA1F800C09B1CD10744BF0021A2
:1037D000197050F8042B002AE1D17047473A5CD1A8
:1037E000A7CFB0B0ECB9AB5C73746D33325C73745B
:1037F0006D3332B9A4B3CC5C465245454D425F525D
:103800004254365C6D6F646275735C7274755C6D86
:10381000627274752E63000030B501684268846876
:10382000014401EB5203D20748BF4C44994201D1F5
:103830000C3030BD11F9012B11F8015B002A04F89E
:10384000015B02D5521CF9D1F0E7521EF4D5EDE729
:10385000443A5C53544D33325C465245454D425FC9
:10386000524254365C6D6F646275735C66756E634C
:1038700074696F6E735C6D627574696C732E63002E
:10388000443A5C53544D33325C465245454D425F99
:10389000524254365C6D6F646275735C6173636928
:1038A000695C6D6261736369692E6300757352634D
:1038B00076427566666572506F73203C204D425F9C
:1038C0005345525F5044555F53495A455F4D4158E7
:1038D000000000007573526376427566666572502B
:1038E0006F73203C204D425F5345525F5044555FFB
:1038F00053495A455F4D41580000000038B50C004F
:1039000006490A880649451C2800FDF7A1FB034823
:103910000088401C2080002032BD00000E0A0020DC
:10392000A809002010B5044614F1010F82B00AD096
:103930008DF8000001226946012000F007F80128F7
:1039400001D1204616BD4FF0FF3016BD80B50028CE
:1039500002D400F003F802BD002002BD80B50029AA
:1039600001D1002002BD012801D0022802D1FFF7B9
:10397000CDFE02BD00F001F802BD10B584B0030019
:10398000140000930191029469460520ABBE012208
:103990001900201AC046C04604B010BD10B5074932
:1039A00079441831064C7C44163404E00A68081D3A
:1039B000114488470146A142F8D110BD2C000000F7
:1039C000480000000EB400B582B003A90091024681
:1039D0006B460121034878440A30FCF787FB06BC9C
:1039E0005DF810FBE3000000B5FDFFFF7C01000067
:1039F000A80800200000000021FEFFFFEC010000ED
:103A0000E800000000000020704780B50148FFF783
:103A1000D9FFFEE7EC3A0008FEE7FEE7FEE7704755
:103A2000704770477047000065536E64537461744B
:103A300065203D3D2053544154455F54585F4944EF
:103A40004C450000655263765374617465203D3DBA
:103A50002053544154455F52585F49444C4500003F
:103A600065536E645374617465203D3D2053544129
:103A700054455F54585F49444C4500006552637695
:103A80005374617465203D3D2053544154455F5249
:103A9000585F49444C45000000F00BF8002801D065
:103AA000FFF77CFF0020C046C046FEF743FF00F052
:103AB00002F80120704700F001B8000007463846C0
:103AC000FEF786FDFBE738B504460D462846FFF7AE
:103AD00029FFA84218BF0024204632BD75634E421C
:103AE000697473203C3D2038000000004861726416
:103AF0004661756C74D6D0B6CF0A00000148804785
:103B0000014800472D3200080D3B0008C046C04662
:103B1000C046C046FFF7C0FFFFF776BFFFF775BF8F
:103B2000FFF77ABFFFF779BFFFF778BFFFF777BFDF
:103B3000FFF776BFFFF775BFFFF774BFFFF7FEBF54
:103B4000FFF7FEBFFFF7FEBFFFF7FEBFFFF7FEBFA9
:103B5000FFF7FEBFFFF7FEBFFFF7FEBFFFF7FEBF99
:103B6000FFF7FEBFFFF7FEBFFFF7FEBFFFF7FEBF89
:103B7000FFF7FEBFFFF7FEBFFFF7FEBFFFF7FEBF79
:103B8000FFF7FEBFFFF7FEBFFFF7FEBFFFF7FEBF69
:103B9000FFF7FEBFFFF7FEBFFFF7FEBFFFF7FEBF59
:103BA000FFF7FEBFFFF7FEBFFFF7FEBFFFF7FEBF49
:103BB000FFF7FEBFFEF718BAFFF7FEBFFFF7FEBF25
:103BC000FFF7FEBFFFF7FEBFFFF7FEBFFFF7FEBF29
:103BD000FEF775B9FFF7FEBFFFF7FEBFFFF7FEBFA9
:103BE000FFF7FEBFFFF7FEBF0011FD0004FD380028
:103BF0000804FD00048535000803FD0004652F005E
:103C00000810FD0004FF2E000806FD0004C72E006A
:103C10000817FD0004E12F000801FD0004B5300085
:103C20000805FD0004453100080FFD0004AF310018
:103C30000802FD000319360008D00003A808002080
:103C4000FC0018010203040102030406070809022C
:0C3C500004060800A24A04E803E803028E
:0400000508003B0DA7
:00000001FF
