:020000040800F2
:10000000D8080020091B00087D1900087F19000886
:100010008B1900088D1900088F19000800000000D6
:10002000000000000000000000000000911900081E
:10003000931900080000000095190008971900089E
:10004000491B00084D1B0008511B0008551B0008E8
:10005000591B00085D1B0008611B0008651B000898
:10006000691B00086D1B0008711B0008751B000848
:10007000791B00087D1B0008811B0008851B0008F8
:10008000891B00088D1B0008911B0008951B0008A8
:10009000991B00089D1B0008A11B0008A51B000858
:1000A000A91B0008AD1B0008B11B0008B51B000808
:1000B000B91B0008BD1B000893050008C51B0008FC
:1000C000C91B0008CD1B0008D11B0008D51B000868
:1000D000D91B000861040008E11B0008E51B0008AB
:1000E000E91B0008ED1B0008F11B0008084611463B
:1000F00038B5A14D0A22EA700024072200F057F912
:10010000012805D144F6206000F0D6F9012800D07E
:100110000324204632BD80B50021012000F030F9D3
:10012000954900204870BDE8024000F04EBA80B505
:100130000021002000F024F9BDE8014000F014BACD
:10014000F0B58D4CA5880023032D16DBA5888B4EBA
:1001500037469C464DB117F801EBF4446D1E5FFA2B
:100160008CFCF8D1BCF1000F07D135780570A08860
:10017000801E1080701C086000E005231846F0BD4A
:1001800038B57D4B5D780024F5B9491E996001258D
:10019000DD800870D8881018D8800022D888050023
:1001A00005D011F8015BAA18401ED2B2F9D1D88847
:1001B000411CD9805142714A11540120187001210B
:1001C000002000F0DDF800E00524204632BD38B5FF
:1001D000684600F03DF9684D68780024002850D04A
:1001E000022836D057D200F0AAF99DF800003A282C
:1001F00002D1AC70AC804EE00D2808BF022049D07F
:10020000A0F130020A2A38BF303805D3A0F14101ED
:10021000062934BF3738FF20A97811B101290ED043
:1002200039E0A988FF2906DCAA88544900018854CE
:100230000120A8702FE06C7000F096F92BE0A988DF
:100240004E4A535C18435054A888401CA880AC7098
:1002500021E09DF80000E978884207D100F084F998
:100260006C70012000F0B1F9044614E03A2806D180
:10027000AC70AC800120687000F061F90BE06C702C
:1002800009E09DF800003A2805D100F058F9AC804B
:10029000AC7001206870204632BD000038B5364D84
:1002A00028780024042858D8DFE800F053030A42D5
:1002B00047003A2000F0C5F802202870AC704CE0EE
:1002C000E88880B3A87810B1012813D045E0A86869
:1002D000007800090A28B8BF303005DBA0F10A0118
:1002E000062934BF37303020C0B200F0AAF8012010
:1002F000A87032E0A868007800F00F000A28B8BFA4
:10030000303005DBA0F10A01062934BF3730302038
:10031000C0B200F096F8A868401CA860AC70E888ED
:10032000401EE88019E00D2000F08BF803200EE05D
:10033000E87800F086F8042009E02C70032000F033
:1003400044F904460021012000F01AF8002028702A
:1003500003E00021012000F013F8204632BD80B5F3
:1003600005484178491E01299CBF0021417000F0D9
:10037000FBF8002002BD0000080A0020D808002079
:1003800038B50C46484D002840F2255114BF0122D3
:100390000022284600F084F92846002CBDE83840A9
:1003A00040F2277114BF0122002200F079B930B564
:1003B0000C4687B0012144F2040000F0F3F94FF439
:1003C0000070ADF8000003208DF8020018208DF8B1
:1003D00003006946354D284600F002FA4FF480606C
:1003E000ADF80000694604208DF80300284600F0AF
:1003F000F7F9029400200390ADF81000ADF8140056
:100400000C20ADF8120002A9274C204600F0F0F8AD
:100410000121204600F03AF94FF4C06000F03EFAA6
:1004200025208DF8040000208DF805008DF80600C9
:1004300001208DF8070001A800F035FA012007B06F
:1004400030BD80B50146184800F042F9012002BDD8
:1004500010B50446144800F03FF92070012010BD8B
:1004600038B5114C40F225552946204600F038F9A0
:10047000012806D10E48006880472946204600F032
:100480004EF940F227752946204600F029F9012847
:1004900008D108480068804729462046BDE8344016
:1004A00000F03DB931BD00000038014000080140B6
:1004B0001C0000202000002010B5044684B001215B
:1004C000042000F078F93B480068ADF8084044F695
:1004D0002061B0FBF1F0401EADF804000020ADF843
:1004E0000A00ADF8060001A9334C204600F014FACA
:1004F0000121204600F069FA4FF4C06000F0CEF907
:100500001E208DF8000000208DF8010003208DF8DA
:10051000020001208DF80300684600F0C4F90121B3
:10052000204600F068FA00220121204600F045FA3A
:100530000021204600F037FA012004B010BD10B5AC
:100540001D4C0121204600F056FA012201212046CF
:1005500000F033FA0021204600F041FA2046BDE8C1
:100560001040012100F01FBA10B5134C01212046A4
:1005700000F041FA00220121204600F01EFA00217D
:10058000204600F02CFA2046BDE81040002100F083
:100590000ABA10B5084C0121204600F022FA40B1F9
:1005A0000121204600F027FA04480068BDE8104009
:1005B000004710BDD00000200008004024000020AB
:1005C0000A4900204870012070470849087001223C
:1005D0004A7001207047054A5378002123B11178F1
:1005E000017000205070012108467047FA09002070
:1005F00030B5044685B00D46208A4CF6FF710840A0
:10060000E988084320824EF6F311A0890840A988A2
:1006100008432989084369890843A0814FF6FF41AF
:10062000A08A0840A9890843A082684600F080F8A3
:100630001548296884420CBF039802981922504338
:10064000A28912044CBF49008900B0FBF1F164207B
:10065000B1FBF0F000010209642303FB1211A2892F
:10066000120406D5C9003231B1FBF3F101F00701E4
:1006700005E009013231B1FBF3F101F00F0108434C
:10068000208105B030BD000000380140002981897B
:1006900012BF41F400514DF6FF7211408181704745
:1006A0000B065B0F4FF0010C01F01F01012B0CFA40
:1006B00001F108BF0C3003D0022B0CBF10301430F6
:1006C000002A026814BF114322EA01010160704749
:1006D000C1F30801818070478088C0F3080070472B
:1006E00030B40A46130600215B0F012402F01F05F7
:1006F000012B04FA05F508BF838903D0022B0CBF38
:10070000038A838A120A008804FA02F22B401040FE
:10071000002B30BC1CBF0028012108467047012275
:10072000090A02FA01F189B2C94301807047000049
:1007300010B425490A6802F00C02082A0FD10A6891
:100740000B68C2F38342921CDB0358BF1F4B04D5D6
:100750000B689B034CBF1D4B1D4B5A4300E01C4ACA
:1007600002600B681B4A0468C3F30313D35CDC40CC
:1007700044600B684468C3F30223D35CDC408460AC
:100780000B684468C3F3C223D35CDC40C4600968CF
:10079000C368C1F381311144097CB3FBF1F10161FC
:1007A00010BC70470C4A0029116814BF084321EAA5
:1007B000000010607047094A0029116814BF0843FF
:1007C00021EA0000106070470410024000093D005B
:1007D00000127A00AC000020181002401C100240E9
:1007E0002DE9F041CC78002204F00F03E40644BF69
:1007F0008C7823430C88E5B21DB3D0F800C00125E6
:100800000F2605FA02F707EA0408B84514D14FEAA3
:10081000820E06FA0EF82CEA080C03FA0EFE4EEAD7
:100820000C0C91F803E0BEF1280F08BF476103D01C
:10083000BEF1480F08BF0761521C082AE1D3C0F877
:1008400000C0FF2C27DDD0F804C0002201250F26B0
:1008500002F1080705FA07F707EA0408B84515D1B9
:100860004FEA820E06FA0EF82CEA080C03FA0EFE86
:100870004EEA0C0C91F803E0BEF1280F08BF476167
:1008800091F803E0BEF1480F08BF0761521C082A27
:10089000DED3C0F804C0BDE8F08100001949084368
:1008A00019490860704770B40378C4781A4601216A
:1008B000ECB1154B1B68447803F4E063C3F5E063C7
:1008C0001B0AC3F10405AC4085780F26DE4006EA1A
:1008D000050323430D4C1B01A354007800F01F02B5
:1008E00091400B4A400942F8201070BC704703F059
:1008F0001F0001FA00F00749520941F8220070BCBC
:10090000704700000000FA050CED00E000E400E094
:1009100000E100E080E100E010B4DFF8E4200388AB
:1009200090421CBFDFF8F040A0420ED0B0F1804FE3
:100930001CBFDFF8D040A04207D0DFF8CC40A04277
:100940001CBFDFF8C840A04204D14FF68F7423408B
:100950004C882343DFF8B840A0421CBFDFF8B44006
:10096000A04204D04FF6FF442340CC8823430380A9
:1009700090428B8883851CBFDFF89C2090420B88B7
:1009800003850AD0DFF8942090421FBFDFF8902043
:100990009042DFF89020904201D1097A018601212E
:1009A000818210BC70470029018812BF41F001010B
:1009B0004FF6FE72114001807047002A828914BFF1
:1009C000114322EA0101818170470029018812BF89
:1009D00041F080014FF67F721140018070478184A1
:1009E0007047038A8089002208400B421CBF002800
:1009F00001221046704700BFC943018270470000C2
:100A0000002C01400004004000080040000C0040A1
:100A1000001000400014004000340140004001403C
:100A2000004401400048014070B4FF22FF230C0045
:100A30000BD00FF220140FF21C0510F8016B5E4072
:100A4000AB5D5340A25D491EF7D170BC43EA022062
:100A50007047000000C1814001C0804101C0804159
:100A600000C1814001C0804100C1814000C181407E
:100A700001C0804101C0804100C1814000C181406E
:100A800001C0804100C1814001C0804101C080415E
:100A900000C1814001C0804100C1814000C181404E
:100AA00001C0804100C1814001C0804101C080413E
:100AB00000C1814000C1814001C0804101C080412E
:100AC00000C1814001C0804100C1814000C181401E
:100AD00001C0804101C0804100C1814000C181400E
:100AE00001C0804100C1814001C0804101C08041FE
:100AF00000C1814000C1814001C0804101C08041EE
:100B000000C1814001C0804100C1814000C18140DD
:100B100001C0804100C1814001C0804101C08041CD
:100B200000C1814001C0804100C1814000C18140BD
:100B300001C0804101C0804100C1814000C18140AD
:100B400001C0804100C1814001C0804101C080419D
:100B500000C1814000C0C101C30302C2C60607C76D
:100B600005C5C404CC0C0DCD0FCFCE0E0ACACB0BDD
:100B7000C90908C8D81819D91BDBDA1A1EDEDF1F0D
:100B8000DD1D1CDC14D4D515D71716D6D21213D3FD
:100B900011D1D010F03031F133F3F23236F6F737AD
:100BA000F53534F43CFCFD3DFF3F3EFEFA3A3BFB9D
:100BB00039F9F83828E8E929EB2B2AEAEE2E2FEF4D
:100BC0002DEDEC2CE42425E527E7E62622E2E323BD
:100BD000E12120E0A06061A163A3A26266A6A767ED
:100BE000A56564A46CACAD6DAF6F6EAEAA6A6BAB5D
:100BF00069A9A86878B8B979BB7B7ABABE7E7FBF8D
:100C00007DBDBC7CB47475B577B7B67672B2B3737C
:100C1000B17170B05090915193535292965657972C
:100C2000559594549C5C5D9D5F9F9E5E5A9A9B5B1C
:100C300099595898884849894B8B8A4A4E8E8F4FCC
:100C40008D4D4C8C4484854587474686824243833C
:100C50004181804010B582B001211020FFF7A2FD34
:100C60000420ADF8000010208DF8030003208DF85B
:100C700002006946774C2046FFF7B2FD0820ADF828
:100C80000000694648208DF8030003208DF802001B
:100C90002046FFF7A5FD13BD38B5FFF7DBFF6E4C0F
:100CA0006E4D207840F0010020704FF41653002064
:100CB00000900022012100F0D7F800F019F903E0BC
:100CC000A070A088401CA08000F01FF92078C00709
:100CD00068684CBF40F0040020F004006860A07811
:100CE000296809074CBF40F0010000F0FE00E7E76B
:100CF000002310B4B1F57A7F15DB5418B4F57B7F6F
:100D000011DC140010D0544C04EB4101A1F2CC7161
:100D10000C88240A00F8014B521E31F8024B00F8EF
:100D2000014BF5D100E0012310BC1846704770B4A8
:100D3000B1F57A7F2ADB5518B5F57B7F26DCA1F566
:100D40007A7113B1012B0FD021E094B2FCB1444C65
:100D500034F811502D0A00F8015B521E34F811408E
:100D600000F8014B491CF0E794B284B110F8015B24
:100D70003B4C2D0224F81150521E34F8115010F83B
:100D8000016B354324F81150491CEDE7012370BC79
:100D9000184670472DE9F0410024B1F57A7F0646E8
:100DA00015462DDB5018B0F57E7F29DCA1F57A774A
:100DB0005BB1012B1BD024E0D2B2B9B2264800F0BF
:100DC0003CF988F80000083D0837012D19DBB046D2
:100DD000092D08F10106ACBF08222A46ECE703788A
:100DE0001D48D2B2B9B200F00DF9083D0837012D07
:100DF00007DB3046461C092DACBF08222A46EEE729
:100E000001242046BDE8F0812DE9F0410025B1F52F
:100E10007A7F804616B219DB5018B0F57E7F15DC5C
:100E2000A1F57A7708E0D2B2B9B20E4800F005F920
:100E3000083E207036B20837012E08DB4446092EE2
:100E400004F10108ACBF08223246ECE70125284630
:100E5000BDE8F08100100140FC09002008100140AD
:100E6000200A0020FE09002038B50C4611461A461B
:100E700023003AD0F82C38DA524D049B2C7010B174
:100E800001281ED031E05048E860504828615048A1
:100E9000A860504868610020A8614F48E8614F4849
:100EA00028624F486862204600F0E4F804462000BB
:100EB0001CD1FFF785FB00280EBF032401206870BA
:100EC00014E04848E860484828614848A860484815
:100ED00068610020A8614748E861474828624748A0
:100EE00068622046FFF702F9E0E70224204632BD9F
:100EF00038B5344D68780024012803D1E86880476C
:100F00006C7000E00624204632BDF8B52D4C6078A8
:100F100008B10620F2BD6846FFF75DFB01284FD1FE
:100F20009DF80000012802D0022812D048E0636931
:100F3000221D04F12801A01C9847002840D1A07868
:100F40002278904218BF00283AD10220FFF73DFBDB
:100F500036E0A06A2A4B0678E670012100221D4681
:100F60002F78DFB1B74206D103EBC202211D5268D0
:100F70009047014612E02F7A521C7FB1B742F3D05E
:100F80002F7C521C57B1B742EED02F7E521C2FB18E
:100F9000B742E9D0521C2035102AE1DBA07878B1A5
:100FA000080008D0E078A26A40F080001070A06AC3
:100FB00041700220A080A288A16A2078A368984787
:100FC0000020F2BD00000020A9100008C110000898
:100FD0000F110008D31000085D110008AF110008C0
:100FE000FB110008170100082F010008810100080B
:100FF00041010008CF0100089D0200085F030008BE
:101000002C000020F0B4CC080519065D6F7846EA84
:101010000726012707FA02F2521EA1EBC407BA40C5
:10102000A1EBC40126EA020203FA01F1114389B2DD
:101030000155080A6870F0BC7047CB08A1EBC301EA
:1010400010F803C0184440784CEA0020C840012141
:101050009140491E0840C0B2704748B1012802D0F3
:10106000072802D003E002207047062070470420C2
:101070007047000038B50846144608222146FFF79D
:1010800096F9002501280CD1B4F5964F8FBF232087
:1010900062486100B0FBF1F080B2FFF70DFA012861
:1010A00000D00325284632BD80B55D490020487038
:1010B00000210120FFF764F9BDE80140FFF73FBAC6
:1010C00080B500210020FFF75BF9BDE80140FFF784
:1010D0004BBA2DE9F843524D8046A88800260428D3
:1010E0000C4691460FDB4F4FA9883846FFF79CFC12
:1010F00048B9387888F80000A888C01EA9F8000010
:10110000781C206000E005263046BDE8F28338B543
:10111000434D6B780024012B1CD14B1EAB60012189
:101120006980187068881018688018466988FFF709
:101130007BFC69884A1C6A803A4A5054000A6988D4
:101140004B1C6B8050540121012028700020FFF7B8
:1011500017F900E00524204632BD000080B568463E
:10116000FFF776F92E48417803291ED8DFE801F011
:101170001B020E1B002181802A4B81884A1C828021
:101180009DF800205A54022141700CE08188FF290B
:1011900007DC81884A1C82809DF80000214A505457
:1011A00001E003214170FFF7CAF9002002BD38B504
:1011B0001B4D2878002410B1012805D01BE0002128
:1011C0000120FFF7DDF816E0688850B1A8680078C4
:1011D000FFF737F9A868401CA8606888401E68803F
:1011E00009E00320FFF7F1F9044600210120FFF791
:1011F000C7F800202870204632BD38B5084D687801
:10120000002410B1022803D10120FFF7DEF90446C3
:10121000FFF7AAF901206870204632BDA07F1700B1
:10122000140A0020D808002038B5098800240529B0
:1012300010D14178857845EA0121491C012301221A
:1012400089B2C01CFFF773FD010004D0FFF705FF52
:10125000044600E00324204632BD70B50C4600254C
:10126000218806291EDB41788278037942EA012130
:10127000C278491C53EA0222437913D0792A11DA41
:101280005600F6B2B3420DD1012389B2801DFFF79B
:101290004EFD010003D0FFF7E0FE054603E0052008
:1012A000208000E00325284670BD70B50C4600255F
:1012B0002188052924D141788278067942EA0121E2
:1012C000491CEEB17E2E1BDA25800322027000231A
:1012D0002288521C228089B272004270801C2288AF
:1012E000521C22803246FFF722FD010003D0FFF797
:1012F000B4FE054605E0208800EB4600208000E0B3
:101300000325284670BD2DE9F0410D460446288886
:1013100000260A2844DB6078A178227A41EA00207E
:1013200000F10108E078217941EA00276079A1798C
:1013300041EA0020411CE07942EA0022607A77B35A
:101340007E2F2CDA5AB37A2A29DA5300834226D127
:10135000012389B204F10A00FFF7E9FC010018D16A
:101360002E801720207000232888401C28803A46B1
:10137000780060701FFA88F12888401C2880A01C23
:10138000FFF7D5FC010004D1288800EB4700288036
:1013900006E0010004D0FFF760FE064600E00326E9
:1013A0003046BDE8F08170B504461E00084615467B
:1013B00004D015F8011BA047761EFAD170BD2DE9A7
:1013C000F04683B08246894614461F4607E0012353
:1013D000224649465046FFF7E6FF8146641C2078C6
:1013E000010003D1002003B0BDE8F0862528EED12E
:1013F0006078A41C2528014618D058285CD06328A2
:101400000ED0642818BF692814D06F2854D07028D3
:1014100058D073285DD0752818BF78284CD0DEE7E7
:101420003868386050F8041B3860C9B24846D04765
:101430008146D4E73868386050F8045B3860002D86
:1014400003D52D214846D047814664206F2808BF28
:10145000082205D040F02001782914BF0A2210226A
:101460000B216428AC4603D1002D48BFCCF1000C01
:10147000BCFBF2F502FB15CC0CF130065FFA86FCE2
:101480004B1EBCF13A0FA4BFA0F15106B4440DF8B5
:1014900003C019465FEA050C01D00129E8DA484685
:1014A000D1F10B090DEB0105C2D015F8011BD04796
:1014B000B9F10109F9D1BBE73968396051F8045B2A
:1014C0003960C3E73868386050F8045B38607820CA
:1014D000BCE73868386050F8045B3860284600F094
:1014E00009F806004846A3D015F8011BD047761E20
:1014F000FAD19DE700F10103810704D010F8011B28
:1015000089B18107FAD10268B2F10131914311F03A
:10151000803F04BF50F8042FF6E710F8011B11B10B
:1015200010F8011BFBE7C01A704770B50C46002588
:101530002188052933D141788278037942EA012153
:10154000C278491C53EA022229D0B2F5FA6F26DA92
:1015500025800123037023885B1C238012F007037E
:1015600005D0930802EB5373DB085E1C03E093087D
:1015700002EB5373DE08467089B223885B1C23801C
:10158000801C0023FFF706FC010003D0FFF765FD78
:10159000054605E02088F6B23018208000E00325DB
:1015A000284670BD10B582B009880024052921D1D4
:1015B0004178827842EA01210279491CD2B9C27885
:1015C000FF2A18BF002A15D18DF8014089B2C078D2
:1015D000FF2806BF01208DF800008DF80040012390
:1015E00001226846FFF7D6FB010004D0FFF735FD66
:1015F000044600E00324204616BD70B50C460025C5
:10160000218806292BDB41788278037942EA01217F
:10161000C278491C43EA0222437912F0070605D03A
:10162000960802EB5676F608761C03E0960802EB65
:101630005676F6089AB1B2F5F66F10DCF6B29E4215
:101640000DD1012389B2801DFFF7A4FB010003D057
:10165000FFF703FD054603E00520208000E0032599
:10166000284670BD3548364A82B0016841F0010114
:101670000160416811404160324A016811400160D7
:10168000016821F480210160416821F4FE0141607C
:101690004FF41F018160002101910091016841F424
:1016A00080310160016801F4003100910199491C09
:1016B0000191009919B90199B1F5A06FF2D10168B2
:1016C000490C01F0010100910099012930D11E4916
:1016D0000A6842F010020A600A68920892000A60E2
:1016E0000A6842F002020A60416841604168416054
:1016F000416841F480614160416821F47C1141609E
:10170000416841F4E8114160016841F08071016075
:1017100001688901FCD541688908890041604168F8
:1017200041F002014160416801F00C010829FAD141
:101730004FF000600549086002B070470010024099
:101740000000FFF8FFFFF6FE0020024008ED00E079
:1017500070B50C4600252188052932D14178827860
:10176000037942EA0121C278491C53EA022228D0B7
:10177000B2F5FA6F25DA25800223037023885B1CFB
:10178000238012F0070305D0930802EB5373DB08A4
:101790005E1C03E0930802EB5373DE08467089B2C7
:1017A00023885B1C2380801CFFF72EFB010003D0E5
:1017B000FFF753FC054605E02088F6B2301820807C
:1017C00000E00325284670BD70B50C4682B0218824
:1017D0000025052931D141780902ADF80010BDF886
:1017E000001082781143ADF80010BDF80010491CBC
:1017F000ADF800100279C17852EA01261DD07D2E85
:101800001BDA25800421017032462188491C218081
:1018100071004170801C2188491C2180BDF8001096
:10182000FFF766FA010003D0FFF717FC054605E055
:10183000208800EB4600208000E00325284676BD86
:1018400062B38B0708D0521E11F8013B00F8013B30
:1018500000F024808B07F6D1830740F0208000BF82
:10186000103A07D330B4B1E83810103AA0E8381075
:10187000F9D230BC530724BFB1E80810A0E8081023
:1018800044BF51F8043B40F8043BD20724BF31F871
:10189000022B20F8022B44BF0B7803707047083AE4
:1018A00007D3B1E80810083A40F8043B40F804CBED
:1018B000F7D25307E4E7000070B40020104B1B6818
:1018C000DB010ED470BC70474D782D0225438C7817
:1018D00026042E43CC7824063443091D1C60121FB5
:1018E000001D002AEED0E0231B061C68002CFAD055
:1018F0000C78042AE8D21C70491C401C521EF0E7E8
:10190000FCED00E019E050F8041BCB0744BFA9F13F
:1019100001035918121F0023042A41F8043BF9D28D
:101920005FEA827C0B4604D54FF0000CA1F800C0A2
:101930009B1CD10744BF0021197050F8042B002ACA
:10194000E1D1704730B5016842688468014401EB19
:101950005203D20748BF4C44994201D10C3030BDEC
:1019600011F9012B11F8015B002A04F8015B02D583
:10197000521CF9D1F0E7521EF4D5EDE7704780B55F
:101980000FF2140000F010F8FEE7FEE7FEE7FEE7B6
:101990007047704770477047486172644661756C64
:1019A00074D6D0B6CF0A00000EB400B582B003A939
:1019B000009102466B460121034878440A30FFF744
:1019C000FEFC06BC5DF810FB2901000010B50446C2
:1019D00014F1010F82B00AD08DF80000012269468F
:1019E000012000F007F8012801D1204616BD4FF074
:1019F000FF3016BD80B5002802D400F003F802BD08
:101A0000002002BD80B5002901D1002002BD0128BF
:101A100001D0022802D1FFF74FFF02BD00F001F80C
:101A200002BD10B584B0030014000093019102942C
:101A300069460520ABBE01221900201AC046C046E7
:101A400004B010BD10B5074979441831064C7C44E8
:101A5000163404E00A68081D114488470146A14273
:101A6000F8D110BD080000002400000099FEFFFF1F
:101A700050010000D808002000000000C9FEFFFF50
:101A800074010000F00000000000002038B50C4692
:101A900005490D8C2A46401CFFF7D2FE681C2080A9
:101AA000002032BD00000000D809002000F00BF833
:101AB000002801D0FFF7C6FF0020C046C046FFF750
:101AC000EBF800F002F80120704700F001B80000C8
:101AD0000746384600F002F8FBE7000080B5C04634
:101AE000C046024A11001820ABBEFBE726000200E8
:101AF00038B504460D462846FFF768FFA84218BFD0
:101B00000024204632BD00000148804701480047BC
:101B100065160008191B0008C046C046C046C046EE
:101B2000FFF7C4FFFFF72ABFFFF729BFFFF72DBF5D
:101B3000FFF72CBFFFF72BBFFFF72ABFFFF729BF27
:101B4000FFF728BFFFF727BFFFF7FEBFFFF7FEBF76
:101B5000FFF7FEBFFFF7FEBFFFF7FEBFFFF7FEBFB9
:101B6000FFF7FEBFFFF7FEBFFFF7FEBFFFF7FEBFA9
:101B7000FFF7FEBFFFF7FEBFFFF7FEBFFFF7FEBF99
:101B8000FFF7FEBFFFF7FEBFFFF7FEBFFFF7FEBF89
:101B9000FFF7FEBFFFF7FEBFFFF7FEBFFFF7FEBF79
:101BA000FFF7FEBFFFF7FEBFFFF7FEBFFFF7FEBF69
:101BB000FFF7FEBFFFF7FEBFFFF7FEBFFFF7FEBF59
:101BC000FEF7E7BCFFF7FEBFFFF7FEBFFFF7FEBF64
:101BD000FFF7FEBFFFF7FEBFFFF7FEBFFEF740BCFB
:101BE000FFF7FEBFFFF7FEBFFFF7FEBFFFF7FEBF29
:101BF000FFF7FEBF010002D6000011FD00048D1AA0
:101C0000000804FD0004C917000803FD0004AB121E
:101C1000000810FD00045B12000806FD00042912F4
:101C2000000817FD00040713000801FD00042B1530
:101C3000000805FD0004A51500080FFD0004FB15B4
:101C4000000802FD000351170008CC000F01020339
:101C500004010203040607080902040608F8000B41
:0C1C6000010203040607080900A24A0460
:0400000508001B19BB
:00000001FF
