:020000040800F2
:10000000D8100020A51B0008C11B0008C51B000854
:10001000C91B0008CD1B0008D11B00080000000010
:10002000000000000000000000000000D51B0008D8
:10003000D91B000800000000DD1B0008E11B0008C0
:10004000E51B0008E91B0008ED1B0008F11B000878
:10005000F51B0008F91B0008FD1B0008011C000827
:10006000051C0008091C00080D1C0008111C0008D4
:10007000151C0008191C00081D1C0008211C000884
:10008000251C0008291C00082D1C0008311C000834
:10009000351C0008391C00083D1C0008411C0008E4
:1000A000451C0008491C00084D1C0008511C000894
:1000B000551C0008591C00082F070008611C000887
:1000C000651C0008691C00086D1C0008711C0008F4
:1000D000751C0008FD0500087D1C0008811C000837
:1000E000851C0008891C00088D1C00080846114664
:1000F00038B5C84D0A22EA700024072200F025FA1C
:10010000012805D144F6206000F0A4FA012800D0AF
:100110000324204632BD80B50021012000F0FEF905
:10012000BC4900204870BDE8024000F01CBB80B50F
:100130000021002000F0F2F9BDE8014000F0E2BA31
:100140002DE9F041B34E0446B0880027FF280D4644
:10015000904608DD9D220FF2EC210FF2C02000F046
:1001600015FBC046C046B088032814DBB088AA49F6
:100170000A46002330B112F801CB6344401EDBB2C3
:10018000F9D143B908782070B088801EA8F8000023
:10019000481C286000E005273846BDE8F08138B5E6
:1001A0009C4B5D780024F5B9491E99600125DD80DE
:1001B0000870D8881018D8800022D888050005D08B
:1001C00011F8015BAA18401ED2B2F9D1D888411C9F
:1001D000D9805142904A1154012018700121002009
:1001E00000F09CF900E00524204632BD38B5894D69
:1001F0002878002440B1E4220FF248210FF2A02019
:1002000000F0C4FAC046C046684600F0EFF96878CE
:10021000002850D0022836D057D200F05EFA9DF860
:1002200000003A2802D1AC70AC804EE00D2808BF27
:10023000022049D0A0F130020A2A38BF303805D355
:10024000A0F14101062934BF3738FF20A97811B148
:1002500001290ED039E0A988FF2906DCAA886E4959
:10026000000188540120A8702FE06C7000F04AFA59
:100270002BE0A988684A535C18435054A888401C56
:10028000A880AC7021E09DF80000E978884207D191
:1002900000F038FA6C70012000F065FA044614E0B2
:1002A0003A2806D1AC70AC800120687000F015FAD5
:1002B0000BE06C7009E09DF800003A2805D100F0D1
:1002C0000CFAAC80AC7001206870204632BD000092
:1002D00038B5504D6878002448B14FF4A8720FF239
:1002E00064110FF2D81000F051FAC046C0462878C9
:1002F00004286DD8DFE800F068030A575C003A2054
:1003000000F06DF902202870AC7061E0E8880028E8
:1003100044D0A87810B101281DD059E0A868007811
:1003200000090A28B8BF30300FDBA0F10A01062906
:1003300038BF373009D340F2D1120FF2081134A080
:1003400000F024FAC046C0463020C0B200F047F9A1
:100350000120A8703CE0A868007800F00F000A288F
:10036000B8BF30300FDBA0F10A01062938BF3730A3
:1003700009D340F2D1120FF2CC0125A000F006FA09
:10038000C046C0463020C0B200F029F9A868401C21
:10039000A860AC70E888401EE88019E00D2000F0ED
:1003A0001EF903200EE0E87800F019F9042009E0B6
:1003B0002C70032000F0D7F904460021012000F042
:1003C000ADF80020287003E00021012000F0A6F81D
:1003D000204632BD80B50F484178491E012902D818
:1003E000002141700FE0417801291CBF40780228AC
:1003F00009D04FF4D4720FF24C010FF2DC0000F080
:10040000C5F9C046C04600F07DF9002002BD0000DD
:10041000300000000C120020D810002075735263C9
:1004200076427566666572506F73203C204D425F60
:100430005345525F5044555F53495A455F4D4158AB
:1004400000000000433A5C55736572735C41646D53
:10045000696E6973747261746F725C4465736B74F6
:100460006F705CB1EAD7BCB3CCD0F2CAD5BCAF5C7C
:10047000D7D4BCBAB1EAD7BCBFE2D2C6D6B26D6F90
:1004800064627573B3C9B9A65C6D6F646275735CA1
:1004900061736369695C6D6261736369692E63008E
:1004A00065536E645374617465203D3D205354411F
:1004B00054455F54585F49444C450000655263768B
:1004C0005374617465203D3D2053544154455F523F
:1004D000585F49444C4500002820655263765374A8
:1004E000617465203D3D2053544154455F52585F2F
:1004F0005243562029207C7C202820655263765365
:1005000074617465203D3D2053544154455F5258F9
:100510005F574149545F454F4620290038B50C4686
:10052000484D002840F2255114BF012200222846E0
:1005300000F096F92846002CBDE8384040F22771BB
:1005400014BF0122002200F08BB930B50C4687B0F1
:10055000012144F2040000F005FA4FF40070ADF8F8
:10056000000003208DF8020018208DF80300694672
:10057000354D284600F014FA4FF48060ADF80000C5
:10058000694604208DF80300284600F009FA029419
:1005900000200390ADF81000ADF814000C20ADF869
:1005A000120002A9274C204600F002F90121204642
:1005B00000F04CF94FF4C06000F050FA25208DF89F
:1005C000040000208DF805008DF8060001208DF84C
:1005D000070001A800F047FA012007B030BD80B540
:1005E0000146184800F054F9012002BD10B5044638
:1005F000144800F051F92070012010BD38B5114C9D
:1006000040F225552946204600F04AF9012806D136
:100610000E48006880472946204600F060F940F205
:1006200027752946204600F03BF9012808D10848E3
:100630000068804729462046BDE8344000F04FB9A5
:1006400031BD000000380140000801401C000020BE
:100650002000002010B5044684B00121042000F0E1
:100660008AF93B480068ADF8084044F62061B0FBC9
:10067000F1F0401EADF804000020ADF80A00ADF81E
:10068000060001A9334C204600F026FA012120463D
:1006900000F07BFA4FF4C06000F0E0F91E208DF806
:1006A000000000208DF8010003208DF802000120D9
:1006B0008DF80300684600F0D6F90121204600F0CD
:1006C0007AFA00220121204600F057FA0021204644
:1006D00000F049FA012004B010BD10B51D4C0121F5
:1006E000204600F068FA01220121204600F045FA78
:1006F0000021204600F053FA2046BDE810400121B9
:1007000000F031BA10B5134C0121204600F053FA25
:1007100000220121204600F030FA0021204600F09E
:100720003EFA2046BDE81040002100F01CBA10B58A
:10073000084C0121204600F034FA40B10121204646
:1007400000F039FA04480068BDE81040004710BDC9
:10075000D000002000080040240000200A490020AA
:100760004870012070470849087001224A70012032
:100770007047054A5378002123B111780170002099
:1007800050700121084670472612002000B583B042
:100790000091019202906A4604491820ABBE0028DD
:1007A00001D100F021FA03B000BD00BF101002001B
:1007B00030B5044685B00D46208A4CF6FF710840DE
:1007C000E988084320824EF6F311A0890840A988E1
:1007D00008432989084369890843A0814FF6FF41EE
:1007E000A08A0840A9890843A082684600F080F8E2
:1007F0001548296884420CBF039802981922504377
:10080000A28912044CBF49008900B0FBF1F16420B9
:10081000B1FBF0F000010209642303FB1211A2896D
:10082000120406D5C9003231B1FBF3F101F0070122
:1008300005E009013231B1FBF3F101F00F0108438A
:10084000208105B030BD00000038014000298189B9
:1008500012BF41F400514DF6FF7211408181704783
:100860000B065B0F4FF0010C01F01F01012B0CFA7E
:1008700001F108BF0C3003D0022B0CBF1030143034
:10088000002A026814BF114322EA01010160704787
:10089000C1F30801818070478088C0F30800704769
:1008A00030B40A46130600215B0F012402F01F0535
:1008B000012B04FA05F508BF838903D0022B0CBF76
:1008C000038A838A120A008804FA02F22B4010403D
:1008D000002B30BC1CBF00280121084670470122B4
:1008E000090A02FA01F189B2C94301807047000088
:1008F00010B425490A6802F00C02082A0FD10A68D0
:100900000B68C2F38342921CDB0358BF1F4B04D514
:100910000B689B034CBF1D4B1D4B5A4300E01C4A08
:1009200002600B681B4A0468C3F30313D35CDC400A
:1009300044600B684468C3F30223D35CDC408460EA
:100940000B684468C3F3C223D35CDC40C46009680D
:10095000C368C1F381311144097CB3FBF1F101613A
:1009600010BC70470C4A0029116814BF084321EAE3
:10097000000010607047094A0029116814BF08433D
:1009800021EA0000106070470410024000093D0099
:1009900000127A00AC000020181002401C10024027
:1009A0002DE9F041CC78002204F00F03E40644BFA7
:1009B0008C7823430C88E5B21DB3D0F800C0012524
:1009C0000F2605FA02F707EA0408B84514D14FEAE2
:1009D000820E06FA0EF82CEA080C03FA0EFE4EEA16
:1009E0000C0C91F803E0BEF1280F08BF476103D05B
:1009F000BEF1480F08BF0761521C082AE1D3C0F8B6
:100A000000C0FF2C27DDD0F804C0002201250F26EE
:100A100002F1080705FA07F707EA0408B84515D1F7
:100A20004FEA820E06FA0EF82CEA080C03FA0EFEC4
:100A30004EEA0C0C91F803E0BEF1280F08BF4761A5
:100A400091F803E0BEF1480F08BF0761521C082A65
:100A5000DED3C0F804C0BDE8F081000019490843A6
:100A600019490860704770B40378C4781A460121A8
:100A7000ECB1154B1B68447803F4E063C3F5E06305
:100A80001B0AC3F10405AC4085780F26DE4006EA58
:100A9000050323430D4C1B01A354007800F01F02F3
:100AA00091400B4A400942F8201070BC704703F097
:100AB0001F0001FA00F00749520941F8220070BCFA
:100AC000704700000000FA050CED00E000E400E0D3
:100AD00000E100E080E100E010B4DFF8E4200388EA
:100AE00090421CBFDFF8F040A0420ED0B0F1804F22
:100AF0001CBFDFF8D040A04207D0DFF8CC40A042B6
:100B00001CBFDFF8C840A04204D14FF68F742340C9
:100B10004C882343DFF8B840A0421CBFDFF8B44044
:100B2000A04204D04FF6FF442340CC8823430380E7
:100B300090428B8883851CBFDFF89C2090420B88F5
:100B400003850AD0DFF8942090421FBFDFF8902081
:100B50009042DFF89020904201D1097A018601216C
:100B6000818210BC70470029018812BF41F0010149
:100B70004FF6FE72114001807047002A828914BF2F
:100B8000114322EA0101818170470029018812BFC7
:100B900041F080014FF67F721140018070478184DF
:100BA0007047038A8089002208400B421CBF00283E
:100BB00001221046704700BFC94301827047000000
:100BC000002C01400004004000080040000C0040E0
:100BD000001000400014004000340140004001407B
:100BE0000044014000480140012000F001B800002D
:100BF00080B5C046C046024A11001820ABBEFBE7D4
:100C00002600020038B50846144608222146FFF7A0
:100C10009CFC002501280CD1B4F5964F8FBF2320F2
:100C200085486100B0FBF1F080B2FFF713FD0128A9
:100C300000D00325284632BD80B580490020487089
:100C400000210120FFF76AFCBDE80140FFF745BD28
:100C500080B500210020FFF761FCBDE80140FFF7EF
:100C600051BD2DE9F843754D0446A8880027FF289B
:100C70008846914608DD9D220FF2F0110FF2C41054
:100C8000FFF784FDC046C046A88804280FDB6C4EE1
:100C9000A988304600F064F948B930782070A888F7
:100CA000C01EA9F80000701CC8F8000000E005276D
:100CB0003846BDE8F28338B5604D6B780024012BCF
:100CC00026D14B1EAB60012169801870688810180E
:100CD00068801846698800F043F969884A1C6A8070
:100CE000574A5054000A69884B1C6B8050540120AD
:100CF0002870A8680078FFF772FCA868401CA860FC
:100D000001216888401E68800020FFF707FC00E092
:100D10000524204632BD000010B5484C82B0207832
:100D200040B1EB220FF244110FF29810FFF72EFDA5
:100D3000C046C0466846FFF759FC607803281ED8B5
:100D4000DFE800F01B020E1B0020A0803C4AA088B8
:100D5000411CA1809DF800101154022060700CE02D
:100D6000A088FF2807DCA088354A411CA1809DF897
:100D70000010115401E003206070FFF7AEFC00206A
:100D800016BD38B52D4D68780024012809D04FF4E0
:100D900093720FF2D8010FF24810FFF7F7FCC0462C
:100DA000C046287810B1012805D01BE000210120A1
:100DB000FFF7B4FB16E0688850B1A8680078FFF729
:100DC0000EFCA868401CA8606888401E688009E086
:100DD0000320FFF7C8FC044600210120FFF79EFB1B
:100DE00000202870204632BD38B5144D68780024A4
:100DF00028B1022802D0032817D004E00120FFF711
:100E0000B2FC044611E0687800281FBF6878022809
:100E10006878032809D04FF4B0720FF250010FF236
:100E2000DC00FFF7B3FCC046C046FFF76BFC0120B7
:100E30006870204632BD0000A07F17001812002005
:100E4000D8100020757352637642756666657250DD
:100E50006F73203C204D425F5345525F5044555FB5
:100E600053495A455F4D415800000000433A5C55D4
:100E7000736572735C41646D696E697374726174D9
:100E80006F725C4465736B746F705CB1EAD7BCB30E
:100E9000CCD0F2CAD5BCAF5CD7D4BCBAB1EAD7BC0F
:100EA000BFE2D2C6D6B26D6F64627573B3C9B9A61C
:100EB0005C6D6F646275735C7274755C6D62727484
:100EC000752E630065536E645374617465203D3DF7
:100ED0002053544154455F54585F49444C450000E9
:100EE000655263765374617465203D3D20535441CF
:100EF00054455F52585F49444C45000028206552D4
:100F000063765374617465203D3D205354415445CC
:100F10005F52585F494E49542029207C7C2028206C
:100F2000655263765374617465203D3D205354418E
:100F300054455F52585F5243562029207C7C20281C
:100F400020655263765374617465203D3D2053548F
:100F50004154455F52585F4552524F52202900007C
:100F600070B4FF22FF230C000BD00FF220140FF2FD
:100F70001C0510F8016B5E40AB5D5340A25D491E3D
:100F8000F7D170BC43EA02207047000000C18140E5
:100F900001C0804101C0804100C1814001C0804149
:100FA00000C1814000C1814001C0804101C0804139
:100FB00000C1814000C1814001C0804100C1814029
:100FC00001C0804101C0804100C1814001C0804119
:100FD00000C1814000C1814001C0804100C1814009
:100FE00001C0804101C0804100C1814000C18140F9
:100FF00001C0804101C0804100C1814001C08041E9
:1010000000C1814000C1814001C0804101C08041D8
:1010100000C1814000C1814001C0804100C18140C8
:1010200001C0804101C0804100C1814000C18140B8
:1010300001C0804101C0804100C1814001C08041A8
:1010400000C1814000C1814001C0804100C1814098
:1010500001C0804101C0804100C1814001C0804188
:1010600000C1814000C1814001C0804101C0804178
:1010700000C1814000C1814001C0804100C1814068
:1010800001C0804101C0804100C1814000C0C10158
:10109000C30302C2C60607C705C5C404CC0C0DCDE8
:1010A0000FCFCE0E0ACACB0BC90908C8D81819D958
:1010B0001BDBDA1A1EDEDF1FDD1D1CDC14D4D51588
:1010C000D71716D6D21213D311D1D010F03031F178
:1010D00033F3F23236F6F737F53534F43CFCFD3DA8
:1010E000FF3F3EFEFA3A3BFB39F9F83828E8E92998
:1010F000EB2B2AEAEE2E2FEF2DEDEC2CE42425E548
:1011000027E7E62622E2E323E12120E0A06061A1B7
:1011100063A3A26266A6A767A56564A46CACAD6D67
:10112000AF6F6EAEAA6A6BAB69A9A86878B8B979D7
:10113000BB7B7ABABE7E7FBF7DBDBC7CB47475B507
:1011400077B7B67672B2B373B17170B050909151F7
:101150009353529296565797559594549C5C5D9D27
:101160005F9F9E5E5A9A9B5B995958988848498917
:101170004B8B8A4A4E8E8F4F8D4D4C8C44848545C7
:1011800087474686824243834181804038B50C467A
:1011900011461A4623003AD0F82C38DA524D049BF7
:1011A0002C7010B101281ED031E05048E860504842
:1011B00028615048A860504868610020A8614F48E5
:1011C000E8614F4828624F4868622046FFF71AFDE1
:1011D000044620001CD1FFF7C1FA00280EBF0324EB
:1011E0000120687014E04848E86048482861484891
:1011F000A860484868610020A8614748E8614748FE
:101200002862474868622046FEF770FFE0E7022444
:10121000204632BD38B5344D68780024012803D10A
:10122000E86880476C7000E00624204632BDF8B5BF
:101230002D4C607808B10620F2BD6846FFF799FA98
:1012400001284FD19DF80000012802D0022812D0B9
:1012500048E06369221D04F12801A01C984700287A
:1012600040D1A0782278904218BF00283AD10220BD
:10127000FFF779FA36E0A06A2A4B0678E67001217A
:1012800000221D462F78DFB1B74206D103EBC20220
:10129000211D52689047014612E02F7A521C7FB1FF
:1012A000B742F3D02F7C521C57B1B742EED02F7EFD
:1012B000521C2FB1B742E9D0521C2035102AE1DB75
:1012C000A07878B1080008D0E078A26A40F08000E9
:1012D0001070A06A41700220A080A288A16A2078C4
:1012E000A36898470020F2BD00000020390C0008D8
:1012F000510C0008B70C0008630C0008190D000819
:10130000830D0008E90D0008170100082F010008EF
:101310009F01000841010008ED010008D10200080A
:10132000D50300082C00002080B55C480A214181CB
:101330004180002000904FF4165300220121FFF756
:1013400025FFFFF767FFFFF772FFFCE710B40023EC
:101350000C0013D05418062C10DA14000FD04F4C88
:1013600004EB4101891E0C88240A00F8014B521E2F
:1013700031F8024B00F8014BF5D100E0012310BC1D
:101380001846704770B40D0027D05518062D24DA82
:10139000491E13B1012B0FD020E094B2F4B13F4CA1
:1013A00004EB4104491C25892D0A00F8015B521EFB
:1013B000248900F8014BF0E794B27CB1374C10F867
:1013C000015B04EB41042D022581491C258910F89D
:1013D000016B35432581521EEEE7012370BC184690
:1013E00070472DE9F04104460025080016462BD031
:1013F0005018122828DA4F1E5BB1012B1BD024E0B5
:10140000D2B2B9B2264800F076F888F80000083E5B
:101410000837012E19DBA046092E08F10104ACBFE4
:1014200008223246ECE703781D48D2B2B9B200F088
:101430003BF8083E0837012E07DB2046441C092EE6
:10144000ACBF08223246EEE701252846BDE8F08110
:101450002DE9F84381460025080016B219D050182E
:10146000122816DA4F1EDFF83C8008E0D2B2B9B27B
:10147000404600F040F8083E207036B20837012E92
:1014800008DB4C46092E04F10109ACBF08223246A4
:10149000ECE701252846BDE8F2830000FC1100209E
:1014A000FA11002024120020F8B51646092E044631
:1014B0000D461F4608DB38220FF284010FF2700040
:1014C000FFF764F9C046C046E8082118225C4B7853
:1014D00042EA03220123B3405B1EA5EBC006B340E2
:1014E0009A43A5EBC00307FA03F31A4392B22254BE
:1014F000100A4870F1BDCB08A1EBC30110F803C07E
:10150000184440784CEA0020C84001219140491E0F
:101510000840C0B2704748B1012802D0072802D065
:1015200003E0022070470620704704207047000047
:1015300075634E42697473203C3D20380000000002
:10154000433A5C55736572735C41646D696E69738F
:10155000747261746F725C4465736B746F705CB1AC
:10156000EAD7BCB3CCD0F2CAD5BCAF5CD7D4BCBA36
:10157000B1EAD7BCBFE2D2C6D6B26D6F64627573F2
:10158000B3C9B9A65C6D6F646275735C66756E6392
:1015900074696F6E735C6D627574696C732E630031
:1015A00038B509880024052910D14178857845EAA5
:1015B0000121491C0123012289B2C01CFFF7E2FE70
:1015C000010004D0FFF7A7FF044600E003242046F3
:1015D00032BD70B50C460025218806291EDB4178F6
:1015E0008278037942EA0121C278491C53EA022237
:1015F000437913D0792A11DA5600F6B2B3420DD1ED
:10160000012389B2801DFFF7BDFE010003D0FFF763
:1016100082FF054603E00520208000E003252846E0
:1016200070BD70B50C4600252188052924D141786C
:101630008278067942EA0121491CEEB17E2E1BDA3E
:1016400025800322027000232288521C228089B246
:1016500072004270801C2288521C22803246FFF7A2
:1016600091FE010003D0FFF756FF054605E02088F4
:1016700000EB4600208000E00325284670BD2DE9E0
:10168000F0410D460446288800260A2844DB60788D
:10169000A178227A41EA002000F10108E07821795E
:1016A00041EA00276079A17941EA0020411CE079F4
:1016B00042EA0022607A77B37E2F2CDA5AB37A2A74
:1016C00029DA5300834226D1012389B204F10A00AA
:1016D000FFF758FE010018D12E801720207000233C
:1016E0002888401C28803A46780060701FFA88F1EC
:1016F0002888401C2880A01CFFF744FE010004D16C
:10170000288800EB4700288006E0010004D0FFF79E
:1017100002FF064600E003263046BDE8F08170B5C2
:101720000C4600252188052933D141788278037938
:1017300042EA0121C278491C53EA022229D0B2F5BB
:10174000FA6F26DA25800123037023885B1C23802F
:1017500012F0070305D0930802EB5373DB085E1CFD
:1017600003E0930802EB5373DE08467089B22388C6
:101770005B1C2380801C0023FFF733FE010003D095
:10178000FFF7C9FE054605E02088F6B23018208034
:1017900000E00325284670BD10B582B009880024FA
:1017A000052921D14178827842EA01210279491C38
:1017B000D2B9C278FF2A18BF002A15D18DF801408E
:1017C00089B2C078FF2806BF01208DF800008DF88F
:1017D0000040012301226846FFF703FE010004D008
:1017E000FFF799FE044600E00324204616BD70B5BD
:1017F0000C460025218806292BDB41788278037965
:1018000042EA0121C278491C43EA0222437912F0DC
:10181000070605D0960802EB5676F608761C03E01C
:10182000960802EB5676F6089AB1B2F5F66F10DC20
:10183000F6B29E420DD1012389B2801DFFF7D1FD82
:10184000010003D0FFF767FE054603E00520208076
:1018500000E00325284670BD3548364A82B001684D
:1018600041F001010160416811404160324A016864
:1018700011400160016821F480210160416821F478
:10188000FE0141604FF41F01816000210191009130
:10189000016841F480310160016801F40031009178
:1018A0000199491C0191009919B90199B1F5A06FED
:1018B000F2D10168490C01F0010100910099012960
:1018C00030D11E490A6842F010020A600A68920884
:1018D00092000A600A6842F002020A6041684160B0
:1018E00041684160416841F480614160416821F490
:1018F0007C114160416841F4E8114160016841F0A8
:101900008071016001688901FCD5416889088900FE
:101910004160416841F002014160416801F00C0101
:101920000829FAD14FF000600549086002B07047FD
:10193000001002400000FFF8FFFFF6FE002002400A
:1019400008ED00E070B50C4600252188052932D14C
:1019500041788278037942EA0121C278491C53EA2E
:10196000022228D0B2F5FA6F25DA2580022303700F
:1019700023885B1C238012F0070305D0930802EB39
:101980005373DB085E1C03E0930802EB5373DE081D
:10199000467089B223885B1C2380801CFFF758FDAA
:1019A000010003D0FFF7B7FD054605E02088F6B239
:1019B0003018208000E00325284670BD62B38B07F5
:1019C00008D0521E11F8013B00F8013B00F02480C2
:1019D0008B07F6D1830740F0208000BF103A07D371
:1019E00030B4B1E83810103AA0E83810F9D230BC61
:1019F000530724BFB1E80810A0E8081044BF51F80D
:101A0000043B40F8043BD20724BF31F8022B20F8F6
:101A1000022B44BF0B7803707047083A07D3B1E834
:101A20000810083A40F8043B40F804CBF7D25307BB
:101A3000E4E770B50C4600252188052926D14178B8
:101A40008278037942EA0121C278491C53EA0226CE
:101A50001CD07D2E1ADA25800422027089B22288D9
:101A6000521C228072004270801C2288521C2280EC
:101A70003246FFF76BFC010003D0FFF74CFD054633
:101A800005E0208800EB4600208000E00325284682
:101A900070BD19E050F8041BCB0744BFA9F1010346
:101AA0005918121F0023042A41F8043BF9D25FEAB7
:101AB000827C0B4604D54FF0000CA1F800C09B1CA3
:101AC000D10744BF0021197050F8042B002AE1D13E
:101AD000704730B5016842688468014401EB5203E5
:101AE000D20748BF4C44994201D10C3030BD11F9A6
:101AF000012B11F8015B002A04F8015B02D5521C8E
:101B0000F9D1F0E7521EF4D5EDE7000010B5074912
:101B100079441831064C7C44163404E00A68081DE8
:101B2000114488470146A142F8D110BD08000000C9
:101B3000240000005FFFFFFF50010000D8100020CC
:101B4000000000008FFFFFFF48010000F0000000D0
:101B50000000002038B50C4605490D8C2A46401C73
:101B6000FFF72CFF681C2080002032BD0000000021
:101B7000D811002000F00BF8002801D0FFF7C6FFB5
:101B80000020C046C046FFF7CFFB00F002F801205E
:101B9000704700F001B8000007463846FFF728F804
:101BA000FBE700000148804701480047591800083A
:101BB000B51B0008C046C046C046C046FFF7DAFF66
:101BC000FFF7FEBFFFF7FEBFFFF7FEBFFFF7FEBF49
:101BD000FFF7FEBFFFF7FEBFFFF7FEBFFFF7FEBF39
:101BE000FFF7FEBFFFF7FEBFFFF7FEBFFFF7FEBF29
:101BF000FFF7FEBFFFF7FEBFFFF7FEBFFFF7FEBF19
:101C0000FFF7FEBFFFF7FEBFFFF7FEBFFFF7FEBF08
:101C1000FFF7FEBFFFF7FEBFFFF7FEBFFFF7FEBFF8
:101C2000FFF7FEBFFFF7FEBFFFF7FEBFFFF7FEBFE8
:101C3000FFF7FEBFFFF7FEBFFFF7FEBFFFF7FEBFD8
:101C4000FFF7FEBFFFF7FEBFFFF7FEBFFFF7FEBFC8
:101C5000FFF7FEBFFFF7FEBFFFF7FEBFFEF767BD52
:101C6000FFF7FEBFFFF7FEBFFFF7FEBFFFF7FEBFA8
:101C7000FFF7FEBFFFF7FEBFFEF7C0BCFFF7FEBFDA
:101C8000FFF7FEBFFFF7FEBFFFF7FEBFFFF7FEBF88
:101C9000010002D6000011FD0004551B000804FDE0
:101CA0000004331A000803FD00042316000810FD89
:101CB0000004D315000806FD0004A115000817FD57
:101CC00000047F16000801FD00041F17000805FD31
:101CD0000004991700080FFD0004EF17000802FD2B
:101CE000000345190008CC000F01020304010203A0
:101CF000040607080902040608F8000B01020304A1
:081D00000607080900A24A04CD
:0400000508001BB51F
:00000001FF
