:020000040800F2
:1000000090020020A1010008A5010008A701000836
:10001000A9010008AB010008AD01000800000000C4
:10002000000000000000000000000000AF01000818
:10003000B101000800000000B3010008B50100088C
:1000400059090008B7010008B70100081727000880
:10005000B7010008B7010008CD270008B701000864
:10006000B7010008B7010008B7010008B701000890
:10007000B7010008B7010008B7010008B701000880
:10008000B7010008B7010008B7010008B701000870
:10009000B7010008B7010008B7010008B701000860
:1000A000B7010008B7010008B7010008B701000850
:1000B000B7010008B9090008B7010008B701000836
:1000C000B7010008B7010008B7010008B701000830
:1000D000B7010008B7010008B7010008B701000820
:1000E000B7010008B7010008B701000800F002F8E6
:1000F00000F044F80AA090E8000C82448344AAF17E
:100100000107DA4501D100F039F8AFF2090EBAE87B
:100110000F0013F0010F18BFFB1A43F0010318473B
:100120009C420000BC420000103A24BF78C878C14D
:10013000FAD8520724BF30C830C144BF04680C60ED
:10014000704700000023002400250026103A28BF35
:1001500078C1FBD8520728BF30C148BF0B60704739
:10016000642902F0F584782902F02C85002070477C
:100170001FB503F08EFA1FBD10B510BD02F0D3FD00
:100180001146FFF7F5FF00F025F802F0F1FD03B48A
:10019000FFF7F2FF03BC00F0C7FA000030BF000019
:1001A00008480047FEE7FEE7FEE7FEE7FEE7FEE75A
:1001B000FEE7FEE7FEE7FEE703480449024A044B78
:1001C00070470000ED000008900000209002002021
:1001D0009000002070B588B0062000F040FA48205A
:1001E00000F0D0F84FF41651482000F0AAFA00F0C1
:1001F00013FB00F00FFE02F02DFB444A022304A97A
:10020000434802F003FC002141F2941000F090FCFE
:100210004FF478403F4908803FA232213C2001F052
:100220007DFF40A246213C2001F078FF40A25A21E8
:100230003C2001F073FF42A26E213C2001F06EFFD2
:100240001F203449088041A282213C2001F066FF32
:1002500042A296213C2001F061FF56E0BDF810401B
:10026000102300930423224682219C2001F0D4FE17
:1002700022463FA105A802F01FFC05AA6E21C82056
:1002800001F071FF204603F056F9064602F068FFC0
:10029000CDE9020137A00CC8029802F007FECDE9B3
:1002A000000102F093FD0546284603F0FFF884B2F2
:1002B000102300930123224696219C2001F0ACFEDE
:1002C000204603F038F90646294603F0E9F90546C9
:1002D0002A49284603F034F90546284603F0E6F893
:1002E000064610230093032302469621AC2001F01A
:1002F00093FE2348006808B9012000E0002020494F
:1003000008604FF0FA0000F054F8A7E74C240140D1
:10031000080002400A0000204D696E692053544DC8
:100320003332000041444320544553540000000040
:1003300041544F4D40414C49454E54454B000000FF
:10034000323031302F31322F333000004144435F9F
:100350004348305F56414C3A000000004144435F3F
:100360004348305F564F4C3A302E30303056000004
:10037000256400006666666666664A3F00007A4449
:10038000A00121424FF0E021096921F004014FF062
:10039000E02211610146C21700EB5272D2101F4BCE
:1003A0001A70194609784FF47A7251439A1C1180D9
:1003B00070471A4A921C128842434FF0E0235A6158
:1003C00000229A6101221A6100BF4FF0E0221169F8
:1003D00011F0010F02D011F4803FF6D000224FF04F
:1003E000E0231A619A6170470C4A127842434FF039
:1003F000E0235A6100229A6101221A6100BF4FF086
:10040000E022116911F0010F02D011F4803FF6D003
:1004100000224FF0E0231A619A617047000000202B
:10042000AF4A0A400243AF4B1A607047072323EAE2
:1004300000021202AC4B19684FF6FF0301EA0301F8
:10044000AA4B41EA030141EA02014FF0E023C3F85D
:100450000C1D70472DE9F04704460D4616461F4611
:100460003046F11706EB91714FEAA109F11706EB3F
:1004700091718910A6EB810101F0FF0A042101EBC3
:10048000CA0000F0FF0A3846FFF7D0FFC7F10400AA
:1004900004FA00F80F203841284040EA080808F024
:1004A0000F08202E0CDA924800684FF0010101FA83
:1004B00006F140EA01004FF0E021C1F800010DE033
:1004C0008C480168A6F120024FF0010000FA02F00A
:1004D00041EA00014FF0E020C0F80411864850F8CE
:1004E000290008FA0AF10143834840F82910BDE8C1
:1004F000F08770B50D46CE1701EB9676B310CE1788
:1005000001EB9676B610A1EB8606B606340E7B4D4F
:10051000AD6945F00105794EB5614FEAB63555F83C
:1005200023600F25A540AE43754D45F8236055F86F
:10053000235000FA04F63543714E46F82350714DAE
:100540002E684FF0010505FA01F546EA05066E4DE5
:10055000C5F8006412F0010F0AD06C4D2E684FF000
:10056000010505FA01F546EA0506674DC5F80C6474
:1005700012F0020F0AD0664D2E684FF0010505FA01
:1005800001F546EA0506604DC5F8086470BD00B582
:1005900000205A490861C860142048610020886121
:1005A000C8610846006840F00100086008464068DD
:1005B0005849084051494860084600685649084073
:1005C0004E4908600846006820F48020086008460C
:1005D000406820F4FE0048600020886000214FF051
:1005E0000060FFF71DFF00BD10B54C48006840F0EB
:1005F00004004FF0E021C1F8100D4048C06940F000
:1006000080503E49C8614648406840F48070444983
:1006100048600846006840F004000860084600682A
:1006200040F002000860FFF7B9FD10BD2F48001D23
:100630002D49086070470146084649062F4A9269CD
:1006400042F001022D4B9A612F4A526822F0E0627B
:100650002D4B5A601A4652680A435A60704730B5AB
:1006600004460025FFF793FF2448006840F48030DB
:100670002249086000BF21480068400CFBD04FF4BD
:1006800080601E494860A01EC4B20846406840EA27
:10069000844048600846406840F480304860214803
:1006A000006840F032001F4908601448006840F0BC
:1006B00080701249086000BF10480068400EFBD0EF
:1006C0000E48406840F002000C49486005E00B48C5
:1006D0004068C0F3870505F00305022DF7D130BD52
:1006E00080FFFF1F08ED00E00CED00E00000FA05C0
:1006F00000E100E004E100E000E400E0001002405E
:100700000800014000040140000001400C040140C9
:10071000080401400000FFF8FFFFF6FE10ED00E0C6
:100720000070004000200240014600BF704700BF3B
:10073000314A128812F0400FFAD0C2B22F4B1A8001
:1007400070472DE9F05F04460D46280102F0F3FEE4
:1007500081462B4904FB01F002F0EDFE824649463A
:1007600002F0B2FD0646304602F0A0FE87B23846DF
:1007700002F0E1FE8346314602F092FF82464FF0DE
:10078000834102F0DDFE814602F090FE80463F018B
:1007900007EB080087B21B48806940F00400194944
:1007A00088610846806940F4804088611648006886
:1007B00020F47F601549C1F804080846D0F8040801
:1007C00040F40B60C1F804080E48C06840F4804053
:1007D0000C49C8600846C06820F48040C8600C48D6
:1007E000A0F808780B48008842F20C0140EA0100AA
:1007F00008490880BDE8F09F0038014004380140F6
:1008000040420F0000100240040801400000014077
:10081000003001400C3801401B48806940F0040062
:10082000194988610846806940F0200088611748AE
:10083000006820F00F001649C1F804080846D0F8F7
:10084000040840F00300C1F804080846D0F80C087A
:1008500040F48070C1F80C080E48D0F8000420F471
:1008600070600C49C1F800040846D0F8000440F458
:100870004070C1F800040846D0F80C0440F00400B1
:10088000C1F80C0470470000001002400408014049
:10089000000001400010014045F255523D4B1A60E6
:1008A0001A46506091604AF6AA221A604CF6CC4271
:1008B0001A6070474AF6AA2036490860704770B53A
:1008C00004460D4616463448C06940F4006032497B
:1008D000C8613249097804EA01003049087030489B
:1008E000006840EAC6102F49C1F8040C0846D0F849
:1008F000040C40F40070C1F8040C294800684FF65D
:10090000807100EA01002749C1F8040C0846D0F8BC
:10091000040C40EA0500C1F8040C234800681F4994
:10092000097841F0800140EA01001E49C1F8000C3D
:100930004FF002034FF000024FF003011846FFF79B
:1009400089FD70BD1849096800F07F0241EA020183
:10095000144AC2F8001C704710B51148006800F036
:100960007F031048D0F8000C00F07F049C4203DAAB
:100970000A480078FFF7E6FF00200C4908600C48A1
:10098000D0F8880108B9012000E00020094908607A
:1009900010BD0000003000400010024008000020A0
:1009A000042C004000200040002C0040082C004097
:1009B00000802242888122427848008810F0010F8E
:1009C00007D07748006808B9012000E0002074498A
:1009D00008607248008820F001004FF08041A1F8C3
:1009E0001004704770B504460D466E48C06940F06B
:1009F00002006C49C8616C4804804FF08040A0F848
:100A00002854B0F80C0440F001004FF08041A1F8E8
:100A10000C040846B0F80C0440F04000A1F80C04A7
:100A20000846B0F8000440F00100A1F800044FF0BF
:100A300002034FF01D024FF003014FF00100FFF7DA
:100A400009FD70BD574AD26942F00202554BDA6186
:100A5000564A126822F00F02554BC3F804281A4672
:100A6000D2F8042842F00402C3F804281A46D2F847
:100A7000002822F07042C3F800281A46D2F8002855
:100A800042F03042C3F800281A46D2F80C2842F04F
:100A90008002C3F80C284FF08042A2F82C04A2F880
:100AA0002814B2F8182442F4E0424FF08043A3F82F
:100AB00018241A46B2F8182442F40062A3F8182445
:100AC0001A46B2F8202442F010023A4B1A804FF432
:100AD00000424FF08043A3F800244FF08042B2F868
:100AE000002442F00102344B1A80704770B504466E
:100AF0000D462C48C06940F001002A49C8618804AD
:100B000084850585808940F0010089048881084634
:100B1000808940F0400088810846008840F001004C
:100B2000088002231D2204210120FFF793FC70BDE1
:100B30001C4AD26942F001021A4BDA611F4A12685C
:100B400022F0F0021A4BC3F800281A46D2F8002807
:100B500042F0B002C3F800281A46D2F80C2842F03E
:100B60000202C3F80C284FF0804290851185128B49
:100B700042F440524FF080431A831A46128B42F4DB
:100B800000621A831A46128C42F010021A841A4626
:100B90001087128842F001021A807047100400404A
:100BA00088812242001002402C04004004080140C9
:100BB0000000014020040040000400400008014003
:100BC0004FF48071FF4A516149005161FE4908604C
:100BD0004FF08001516111614FF400711161704754
:100BE00010B504460B462046FFF7EAFF4FF480702D
:100BF000F449086140004861F34803604FF0800009
:100C0000486108614FF40070086110BD70B504467A
:100C10002046FFF7D5FF4FF08830EC490860EC49DB
:100C2000C1F8040C4FF6FF70E74908604FF480707C
:100C3000E44908614FF4007048614FF0400048619A
:100C40004FF00500FFF7D0FB4020DE490861E04887
:100C5000D0F8080C85B2481508614FF03330DB49F5
:100C6000086001F1040108604FF6FF70D649086082
:100C7000284670BD00B52220FFF7A2FF00BD4FF44B
:100C80008071D04A116149005161CF4908604FF02D
:100C90008001516111614FF400711161704730B5ED
:100CA000014601F01F04C1F34513CA0AE50205EB32
:100CB00043151544A8B230BD70B504460D46F02C5E
:100CC00002DAB5F5A07F01DB002070BD2946204681
:100CD00002F05EF82220FFF773FF4FF08830BB4927
:100CE0000860BB49C1F8040C4FF6FF70B6490860B4
:100CF0004FF48070B34908614FF4007048614FF0C1
:100D00004000486108614FF00200FFF76DFB402092
:100D1000AC4948610220FFF767FB4020A949086100
:100D2000AB48D0F8080C86B2481508614FF0333054
:100D3000A649086001F1040108604FF6FF70A4495C
:100D4000C1F80C0CA3480088A0F58A41353911D0B0
:100D5000A0480088A0F58A4131390BD09D48008811
:100D6000A0F50941893905D09A480088A0F5354198
:100D7000053901D13046A8E73046FFF790FFA4E7D8
:100D800000B540F273110720FFF72AFF00BD00B540
:100D900000210720FFF724FF00BD70B504460D4673
:100DA0002946204601F0F4FF2220FFF709FF4FF407
:100DB0008070844908614000486187480088824902
:100DC00008604FF080007F49486108614FF400706F
:100DD000086170BD70B5054600240021084601F089
:100DE000D7FFFFF747FF00BF10E04FF48070754951
:100DF000086140004861744805604FF08000486118
:100E000008614FF40070086104F10104B4F5963FE5
:100E1000EBD370BD10B57148806940F008006F4990
:100E200088610846806940F0100088610846806942
:100E300040F0010088610120FFF7FDFB6148406838
:100E40006FF30B005F4948600846406840F2333159
:100E500008435C4948600846006820F07F4008600D
:100E60000846006840F04C5008600846C06840F4EE
:100E7000F860C8604FF03330594908605449C1F8F0
:100E8000000C4FF6FF70504908604FF03200FFF73A
:100E900090FA01210020FFF7A3FE3220FFF789FA24
:100EA0000020FFF7B3FE4B490880084601884DA09B
:100EB00001F0F2FD47480088A0F51341253905D01F
:100EC00044480088A0F51341283979D11021E72042
:100ED000FFF786FE01210020FFF782FE4FF48071AC
:100EE0000120FFF77DFE4FF4E0610220FFF778FE5E
:100EF00041F230010320FFF773FE00210420FFF7C9
:100F00006FFE40F207210820FFF76AFE002109204A
:100F1000FFF766FE00210A20FFF762FE01210C2088
:100F2000FFF75EFE00210D20FFF75AFE00210F2083
:100F3000FFF756FE00211020FFF752FE0721112077
:100F4000FFF74EFE00211220FFF74AFE002113207A
:100F5000FFF746FE3220FFF72CFA41F290511020A5
:100F6000FFF73EFE40F227211120FFF739FE322025
:100F7000FFF71FFA9C211220FFF732FE3220FFF705
:100F800018FA4FF4C8511320FFF72AFE2321292015
:100F9000FFF726FE0E212B20FFF722FE3220FFF75F
:100FA00008FA00212020FFF71BFE40F23F1121200C
:100FB000FFF716FE3220FFF7FCF90721302017E07B
:100FC000A2E00000001001400C0C0140000C0140A8
:100FD000000001400E0000200A0000200010024026
:100FE000040C0140204C43442049443A25780A002F
:100FF000FFF7F6FD40F207713120FFF7F1FD062102
:101000003220FFF7EDFD40F204713520FFF7E8FDD7
:1010100041F604713620FFF7E3FD04213720FFF786
:10102000DFFD00213820FFF7DBFD40F2067139209B
:10103000FFF7D6FD40F201713C20FFF7D1FD0F21F3
:101040003D20FFF7CDFD3220FFF7B3F900215020FE
:10105000FFF7C6FDEF215120FFF7C2FD002152200E
:10106000FFF7BEFD40F23F115320FFF7B9FD4FF4EB
:1010700027416020FFF7B4FD01216120FFF7B0FD9B
:1010800000216A20FFF7ACFD00218020FFF7A8FDBA
:1010900000218120FFF7A4FD00218220FFF7A0FDA1
:1010A00000218320FFF79CFD00218420FFF798FD9D
:1010B00000218520FFF794FD10219020FFF790FD7F
:1010C00000219220FFF78CFD03219320FFF788FD7C
:1010D0004FF488719520FFF783FD00219720FFF7DB
:1010E0007FFD00219820FFF77BFD40F233110720A0
:1010F000FFF776FD00212020FFF772FD40F23F113F
:101100002120FFF76DFD7FE2FF480088A0F5134125
:10111000203904D0FC480088B0F5134F7ED100215F
:101120000846FFF75DFD4FF480710120FFF758FD81
:101130004FF4E0610220FFF753FD41F2300103203C
:10114000FFF74EFD00210420FFF74AFD40F2022187
:101150000820FFF745FD00210920FFF741FD002190
:101160000A20FFF73DFD01210C20FFF739FD00218A
:101170000D20FFF735FD00210F20FFF731FD322054
:10118000FFF717F940F201110720FFF729FD322080
:10119000FFF70FF94FF486511020FFF721FD0721CB
:1011A0001120FFF71DFD4FF488711220FFF718FD85
:1011B0004FF430611320FFF713FD00212920FFF7C2
:1011C0000FFD44F210012B20FFF70AFD00215020F3
:1011D000FFF706FDEF215120FFF702FD002152200D
:1011E000FFF7FEFC40F23F115320FFF7F9FC4FF4EC
:1011F0001C516020FFF7F4FC01216120FFF7F0FC97
:1012000000216A20FFF7ECFC00218020FFF7E8FCBA
:1012100000218120FFF7E4FC002100E02DE0822086
:10122000FFF7DEFC00218320FFF7DAFC0021842099
:10123000FFF7D6FC00218520FFF7D2FC102190207B
:10124000FFF7CEFC00219220FFF7CAFC012193207A
:10125000FFF7C6FC4FF488719520FFF7C1FC002111
:101260009720FFF7BDFC00219820FFF7B9FC40F262
:1012700073110720FFF7B4FC45E7A3480088A0F5E9
:10128000A84108397ED14FF480710120FFF7A8FCF6
:101290004FF4E0610220FFF7A3FC41F2300103208C
:1012A000FFF79EFC00210420FFF79AFC40F2072183
:1012B0000820FFF795FC00210920FFF791FC002191
:1012C0000A20FFF78DFC00210C20FFF789FC00218C
:1012D0000D20FFF785FC00210F20FFF781FC142073
:1012E000FFF767F841F2B0611020FFF779FC0121A8
:1012F0001120FFF775FC01211720FFF771FC4FF457
:101300009C711220FFF76CFC4FF400611320FFF773
:1013100067FC09212920FFF763FC09212A20FFF738
:101320005FFC0021A420FFF75BFC00215020FFF7A9
:1013300057FCEF215120FFF753FC00215220FFF70B
:101340004FFC40F23F115320FFF74AFC4FF41C5171
:101350006020FFF745FC01216120FFF741FC0021DF
:101360006A20FFF73DFC00218020FFF739FC0021B7
:101370008120FFF735FC00218220FFF731FC00219E
:10138000832000E023E0FFF72BFC00218420FFF7FF
:1013900027FC00218520FFF723FC13219020FFF775
:1013A0001FFC00219220FFF71BFC03219320FFF775
:1013B00017FC4FF488719520FFF712FC40F273116F
:1013C0000720FFF70DFC3220FEF7F3FF9BE64E48A7
:1013D0000088A0F5A85105397ED10720FFF700FC51
:1013E0003220FEF7E6FF4FF48E711220FFF7F8FB74
:1013F0000121A420FFF7F4FB0F210820FFF7F0FBE9
:1014000008210A20FFF7ECFB08210D20FFF7E8FB7D
:1014100040F207713020FFF7E3FB07213120FFF78F
:10142000DFFB40F203613220FFF7DAFB4FF4E061AB
:101430003320FFF7D5FB40F202213420FFF7D0FB29
:1014400002213520FFF7CCFB41F60F713620FFF764
:10145000C7FB40F207713720FFF7C2FB002138209D
:10146000FFF7BEFB00213920FFF7BAFB40F20771FE
:101470003A20FFF7B5FB00213B20FFF7B1FB072126
:101480003C20FFF7ADFB00213D20FFF7A9FB3220F8
:10149000FEF78FFF01210720FFF7A2FB0121172094
:1014A000FFF79EFB3220FEF784FF4FF4BD51102062
:1014B000FFF796FB40F217211120FFF791FB4FF445
:1014C0008F711220FFF78CFB4FF470611320FFF730
:1014D00087FB00212A2000E097E0FFF781FB0A212B
:1014E0002920FFF77DFB4FF49F711220FFF778FB57
:1014F00000215020FFF774FBEF215120FFF770FB14
:101500000021522002E000000E000020FFF768FBDF
:1015100040F23F115320FFF763FB4FF41C51602052
:10152000FFF75EFB01216120FFF75AFB00216A20D3
:10153000FFF756FB00218020FFF752FB002181209E
:10154000FFF74EFB00218220FFF74AFB002183209A
:10155000FFF746FB00218420FFF742FB0021852096
:10156000FFF73EFB13219020FFF73AFB4FF4407149
:101570009220FFF735FB05219320FFF731FB002177
:101580009520FFF72DFB00219720FFF729FB002175
:101590009820FFF725FB4FF480710120FFF720FB17
:1015A0004FF4E0610220FFF71BFB41F23001032002
:1015B000FFF716FB00210420FFF712FB00210C208F
:1015C000FFF70EFB00210F20FFF70AFB0021202070
:1015D000FFF706FB00212120FFF702FB2121072056
:1015E000FFF7FEFA1420FEF7E4FE61210720FFF763
:1015F000F7FA1420FEF7DDFE40F273110720FFF723
:10160000EFFA1420FEF7D5FE45E3FF480088A0F569
:10161000354105397DD10846FFF7E2FA0021084639
:10162000FFF7DEFA00210846FFF7DAFA0021084644
:10163000FFF7D6FA0121A420FFF7D2FA1420FEF713
:10164000B8FE4FF41C516020FFF7CAFA40F20221A5
:101650000820FFF7C5FA4FF405713020FFF7C0FAF4
:1016600043F215713120FFF7BBFA40F204613220DA
:10167000FFF7B6FA40F616613320FFF7B1FA42F2EF
:1016800011213420FFF7ACFA4FF4A8513520FFF7B1
:10169000A7FA48F207513620FFF7A2FA41F20741B4
:1016A0003720FFF79DFA41F203413820FFF798FAFF
:1016B00020213920FFF794FA1A219020FFF790FAA1
:1016C00000211020FFF78CFA07211120FFF788FA7C
:1016D00000211220FFF784FA00211320FFF780FA7F
:1016E0001420FEF766FE4FF4E6611020FFF778FA4B
:1016F00040F237111120FFF773FA1420FEF759FE5C
:101700004FF4DC711220FFF76BFA1420FEF751FE44
:1017100000E083E04FF470611320FFF761FA80214D
:101720002A20FFF75DFA48212920FFF759FA1420F3
:10173000FEF73FFE4FF480710120FFF751FA4FF49E
:10174000E0610220FFF74CFA41F230210320FFF75D
:1017500047FA40F202210820FFF742FA00210A204E
:10176000FFF73EFA00210C20FFF73AFA00210D2086
:10177000FFF736FA30210E20FFF732FA0021502011
:10178000FFF72EFAEF215120FFF72AFA002152200D
:10179000FFF726FA40F23F115320FFF721FA4FF4EA
:1017A0001C516020FFF71CFA01216120FFF718FA95
:1017B00000216A20FFF714FA11219020FFF710FA98
:1017C0004FF4C0619220FFF70BFA40F202419320E0
:1017D000FFF706FA02219420FFF702FA1420FEF721
:1017E000E8FD01210720FFF7FBF91420FEF7E1FDDA
:1017F00061210720FFF7F4F940F273110720FFF78A
:10180000EFF900212020FFF7EBF900212120FFF75D
:10181000E7F922210020FFF7E3F93CE27A4800884B
:10182000A0F5094189397DD101210020FFF7D8F9C0
:101830004AF6A4010320FFF7D3F900210C20FFF79B
:10184000CFF940F60C010D20FFF7CAF94FF42C51E7
:101850000E20FFF7C5F9B0211E20FFF7C1F942F6AF
:101860003F310120FFF7BCF94FF4C0610220FFF7C0
:10187000B7F900211020FFF7B3F946F270011120EB
:10188000FFF7AEF900210520FFF7AAF90021062095
:10189000FFF7A6F94EF61C711620FFF7A1F90321F8
:1018A0001720FFF79DF940F233210720FFF798F941
:1018B00000210B20FFF794F900210F20FFF790F98A
:1018C00000214120FFF78CF900214220FFF788F921
:1018D00000214820FFF784F940F23F114920FFF72B
:1018E0007FF900214A20FFF77BF900214B20FFF709
:1018F00077F94FF46F414420FFF772F9002145203A
:10190000FFF76EF940F23F114620FFF769F940F208
:1019100007713020FFF764F94FF401713120FFF7B0
:101920005FF900E03DE04FF401713220FFF758F914
:1019300040F202513320FFF753F940F207513420AF
:10194000FFF74EF94FF401713520FFF749F94FF4D5
:1019500001713620FFF744F940F202513720FFF7BA
:101960003FF940F202313A20FFF73AF940F20231F2
:101970003B20FFF735F900212320FFF731F9002143
:101980002420FFF72DF94FF400412520FFF728F917
:1019900000214F20FFF724F900214E20FFF720F906
:1019A00079E119480088A0F58A4131397ED10121B9
:1019B0000020FFF715F90A20FEF7FBFC41F2286131
:1019C0001020FFF70DF90E211220FFF709F940F65C
:1019D00039211320FFF704F90A20FEF7EAFC402121
:1019E0001120FFF7FDF850211520FFF7F9F80A2024
:1019F000FEF7DFFC1E211220FFF7F2F80A20FEF7A7
:101A0000D8FC4FF4B15101E00E0000201020FFF788
:101A1000E7F842F639211320FFF7E2F80A20FEF733
:101A2000C8FC4FF480710120FFF7DAF84FF44071E1
:101A30000220FFF7D5F841F230010320FFF7D0F87C
:101A400040F202210820FFF7CBF808210A20FFF717
:101A5000C7F800213020FFF7C3F840F202413120DF
:101A6000FFF7BEF84FF483713220FFF7B9F840F268
:101A700003513320FFF7B4F84FF482713420FFF79D
:101A8000AFF840F201313520FFF7AAF840F20771B4
:101A90003620FFF7A5F840F205313720FFF7A0F810
:101AA0004FF402713820FFF79BF800E03EE040F66B
:101AB0000B713920FFF794F802214120FFF790F8CD
:101AC0004FF41C516020FFF78BF801216120FFF7D4
:101AD00087F84FF404719020FFF782F84FF4857176
:101AE0009220FFF77DF804219320FFF779F84FF457
:101AF0008071A020FFF774F801210720FFF770F82C
:101B000021210720FFF76CF823210720FFF768F851
:101B100033210720FFF764F840F233110720FFF765
:101B20005FF80021A020FFF75BF8B4E0F9480088D7
:101B3000A0F58A413539F8D130211520FFF750F84A
:101B400010219A20FFF74CF820211120FFF748F8C8
:101B500043F228411020FFF743F802211220FFF73B
:101B60003FF841F238011320FFF73AF82820FEF73A
:101B700020FC12210846FFF733F82820FEF719FC55
:101B800043F220411020FFF72BF843F238011320D5
:101B9000FFF726F84620FEF70CFC00213020FFF767
:101BA0001FF840F202413120FFF71AF840F20731E6
:101BB0003220FFF715F84FF441713320FFF710F88A
:101BC00004213420FFF70CF840F201413520FFF7E3
:101BD00007F840F207713620FFF702F840F20531AE
:101BE0003720FEF7FDFF4FF4C2613820FEF7F8FF03
:101BF0004FF4C2613920FEF7F3FF4FF480710120EA
:101C0000FEF7EEFF4FF440710220FEF7E9FF41F2CC
:101C100030010320FEF7E4FF40F608010820FEF73C
:101C2000DFFF08210A20FEF7DBFF4FF41C51602084
:101C3000FEF7D6FF01216120FEF7D2FF4FF49F711E
:101C40009020FEF7CDFF4FF480719220FEF7C8FF81
:101C50004FF480719320FEF7C3FF4FF44051A02052
:101C6000FEF7BEFF1021A320FEF7BAFF01210720D7
:101C7000FEF7B6FF21210720FEF7B2FF2321072040
:101C8000FEF7AEFF33210720FEF7AAFF40F2331123
:101C90000720FEF7A5FF01209F4908604FF6FF705F
:101CA000FFF798F810BD2DE9F05F04460D46164683
:101CB0001F46DDF828804FF0000B301B401C1FFA38
:101CC00080FBA94620E04946204601F061F8FEF776
:101CD000D1FF4FF0000A11E04FF480708F49086186
:101CE000400048618E48C0F80C8C80204861086133
:101CF000800008610AF101001FFA80FADA45EBDB87
:101D000009F101001FFA80F9B945DCDDBDE8F09F5B
:101D10002DE9FF4F85B004460D461646002004907D
:101D20000390A6EB04080898A0EB0509A3460095CC
:101D3000B8F1000F02DD012001900AE0B8F1000FB8
:101D400002D10020019004E04FF0FF300190C8F173
:101D50000008B9F1000F02DD4FF0010A09E0B9F106
:101D6000000F02D14FF0000A03E04FF0FF3AC9F133
:101D70000009C84502DDCDF8088001E0CDF80890E3
:101D8000002722E0009881B21FFA8BF0FFF705F8D8
:101D9000049840440490039848440390029904989E
:101DA000884205DD04990298081A0490019883443A
:101DB000DDE90210884206DDDDE90210401A0390D9
:101DC000009850440090781C87B20298401C8742CB
:101DD000D8DD09B0BDE8F08F2DE9F04104460D468D
:101DE00016461F462B46324629462046FFF790FFEF
:101DF0003B46224629462046FFF78AFF3B463246AD
:101E000039462046FFF784FF3B4632462946304696
:101E1000FFF77EFFBDE8F0812DE9F04704460D464F
:101E200016460027B0460320A0EB460954E0EA1B03
:101E300091B2A4EB080290B2FEF7AFFFEA1B91B299
:101E400004EB080290B2FEF7A8FF05EB080291B27E
:101E5000E21B90B2FEF7A1FFEA1B91B2A4EB0802CD
:101E600090B2FEF79AFFA5EB080291B2E21B90B286
:101E7000FEF793FFEA1991B204EB080290B2FEF765
:101E80008CFFA5EB080291B2E21990B2FEF785FF34
:101E900005EB080291B2E21990B2FEF77EFFEA1953
:101EA00091B2A4EB080290B2FEF777FF7F1CB9F164
:101EB000000F03DAB800801D814406E0A7EB08009C
:101EC00080000A308144A8F1010805EB080291B2B4
:101ED000E21990B2FEF761FF4745A8DDBDE8F08743
:101EE0002DE9F84F04460D4616461F46A3460D48F9
:101EF00000880090E82C02DCB5F59C7F01DDBDE890
:101F0000F88FA6F12000C6B20A98002844D1814675
:101F10003FE000000E000020A80122420010014016
:101F2000000001400A0000200C2F07D106EB4600FC
:101F30009F4901EB800010F8098004E09D4800EB08
:101F4000061010F809804FF0000A16E018F0010F93
:101F500003D099490098088003E098480088964982
:101F6000088029462046FEF718FF4FEA6808601CE3
:101F700084B20AF1010000F0FF0A07EBD771BAEB57
:101F8000610FE3DB5C46681C85B209F1010000F0DB
:101F9000FF09B945C8DB30E04FF000092BE00C2FFA
:101FA00007D106EB4600824901EB800010F809805A
:101FB00004E0804800EB061010F809804FF0000A9A
:101FC00010E018F0010F07D005EB090291B204EB05
:101FD0000A0290B2FEF7E1FE4FEA68080AF101003A
:101FE00000F0FF0A07EBD771BAEB610FE9DB09F1EB
:101FF000010000F0FF09B945D1DB6F490098088066
:102000007DE710B50246012000E050430B00A1F12E
:102010000104E1B2F9D110BD2DE9FF4F81B00446B2
:1020200015461E460E9F4FF0000AD0463EE0A6EB36
:102030000800401EC1B20A20FFF7E3FFB5FBF0F035
:102040000A21B0FBF1F201FB120000F0FF09BAF126
:10205000000F16D1701E404513DDB9F1000F0ED1EF
:102060000023BB4607EBD771491001FB084188B23A
:1020700000933B4620220299FFF732FF12E04FF017
:10208000010A0023BB4607EBD771491001FB084149
:1020900088B200933B4609F13001CAB20299FFF7BA
:1020A0001FFF00BF08F1010000F0FF08B045BEDBD4
:1020B00005B0BDE8F08F2DE9F84F04460D461646F1
:1020C0001F46DDF828804FF0000923E0A7EB090048
:1020D000401EC1B20A20FFF794FFB6FBF0F00A21C0
:1020E000B0FBF1F201FB120000F0FF0A0B9BC346AC
:1020F00008EBD871491001FB094188B200934346AF
:102100000AF13001CAB22946FFF7EAFE09F10100DF
:1021100000F0FF09B945D9DBBDE8F88FF8B50446F2
:102120000D4616461BE0E82C03DD002405F11000E7
:1021300085B2B5F59C7F06DD0020044605464FF6C6
:10214000FF70FEF747FE00230093327810232946E4
:102150002046FFF7C5FE04F1080084B2761C3078F3
:102160000028E0D1F8BDF8B504460D4616461BE040
:10217000E82C03DD002405F1100085B2B5F59C7F45
:1021800006DD0020044605464FF6FF70FEF722FEEE
:10219000002300933278102329462046FFF7A0FE43
:1021A00004F1080084B2761C30780028E0D1F8BD34
:1021B000F2380008663D00080A0000200C000020EC
:1021C000F0B50346642093FBF0F0C5B2642093FBA6
:1021D000F0F700FB1730C6B2132D02DD06F16400E4
:1021E000C6B2F71706EB9777304606EBA704072031
:1021F00094FBF0F700FB174084B2A0184F1EDFF8E5
:102200006CC41CF80770384484B2F71706EB977754
:10221000BF10B6EB870703D1032901DA601E84B231
:10222000072094FBF0F700FB1740C0B2F0BD014659
:10223000CA1701EB92729210B1EB820212D16420A4
:1022400091FBF0F200FB121050B94FF4C87091FBF3
:10225000F0F200FB121008B9012070470020FCE7E3
:102260000120FAE70020F8E770B5002600240025D9
:10227000FF4806884FEA0646FE48B0F81C080644A8
:10228000FD48B6FBF0F4FD480088A0423AD0FB4977
:102290000C8040F2B2750EE02846FFF7C8FF30B15F
:1022A000B4F5B77F02D3A4F5B77402E006E0A4F258
:1022B0006D14681C85B2B4F5B67FEDD800BFF04848
:1022C0008580002516E0EE498888FFF7B0FF30B121
:1022D000012D04D11D2C01D31D3C09E00CE0E9487F
:1022E000405DA04203D8E748405D241A00E003E0C7
:1022F000681C85B21C2CE6D200BF681CE0498871BE
:10230000601CC871DC48B6FBF0F100FB11644FF4AF
:102310006160B4FBF0F0DA4908704FF46160B4FB1F
:10232000F0F100FB11403C21B0FBF1F0D4494870C2
:102330004FF46160B4FBF0F100FB11403C21B0FBB5
:10234000F1F201FB1200CE4988700B46DA799979D7
:102350009888FFF735FFCA490872002070BD2DE943
:10236000F04704460D461646DDE908784FF0000AAE
:1023700040F2B270844203DB40F63300844202DD57
:102380000120BDE8F08740F2B2790CE04846FFF743
:102390004EFF10B1BC48824401E0BC48824409F1C0
:1023A00001001FFA80F9A145F0DB681EC5B24FF0AD
:1023B000000914E0B34810F8090040F2A321484393
:1023C0000AEBC01A2046FFF732FF20B1B9F1010F26
:1023D00001D1A948824409F101001FFA80F9A945F9
:1023E000E8DB701E40F2A32148430AEBC01AC3EB9E
:1023F0004310C0EB03200AEB001AC7EB07100AEBEF
:10240000800AC244A248C06940F08050A049C86117
:102410000846C06940F00060C8619E48006840F40A
:1024200080709C4908609C48008840F010009149E9
:10243000A1F804089949A1F800A04FEA1A408D4973
:10244000A1F818080846B0F8040820F01000A1F818
:10245000040800BF9048008810F0200FFAD0002038
:102460008FE770B50346002409E013F8015B11F80B
:10247000016BB54201D0002070BD601CC4B2944213
:10248000F3DB0120F8E72DE9FE47002406E084484D
:102490000068005D02A90855601CC4B2032CF6DB7D
:1024A00000240BE004EB44017E4A8818032202A9B1
:1024B000FFF7D7FF00B103E0601CC4B20C2CF1DBC6
:1024C00000BF601CC5B2764800680079202805D19D
:1024D0007348006840793038C6B20BE07048006835
:1024E00040796F490968097930390A2202FB0100F5
:1024F0003038C6B26A480068C07930384FF47A7113
:10250000484367490968097A3039642202FB0100AF
:1025100063490968497A30390A2202FB010060499F
:102520000968897A0844303887B25F480068407883
:102530005D4909680978303902FB0100303800F044
:10254000FF0A59480068007957490968C978303945
:1025500002FB0100303800F0FF0953480068C079E1
:10256000514909688979303902FB0100303800F09F
:10257000FF085346324629463846CDE90098FFF712
:10258000EEFEBDE8FE8710B5002448480088A0F59F
:10259000A041503969D03E48C06940F080503C4964
:1025A000C8610846C06940F00060C86139480068E9
:1025B00040F48070374908603548006A40F4803044
:1025C000334908620846006A20F4803008620846F1
:1025D000006A40F00100086204E0601CC4B20A20F6
:1025E000FDF7E7FE2A48006A10F0020F01D1FA2C2D
:1025F000F3DBFA2C01DB012010BD2548006A40F412
:102600008070234908620846006A40F4004008626E
:1026100000BF2148008810F0200FFAD000BF1E48EC
:10262000008810F0080FFAD02148008840F001001F
:102630001049A1F8000800BF1748008810F0200FCB
:10264000FAD01548008840F010000A49A1F80408A3
:102650004FF000001749088047F6FF700549A1F8C0
:102660000C08FFF710FF034826E037E05643000848
:102670001828004000200040805101001000002078
:1026800020000020624300080085E2018033E10160
:102690000010024000700040042800401C28004048
:1026A000140000206E43000818000020046C004055
:1026B0000028004008280040B0F8040820F010006E
:1026C0002749A1F8040800BF2648008810F0200F11
:1026D000FAD045F250002449088012E000BF21489A
:1026E000008810F0080FFAD02048008840F0010060
:1026F0001B49A1F8000800BF1A48008810F0200FFD
:10270000FAD00223032200210846FDF7A3FEFFF7BB
:10271000ABFD002070E700B51248008810F0010FF3
:1027200001D0FFF7A1FD0F48008810F0020F06D07E
:102730000C48008820F002000949A1F80408094863
:10274000008840F6FA7100EA01000549A1F8040882
:1027500000BF0448008810F0200FFAD000BD000030
:102760000020004004280040046C00400028004085
:1027700010B53248C06840F4FE703049C860FDF7BB
:1027800033FF10BD70B50024002500202C490860DF
:102790001BE02C48006818B1601CC4B2002509E099
:1027A000681CC5B2032D05DD0120254908604FF0E6
:1027B000000070BD1E20FDF7FCFD642C05DB002031
:1027C0001F4908604FF00100F3E7E2E710B5012070
:1027D0001D490860FFF7D6FF08B1FFF7C9FF10BD1C
:1027E00010B51648806940F0040014498861084615
:1027F000806940F0010088611448006820F00F00F3
:102800001349C1F800080846D0F8000840F0080055
:10281000C1F800084FF002024FF000010846FDF732
:1028200068FEFFF7AFFF08B9FDF7DEFE02230622C0
:1028300019461846FDF70EFE10BD000000100240BC
:10284000A00121420001214214040140000801407E
:10285000000001406348806940F0040061498861DC
:10286000614800686FF30F006049C1F800084FF03D
:102870000100C1F80C085B48806940F400705949B8
:1028800088610846C06840F40070C8600846C068A7
:1028900020F40070C8600846406820F4404048605A
:1028A0000846406840F4004048605148006851497B
:1028B00000EA01005049C1F804040846D0F80404B5
:1028C000C1F804040846D0F8040420F48070C1F86C
:1028D00004040846D0F8080420F00200C1F80804F7
:1028E0000846D0F8080420F4C020C1F808040846BF
:1028F000D0F8080440F4C020C1F808040846D0F815
:10290000080440F48010C1F808040846D0F8080410
:1029100020F40060C1F808040846D0F82C0420F424
:102920007000C1F82C040846D0F82C044FF00000C9
:10293000C1F82C040846D0F810046FF30B00C1F85E
:1029400010040846D0F8100440F00700C1F8100445
:102950000846D0F8080440F48070C1F8080408461E
:10296000D0F8080440F00100C1F808040846D0F887
:10297000080440F008002149086000BF1F480068B3
:1029800010F0080FFAD11D48006840F004001A4901
:10299000C1F8080400BF1948006810F0040FFAD10C
:1029A000704701461648006820F01F00124AC2F81E
:1029B00034041046D0F8340440EA0100C2F834046C
:1029C0001046D0F8080440F48000C2F8080400BFA4
:1029D0000C48006810F0020FFAD00B48006880B273
:1029E0007047000000100240000801400000014054
:1029F00004240140FFFFF0000020014008240140B2
:102A000034240140002401404C2401402DE9F041D0
:102A100004460D461646984637461C48A0F80080E6
:102A20001B48406940F00100194948610520FDF745
:102A3000DBFC20682060E560A660C4F804802068A4
:102A400040F080002060206840F4807020602068A2
:102A500040F480602060206840F4005020602068CE
:102A600040F020002060206840F001002060BDE8B8
:102A7000F081016821F00101016004490988416089
:102A8000016841F001010160704700001C00002056
:102A900000100240704700000FB4054A054910B508
:102AA00003AB7944029800F01EF910BC5DF814FBEA
:102AB0000400002089DCFFFF0FB408491CB506ABF9
:102AC0006A4679440090059800F00DF900206946A7
:102AD00000F01CF91CBC5DF814FB0000470200006C
:102AE0002DE9F04104460E4600202BE0E168204627
:102AF000884748B3252802D0D4E901211FE0E168C6
:102B000020460027884705001ED0A5F1410019285E
:102B100002D820354FF40067324629462046276008
:102B2000FDF71EFB40B1012801D1361DDEE7F61D81
:102B300026F007060836D9E7D4E901212846904750
:102B4000206A401C2062D1E7206ABDE8F0810000C5
:102B50002DE9F0418046002610687529414615A5EB
:102B600012D0AFF30080002803DAC0F1000012A5F4
:102B700008E0D8F800108A0701D510A502E049073F
:102B800004D50FA5012601E0AFF30080002408F171
:102B9000240704E000F0BFF830313955641C0028E8
:102BA000F8D133462A4621464046BDE8F04100F0C0
:102BB0003BB80000000000002D0000002B000000CA
:102BC0002000000070B504460D4621461068AFF3A2
:102BD00000802168090502D5104A7A4402E00F4AB4
:102BE0007A440E32002104F1240307E000F00F06BE
:102BF0004FEA1010965D5E5401F101010028F5D1F5
:102C000020680023000704D5702D02D009B11132CD
:102C100002232046BDE8704000F006B8B41700005B
:102C200070477047704770472DE9F0470D460446DE
:102C30009246994600F124080168880604D5E069A7
:102C400021F01001216000E001200027A84201DDF1
:102C5000A0EB0507A16907EB050202EB0900A1EB58
:102C60000000A0612068C00602D42046AFF30080B7
:102C7000002608E0D4E901211AF806009047206AEE
:102C8000401C761C20624E45F4DB2068C0060AD545
:102C90002046AFF3008006E0D4E9012130209047C0
:102CA000206A401C2062381EA7F10107F4DC07E00F
:102CB000D4E9012118F805009047206A401C2062E1
:102CC000281EA5F10105F3DC2046AFF30080216842
:102CD0000220090600D40120BDE8F08701694A1CE2
:102CE00002610878704710B50C46194690B0CDE9DE
:102CF000024200220692044A7A44CDE9042001A847
:102D0000FFF7EEFE10B010BDE1FFFFFF0A6802F80A
:102D1000010B0A6070474FF00A01B0FBF1F202FBB1
:102D2000110110467047754600F028F8AE460500C0
:102D30006946534620F00700854618B020B5FDF7D8
:102D40003BFABDE820404FF000064FF000074FF07F
:102D500000084FF0000B21F00701AC46ACE8C009B9
:102D6000ACE8C009ACE8C009ACE8C0098D467047C2
:102D70000446AFF300802046FDF709FA004870478B
:102D80002C000020014870477047000030000020F0
:102D900030B504460D460C480088A0F50941893934
:102DA00008D121464E20FDF71BFF29464F20FDF795
:102DB00017FF07E021462020FDF712FF29462120BA
:102DC000FDF70EFF30BD00000E00002001F00043B3
:102DD00021F0004181EA410212F0FE4F08BF12F4D7
:102DE000600F00F02880A1F16051B1F5801F1BDB5E
:102DF00002014FF0404C09D803D208BF4FF0000C3D
:102E00000AE000F000521CEB820C05D410F10050D7
:102E10004FF0804C41F10001B1F17F6F06DA43EAD7
:102E2000C10343EA50707047184670474FF0FF02E5
:102E300043EAC250704711F4801F01D11846704711
:102E4000DFF818C041EA030150EA013240F0108077
:102E5000AFF3008021F4E000704700008800000418
:102E600002494FF0000000F0FABC00000000F87FBB
:102E700002494FF0000000F0F2BC00000000F87FB3
:102E800010F0004314BF4142014643F08043B1FAC1
:102E900081FC03F1F87311FA0CF1A3EB0C534FEA28
:102EA000415008BF704703EBE1217047DFF8B4C120
:102EB00070B53CEA111E18BF3CEA131E00F0A68054
:102EC00081EA03050CEA111E4EEAD57E1CEA1315B1
:102ED00018BF11EA0C1F00F08F80AE4421EA4C119C
:102EE00023EA4C13AEF17F7E41F4801143F480134A
:102EF000A1FB024CA0FB0365361955EB0C05A1FBA9
:102F0000034C4CF10003A0FB021C16EB0C066541C0
:102F100053F10003094218BF46F001064FF0140CAC
:102F2000B3F5007F4CF1000CCCF1200425FA0CF233
:102F300003FA04F141EA020105FA04F026FA0CF260
:102F400040EA02006FF0030242EB2E4216FA04F44C
:102F500001EB025585EACE7115D05FEA440C38BF0B
:102F60004FF040440FD308BF43F0004350F100003E
:102F700041F1000110EAD37F4FF0804420EAD37082
:102F800018BF4FF0404415F0004FDFF8DCC017D4F5
:102F900015EA0C0F18BF3CEA010C11D070BD5FEAB6
:102FA000CE7454BF1CF4000F1CF4800F0ABF4FF006
:102FB00080444FF0404410F1010041F10001E2E78C
:102FC000BEF1806FA2BFA1F1C04144F0130C4CF0E0
:102FD000805CBDE8704006DA4FF0000001F1C041AE
:102FE00001F0004170476FF0000041EA500181EAB2
:102FF00010314FF0000070474FEACE714FF00000E3
:1030000070BD4FEACE714FF0000070BD4FEA410530
:10301000B5EB4C1F4FEA430608BF002898BFB6EB3C
:103020004C1F08BF002ABDE87040DFF840C03FF6E3
:1030300017AFAFF300804FF4001CBCEB410F98BFFB
:10304000BCEB430F0AD84FF0000081EA030101F006
:10305000004141F0FE4141F47001704704494FF0D6
:10306000000070470000FF070000F07F130000041D
:103070000000F87F094248BF4CF4803C4FF4C06325
:103080004FEA115203F1010321EA025122F40062D6
:103090009A1A48BF6FF0FE0241F48011352A3CD8DD
:1030A00030D0152A1ED3203A0CD90028C2F12003B3
:1030B00021FA02F001FA03F218BF42F001024FF0C8
:1030C000000130E0C2F1000302F1200201FA03F135
:1030D00020FA02F241EA020100FA03F208464FF038
:1030E000000120E0C2F1200310B400FA03F401FA59
:1030F00003F320FA02F021FA02F1224610BC43EA5F
:10310000000010E050EA01324FF000004FF00001E3
:103110004FF0004218BF521C05E04FF001024FF083
:1031200000014FF000001CF4803F2CF4803C18BFDD
:1031300041F00041124208BF7047520003D303D050
:10314000401C41F1000170475FEAAC72F8D4FAD13B
:10315000401C41F1000120F00100F4E77047704786
:1031600000F5000C1CF0FE4F09D0C1104FEA407072
:1031700001F1605158BF7047A1F1E04170471CF464
:10318000000F08D00146400008BF70474FF0000014
:103190004FEA30017047DFF814C0420240F08E80E1
:1031A000AFF3008040F4E0011046704718000004BF
:1031B00090EA010F48BF81F0004100F18282421A7B
:1031C0003CBF801A89184FEAD0524FF07F4C1CEA5E
:1031D000410FA2EBD15318BF9CEA026F00F0408070
:1031E0004FF0004C4CEA00204CEA012121FA03FC8C
:1031F00010EB0C0C23D202F1FF325FEA1C2040EBF3
:10320000C25038BF70471CF07F0F4FEA400C18BF08
:10321000BCF17F4F38BF7047C3F12003994008BF0E
:1032200020F00100BCF17F4F38BF7047A0F1C040D3
:103230004FF0FF0141EAD0514FEAC15070474FEAC9
:103240003C00000A40EBC25028BF1CF0FF0F4FEAC1
:10325000400CE1D018BFBCF17F4F38BF7047E5E7A5
:103260009CEA026F05D010EA5C0F08BF00F0004036
:103270007047BCEB410F4FEA400228BF9445DFF88E
:1032800028C0C0F01580AFF30080B2EB410F05D02D
:1032900012F1807F08BF70470846704790EA010F1F
:1032A00058BF704701487047010000040000C07F0C
:1032B000014800F0D4BA00000000C07F014800F0CF
:1032C000CEBA00000000C07F4FF47F0C1CEAD01281
:1032D0001EBF1CEAD11392EA0C0F93EA0C0F00F008
:1032E000A58090EA010F48BF42F4807240F4000CC0
:1032F00041F400002CF07F4120F07F4000B5814276
:10330000A2EB03020FF2401CACEB504EC0F10000E8
:103310009EF800E04FEA4E0E00FB0EFC38BF49005D
:103320004FEA2C1C02F5FA020CFB0EF34FEACE1EFC
:103330004FEA112C4FEAC1210EEB635E0EFB0CFC31
:103340004FEA1C5300FB03114FEA112C4FEA0131E5
:103350000EFB0CFC02F4807E42EB22424FEADC4C76
:1033600000FB0C11C14228BF09184CEB03330129A3
:1033700024BF4EF0020E4EF0804E10EB410F24BFE2
:103380004EF0010E4EF0804E08BF4EF0040E4EF08F
:1033900008015DF804EB43EBC25018BFB2F57C0F97
:1033A00038BF704741EAC07108BF20F00100B2F594
:1033B0007C0F38BF704729D512F0F00F1CBF00F109
:1033C000C04000F00040704700818283848586877A
:1033D00088898B8C8D8E8F919293959697999A9CD4
:1033E0009D9FA0A2A3A5A7A8AAACAEB0B2B3B5B743
:1033F000B9BCBEC0C2C5C7C9CCCED1D4D7D9DCDF19
:10340000E2E6E9ECF0F3F7FAFE0000004FEA400CC8
:103410000CF1807CBCF17E4F28BF7047B0F1C040FA
:103420004FF07F404CBF40104008704790EA010FBA
:103430000CEAD11348BF42F48072624538BF63453D
:1034400007D213F47F0F23D080EA010000F0004080
:1034500070474FF0807C1CEB400F98BF1CEB410F76
:10346000DFF840C03FF624AFAFF300804FF0807C20
:103470001CEB400F02BF1CEB410F0B4870471CEBCD
:10348000410F0CBF002020F0004040EAC2507047BE
:1034900012F47F0F04BF0448704742F0FF004FEA68
:1034A000C0507047040000040000C07FC2154FEAFE
:1034B000002318BF43F0004305D4D2F19E020AD383
:1034C00023FA02F070474FEA4001B1F1FE4F02D2F9
:1034D0004FF000007047DFF828C04FEA4001B1F11B
:1034E0007F4F88BF4CF4803C3FF6E8AE1CBF6FEACC
:1034F000E0707047AFF300806FEAE0707047000043
:103500006800020410F0004218BF404242F08042BE
:10351000B0FA80F18840A2EBC15202F1786208BF94
:103520007047410642EB202018BF5FF0806C28BF37
:1035300020F0010070474FF08042FFF7E9BF000024
:103540004FF47F0C1CEAD0121EBF1CEAD11392EA82
:103550000C0F93EA0C0F00F04A8090EA010F48BF6D
:1035600042F480724FF0004C4CEA00204CEA0121FA
:103570001A44A0FB01C3A2F50002BCF1000F18BF62
:1035800043F0010302F4807CB3F1004F38BF5B00CD
:1035900042EB2242180A40EBC25028BF13F07F0FC3
:1035A00018BFB2F57C0F38BF704708BF20F001008C
:1035B000B2F57C0F38BF70470BD582F0FF0212F5D1
:1035C000803FC8BF704700F1C040D8BF00F0004046
:1035D000704700F5000C5FEA4C0C48BF7047B0F133
:1035E000C0404FF07F404CBF40104008704790EA09
:1035F000010F0CEAD11348BF42F48072624538BF14
:10360000634504D280EA010000F0004070474FF0AB
:10361000807C1CEB400F98BF1CEB410F4FF0030C5C
:103620004CF0806C3FF644AEAFF3008012F47F0F95
:103630001FBF13F47F0F42F0FF02D005704701480F
:10364000704700000000C07F10B412F47F0F4FEAF3
:1036500000204FEA012110D1B0FA80F400FA04F002
:10366000A2EB044213F47F0F02F5803218BF41F041
:10367000004100D010BC18BF604740F00040B1FAD4
:1036800081F401FA04F1A3EB044310BC03F5803389
:10369000604710B5FFF776FB4FF00001016010BDE9
:1036A00080F0004090EA010F7FF589AD81F0004184
:1036B00000F007B890EA010F48BF81F000413FF5E4
:1036C0007EAD421A3EBF82F00042801A89184FEA4E
:1036D000D0524FF07F4C1CEA410FA2EBD15318BFE0
:1036E0009CEA026F4FD04FF0004C4CEA00204CEAAD
:1036F000012121FA03FCB0EB0C0C0FD412F0FE0FE9
:1037000018BF5FEA4C001DD5001240EBC25038BF15
:1037100070471CF03F0F18BF70470BE0A2F1010289
:103720005FEA1C2040EBC25038BF70471CF07F0F8F
:1037300018BF7047C3F12003994014BF401E20F00A
:10374000010070474FEA122316D0004204BF002048
:1037500070474FEA9000B0FA80FCA2EB0C02CCF16B
:10376000280C60FA0CF093EA122F04BF00EBC25051
:1037700070474FEAC37070475FEADC1008BF7047BC
:103780004FEAC37070479CEA026F04D010EA5C0FE6
:1037900008BF00207047BCEB410F4FEA400228BF32
:1037A0009445DFF82CC0FFF483ADAFF30080B2EB9B
:1037B000410F06D012F1807F08BF704781F00040B2
:1037C000704790EA010F48BF7047024870470000F9
:1037D000020000040000C07F00F0004343EAD05321
:1037E00023F48073C3F1C10323F0004117291FD8CC
:1037F000C3F1200310FA03F1C3F1200320F07F404E
:1038000040F4000020FA03F003F0004340EA030014
:103810000DD00B46590009D318BF401C06D17FEAD2
:10382000E27398BF401C38BF20F00100704770471A
:10383000182903EB912318BF6FF00041013168BFD5
:1038400003F0004009D6400203F0004000F10100FF
:1038500004BF12F0004F20F00100704770470CF0D9
:103860000F03092B08BF082000F02B800A2B0BD078
:10387000082B18BF704708BF1CF0400F0AD04FF04C
:1038800000004FF0000170471CF0400F18BF4FF0D0
:10389000004070471CF0100F08D020F0704300F07B
:1038A0007F4242EAD3014FEA4370704700F0604024
:1038B00021F07F4242EA000201F07F4040EA72704C
:1038C00070471CF4801F11D01CF4E02F03D06FEA66
:1038D000CC31490070474FF04050EFF3008222F0A6
:1038E000704242EA000282F3008870474FF0000005
:1038F0007047000000000000000000000000000011
:103900000404040404040004000000140A0A000073
:10391000000000000000000014143F140A3F0A0ACF
:10392000000000041E1505060C14150F040000000D
:1039300012150D0A142C2A1200000000040A0A1E97
:103940001515093600000002020100000000000009
:1039500000000020100808080808081020000002D5
:103960000408080808080804020000000004150EF6
:103970000E150400000000000404041F04040400E9
:103980000000000000000000000000020201000032
:103990000000001F00000000000000000000000008
:1039A00000000002000000100808080404020202DF
:1039B000010000000E1111111111110E0000000084
:1039C000040604040404040E000000000E11110893
:1039D0000402011F000000000E11100C1010110E47
:1039E00000000000080C0A0A091E08180000000068
:1039F0001F01010F1010110E000000000E09010F31
:103A00001111110E000000001F0908040404040431
:103A1000000000000E11110E1111110E0000000027
:103A20000E1111111E10120E000000000000040003
:103A3000000000040000000000000004000000047A
:103A400004000020100804020408102000000000F8
:103A500000001F00001F00000000000204081020EA
:103A600010080402000000000E11110804040004F4
:103A7000000000000E111915151D011E00000000A8
:103A800004040C0A0A1E1233000000000F12120E6A
:103A90001212120F000000001E1101010101110E8F
:103AA000000000000F1212121212120F000000008C
:103AB0001F120A0E0A02121F000000001F120A0E37
:103AC0000A020207000000001C1201013911120C49
:103AD000000000003312121E121212330000000008
:103AE0001F0404040404041F000000003E0808082A
:103AF000080808090700000037120A060A0A1237E8
:103B000000000000070202020202223F0000000043
:103B10001B1B1B1B15151515000000003B1216166C
:103B20001A1A1217000000000E1111111111110EB6
:103B3000000000000F12120E020202070000000037
:103B40000E1111111117190E180000000F12120E8C
:103B50000A121237000000001E1101060810110F92
:103B6000000000001F1504040404040E00000000FF
:103B7000331212121212120C000000003312120A39
:103B80000A0C0404000000001515150E0A0A0A0AA2
:103B9000000000001B0A0A04040A0A1B00000000BF
:103BA0001B0A0A040404040E000000001F09080494
:103BB0000402121F0000001C040404040404040492
:103BC0001C00000202020404080808100000000E95
:103BD00008080808080808080E0000040A00000089
:103BE00000000000000000000000000000000000D5
:103BF000003F000400000000000000000000000082
:103C00000000000C121C123C000000000302020E17
:103C10001212120E000000000000001C1202021C12
:103C2000000000001810101C1212123C00000000CE
:103C30000000000C121E021C000000003804041ECC
:103C40000404041E000000000000003C120C021ED0
:103C5000221C00000302020E1212123700000000A4
:103C6000040000060404040E000000000800000C1C
:103C700008080808080700000302023A0A0E123773
:103C800000000000070404040404041F00000000F6
:103C90000000000F15151515000000000000000FB2
:103CA00012121237000000000000000C1212120C59
:103CB000000000000000000F1212120E02070000A8
:103CC0000000001C1212121C103800000000001B23
:103CD00006020207000000000000001E020C101E79
:103CE000000000000004040E04040418000000009A
:103CF0000000001B1212123C000000000000003700
:103D0000120A0C040000000000000015150E0A0A3B
:103D1000000000000000001B0A040A1B0000000055
:103D200000000037120A0C04040300000000001E0B
:103D30000804041E00000018080808040808080801
:103D400018000808080808080808080808080006F5
:103D500004040408040404040600022518000000FA
:103D60000000000000000000000000000000000053
:103D7000000000000000000000080808080808080B
:103D800000001818000000486C2412000000000019
:103D90000000000000000000002424247F12121202
:103DA0007F12121200000000081C2A2A0A0C182890
:103DB000282A2A1C080800000022251515152A5853
:103DC0005454542200000000000C1212120A7625EE
:103DD0002911916E00000006060403000000000097
:103DE000000000000000004020101008080808082B
:103DF00008101020400000020408081010101010D5
:103E00001008080402000000000008086B1C1C6B6E
:103E100008080000000000000000080808087F08EB
:103E2000080808000000000000000000000000007A
:103E30000000060604030000000000000000FE0071
:103E40000000000000000000000000000000000072
:103E500000000606000000008040402020101008EE
:103E600008040402020000000018244242424242B8
:103E7000424224180000000000080E080808080844
:103E80000808083E00000000003C4242422020108A
:103E90000804427E00000000003C424220182040FE
:103EA0004042221C0000000000203028242422224E
:103EB0007E20207800000000007E0202021A2640C8
:103EC0004042221C0000000000382402021A264250
:103ED0004242241800000000007E22221010080830
:103EE0000808080800000000003C42424224182450
:103EF0004242423C00000000001824424242645802
:103F00004040241C000000000000000018180000C1
:103F10000000181800000000000000000008000069
:103F200000000008080400000040201008040204FB
:103F30000810204000000000000000007F0000008A
:103F40007F00000000000000000204081020402054
:103F50001008040200000000003C424246402010CD
:103F60001000181800000000001C225A5555555525
:103F70002D42221C00000000000808181414243CE4
:103F8000224242E700000000001F2222221E22429D
:103F90004242221F00000000007C42420101010158
:103FA0000142221C00000000001F22424242424205
:103FB0004242221F00000000003F4212121E121255
:103FC0000242423F00000000003F4212121E121245
:103FD0000202020700000000003C222201010171E0
:103FE0002122221C0000000000E7424242427E42A1
:103FF000424242E700000000003E080808080808A6
:104000000808083E00000000007C1010101010107E
:1040100010101010110F0000007722120A0E0A1261
:1040200012222277000000000007020202020202B0
:104030000202427F000000000077363636362A2A18
:104040002A2A2A6B0000000000E346464A4A5252E0
:104050005262624700000000001C22414141414180
:104060004141221C00000000003F424242423E0209
:104070000202020700000000001C224141414141B0
:104080004D53321C60000000003F4242423E12127B
:10409000222242C700000000007C42420204182095
:1040A0004042423E00000000007F4908080808081E
:1040B0000808081C0000000000E742424242424259
:1040C0004242423C0000000000E742422224241405
:1040D0001418080800000000006B4949494955556B
:1040E000362222220000000000E74224241818187B
:1040F000242442E70000000000772222141408085C
:104100000808081C00000000007E21201010080490
:104110000442423F00000078080808080808080820
:1041200008080808780000000202040408080810C3
:10413000102020204040001E1010101010101010F1
:10414000101010101E000038440000000000000095
:10415000000000000000000000000000000000005F
:104160000000000000FF0006080000000000000042
:10417000000000000000000000000000003C427849
:10418000444242FC0000000000030202021A2642E0
:104190004242261A000000000000000000384402DD
:1041A0000202443800000000006040404078444271
:1041B000424264D80000000000000000003C427E43
:1041C0000202423C0000000000F08808087E080857
:1041D0000808083E0000000000000000007C2222C9
:1041E0001C023C42423C000000030202023A4642EA
:1041F000424242E700000000000C0C00000E0808DC
:104200000808083E00000000003030000038202080
:1042100020202020221E0000000302020272120A47
:104220001612227700000000000E0808080808088F
:104230000808083E0000000000000000007F929285
:10424000929292B70000000000000000003B46423E
:10425000424242E70000000000000000003C4242F1
:104260004242423C0000000000000000001B2642C9
:104270004242221E02070000000000000078444273
:104280004242447840E000000000000000774C0407
:104290000404041F0000000000000000007C420233
:1042A0003C40423E0000000000000008083E0808B4
:1042B00008080830000000000000000000634242CF
:1042C000424262DC000000000000000000E74224DF
:1042D00024140808000000000000000000EB494919
:1042E000555522220000000000000000007624182E
:1042F0001818246E000000000000000000E74224AF
:10430000241418080807000000000000007E221096
:104310000808447E000000C020202020201020201B
:1043200020202020C00010101010101010101010AD
:1043300010101010101000060808080808100808CF
:104340000808080806000C32C20000000000000047
:10435000000000000000000303060104060205003F
:1043600003051F1C1F1E1F1E1F1F1E1F1E1F4A612D
:104370006E4665624D61724170724D61794A756E2B
:104380004A756C4175675365704F63744E6F764420
:10439000656330313233343536373839414243443E
:1043A00045464030580030313233343536373839AD
:1043B000616263646566403078000000DC43000899
:1043C000000000202000000028010008FC43000835
:1043D00020000020700200004401000800000000DE
:1043E000000000007F000000FFFF00000000000050
:0C43F000000000000000000000000000C1
:04000005080000ED02
:00000001FF
