:020000040801F1
:1000000050060020A9270108C5270108C9270108B3
:10001000CD270108D1270108D527010800000000DD
:10002000000000000000000000000000D9270108C7
:10003000DD27010800000000E1270108E52701088D
:10004000E9270108ED270108F1270108F527010834
:10005000F9270108FD2701080128010805280108E2
:10006000092801080D280108112801081528010890
:10007000192801081D280108212801082528010840
:10008000292801082D2801083128010835280108F0
:10009000392801083D2801084128010845280108A0
:1000A000492801084D280108512801085528010850
:1000B000592801085D280108612801086528010800
:1000C000692801086D2801087128010875280108B0
:1000D000792801087D280108812801088528010860
:1000E000892801088D280108912801082DE9F04F81
:1000F00082460FF24860A5B015461E46D0E900239F
:10010000CDE91223002004910D900DF150086FF0FD
:10011000004900E03D440020ADF8020012AB4FF072
:10012000FF3229460DF1020001F0A5F80746012F24
:1001300004DA2878471EBF41FF43FF0FBDF80200D5
:1001400025280CBFA7F1010BBB46BBF1010F0EDB4D
:100150002C4614F8011B0498D0470028049000F0A6
:10016000F3800D98401CBBF1010B0D90F1D1BDF84F
:100170000200252807D100200790089009900A90D6
:100180000B900C9005E00028C4D10D98DEE240F001
:10019000010015F8011F2029F9D023290DD02B29A2
:1001A00004D02D2906D030290AD00CE040F00200FE
:1001B00080B2EEE740F00400FAE740F00800F7E70D
:1001C00040F01000F4E72A290ED13168316051F86F
:1001D000042B3160002A0F9204D5514240F00400F4
:1001E0000F9180B26D1C11E000210F9109E00F9971
:1001F000494505D001EB810302EB430130390F91F2
:100200006D1C2A78A2F130010A29F0D329782E2911
:1002100003D04FF0FF310E911DE015F8011F2A2980
:1002200007D1316831606D1C51F8042B31600E929A
:1002300011E000210E9109E00E99494505D001EB2E
:10024000810302EB430130390E916D1C2A78A2F133
:1002500030010A29F0D3ADF840000FF2E8402978C8
:1002600001F01AF808B115F8010B8DF842009DF85D
:100270004200682802BF29786829622005D06C28CE
:1002800004BF28786C2803D171208DF842006D1CC2
:1002900014A8069015F8017BB7F125002AD01C3868
:1002A00000F0DB80001F022840F2D780133800F0F6
:1002B000FC80093800F0D180801E00F06781401E6C
:1002C00000F03D81401E022840F2C780001F00F070
:1002D0003681401F00F09280401E00F0E680401EF4
:1002E00035D0C01E0BD0801E00F0DF80C01E00F095
:1002F000DC806EE125208DF85000012073E19DF82F
:1003000042006C283068306014D050F8044B3060E4
:1003100005940E9F002F04D5204600F0C9FF074624
:1003200006E03A460021204600F0DEFF00B1071B40
:10033000089759E150F8042B306002A9504600F0AC
:100340003FFA002840F150814FF0FF30FEE1316864
:100350003160002251F8040B31600021CDE9020127
:1003600014A80590DDE902019142069F08BF904262
:100370004FF03C0C01D10E9AC2B100F00F033033A4
:10038000DBB23A2BA8BF2733ACF101020009BB5402
:10039000944640EA017009090022914208BF904248
:1003A00004D0059A07EB0C039A42E6D307EB0C0046
:1003B0000590CCF13C010E980891814209DA401A6F
:1003C0000A904FF6EF71BDF840000840ADF84000CC
:1003D0000AE1002840F108819DF8400000F0140077
:1003E000102840F001810F98079A801A0A9A801A03
:1003F000401A0128C0F2F8800A90F5E09DF842000A
:1004000062281AD0682806D06A280CD06C281CD024
:10041000712808D019E03068306050F8041B306053
:100420000D980880E0E03068306050F8042B3060B0
:100430000D98C117C2E90001D6E03068306050F86D
:10044000041B30600D980870CEE03068306050F8C2
:10045000041B30600D980860C6E03068C01D20F0B5
:1004600007023260D2E9000108323260CDE90201B0
:10047000002902D507982D210AE0BDF84000810728
:1004800002D507982B2103E0C00705D50798202146
:1004900008F80010401C079014A80799084405901C
:1004A000394602A800F098FB9EE09DF842006C28B7
:1004B0000DD0712818BF6A2809D13068C01D20F0FE
:1004C00007023260D2E900010832326005E031688B
:1004D000316051F8040B31600021CDE902019DF833
:1004E0004200682803D1DDE9020180B20BE06228F6
:1004F00003D1DDE90201C0B205E0742818BF7A28F3
:1005000004D1DDE902010021CDE902019DF840009E
:10051000000732D5DDE902230020834208BF824272
:100520002BD047F02000782827D10798302108F8F1
:100530000010401C411C079108F800701DE09DF858
:100540004200314600F005F9CDE90201DDE9022360
:1005500000218B4202DA07982D210AE0BDF8400005
:10056000810702D507982B2103E0C00705D507981E
:10057000202108F80010401C079014A8079908448F
:100580000590394602A800F0A1FA2DE09DF842003E
:100590006C2809D0012007903068306050F8041BA7
:1005A00030608DF850101FE03068306001AA50F8BC
:1005B000041B3060ADF804100020ADF8060002A95D
:1005C0004FF0FF300E90504600F0FAF800280BD59F
:1005D000BAE625208DF8500001200790380003D09E
:1005E00088F80170022007900F980799401A0A991D
:1005F000401A0899401A0B99401A0999401A0C9907
:10060000471A9DF84000400710D42020012F8DF894
:1006100000000BDB3C4601236A4602A9504600F06D
:1006200005FE00287FF490AE641EF4D1DDF81CB006
:10063000BBF1000F14AC0DD014F8011B0498D04787
:10064000002804903FF480AE0D98401CBBF1010BD4
:100650000D90F1D130208DF800000A9C012C0ADBAE
:1006600001236A4602A9504600F0E0FD00287FF40D
:100670006BAE641EF4D1DDF820B0059CBBF1000F19
:100680000DD014F8011B0498D047002804903FF4C3
:100690005BAE0D98401CBBF1010B0D90F1D13020E9
:1006A0008DF800000B9C012C0ADB01236A4602A98D
:1006B000504600F0BBFD00287FF446AE641EF4D126
:1006C00005980899DDF824B04418BBF1000F0DD04F
:1006D00014F8011B0498D047002804903FF434AE6E
:1006E0000D98401CBBF1010B0D90F1D130208DF81D
:1006F00000000C9C012C0ADB01236A4602A950462B
:1007000000F094FD00287FF41FAE641EF4D19DF824
:10071000400040077FF5FFAC2020012F8DF800003E
:10072000FFF6F9AC01236A4602A9504600F07EFDAF
:1007300000287FF409AE7F1EF4D1ECE40000000035
:1007400000000000686A6C747A4C000025B0BDE8B7
:10075000F08F622826D068281DD06A2808D06C281F
:1007600027D0712804D0742823D07A280CD020E018
:100770000868C01D20F007000860D0E90023083099
:1007800008601946104670470A680A6052F8040B60
:100790000A60002170470A680A6052F8040B0A6078
:1007A00000B20BE00A680A6052F8040B0A6040B21B
:1007B00004E00A680A6052F8040B0A60C117704727
:1007C0002DE9F44F0D4694B0D5F830A0BAF1000FE2
:1007D000804648BF6FF0004A00F0B2FD696B4018D8
:1007E00001900FF67820D0E90023CDE9022395F897
:1007F0003800400702D40198412805D240200DF16D
:1008000010090190002609E000F0A0FD5FEA000950
:10081000F8D14FF0FF3056E1AAEB040ABAF1010F0C
:10082000C0F2CE801498018802AA0DF1010000F0F8
:10083000E5FD0028044600F1DE801498008810B918
:10084000641E00F1D880A245C0F2BA80686901999F
:100850002218914280F0A2806E634042296A401AB9
:10086000A969401A696A401AE969401AA96A461AD0
:1008700095F83800400710D42020012E8DF8000094
:100880000BDB374601236A462946404600F0CEFC82
:10089000002840F0B0807F1EF4D1D5F814B0BBF131
:1008A000000F4F460DD017F8011BA868C04700285D
:1008B000A86000F0A080E86A401CBBF1010BE86270
:1008C000F1D130208DF800002F6A012F0ADB0123BF
:1008D0006A462946404600F0A9FC002840F08B807B
:1008E0007F1EF4D1D5F818B0EF68BBF1000F0CD023
:1008F00017F8011BA868C0470028A8607BD0E86AE9
:10090000401CBBF1010BE862F2D130208DF80000F1
:100910006F6A012F09DB01236A462946404600F031
:1009200085FC002867D17F1EF5D1E868A969D5F854
:100930001CB04718BBF1000F0CD017F8011BA868BA
:10094000C0470028A86056D0E86A401CBBF1010BE4
:10095000E862F2D130208DF80000AF6A012F09DB88
:1009600001236A462946404600F060FC002842D137
:100970007F1EF5D195F8380040070DD52020012EB7
:100980008DF8000008DB01236A462946404600F046
:100990004DFC80BB761EF6D100266E61224668694A
:1009A0000DF10101484400F037FD686920186861C5
:1009B0001498801C1490801E008800287FF42CAFAF
:1009C000686B6969401A296A401AA969401A696AFC
:1009D000401AE969401AA96AA0EB010A95F83800A3
:1009E000400710D4BAF1010F0DDB5446A86820214E
:1009F000C047A86010B94FF0FF365DE0E86A401CC0
:100A0000641EE862F2D16B694A462946404600F00E
:100A10000DFC0028EFD12C6A012C0ADBA8683021DC
:100A2000C0470028A860E6D0E86A401C641EE8625F
:100A3000F4D1AB69EA682946404600F0F7FB00288C
:100A4000D9D16C6A012C0ADBA8683021C047002884
:100A5000A860D0D0E86A401C641EE862F4D1E8685F
:100A6000A969EB6942182946404600F0DFFB0028DF
:100A7000C1D1AC6A012C0ADBA8683021C04700282C
:100A8000A860B8D0E86A401C641EE862F4D195F80A
:100A9000380040070ED5BAF1010F0BDBA868202102
:100AA000C0470028A860A6D0E86A401CBAF1010A35
:100AB000E862F3D16E616E6304A881451CBF4846AD
:100AC00000F0E6FC304615B0BDE8F08F2DE9F343A9
:100AD000054608462F696F2808BF082405D041F055
:100AE0002001782914BF0A2410243C26D5E90023CC
:100AF000642818BF69289046994606D100218B4288
:100B000003DAD8F1000869EB49090020814508BFE4
:100B100080450CD1286B50B9082C38D195F8380095
:100B2000000734D530203B2687F83B002FE0701EAD
:100B300000900646404649462246E31700F0E8FC8E
:100B400002F13000C0B23A2803DB9DF8041051399D
:100B50000818B855494640462246E31700F0D8FC2D
:100B6000804689460020814508BF804503D0E8685B
:100B7000B9198842DBD3082C09D195F83800000751
:100B800005D5B85D302802D0761E3020B855B91989
:100B9000E960C6F13C00296BA861884208DA081AAE
:100BA00028624FF6EF71288F08402887BDE8F3834D
:100BB00000290ED595F8381001F01401102908D13C
:100BC000696B6A69891A2A6A891A0E1A012EA8BFE6
:100BD0002E62BDE8F38300002DE9F24F04468EB08B
:100BE000D4E90001CDE9020104AF9DF8380040F0DE
:100BF000200BBBF1610F0AD0206B002848BF0620F4
:100C000004D408BFBBF1670F01D1012020636168E4
:100C1000C1F30A5040F2FF7290421CD1080304BF96
:100C20002068002809D10320A0619DF838006138B0
:100C30001A2835D30FF2386108E00320A0619DF82F
:100C4000380061381A2828D30FF21C61E0680322AB
:100C500000F0E2FBBDE1012815DA204600F0CFFCF0
:100C6000012810DB00250020BBF1610F1FD1E168D6
:100C700030220A708A1CE2609DF83820612A0CBF7D
:100C8000782258220FE0626840F2FE3161F31E5272
:100C9000451A62604FF0FF30E6E70FF2C851D5E722
:100CA0000FF2C851D2E74A706169891C616110B9BD
:100CB0000026002584E1BBF1610F40F09880206B95
:100CC000D4E900AB00284CBF2126461CDDE9020117
:100CD0000022002300F0B6FC36B23ABF8BF0004091
:100CE000CDE902A0CDE902AB06F101082D1FB8F154
:100CF000010F8DF810200DF1110736DBDDE902013F
:100D00000022002300F0B6FC2FD21C2102A800F024
:100D1000C9FCDDE9020100F04BFDA8F10708B8F1BC
:100D2000010F814609DB00F06FFD02460B46DDE94D
:100D3000020100F081FDCDE90201F81D072105E067
:100D400009F00F0200F8012D4FEA2919B9F1010F3E
:100D500001DB491EF4D5491E5CBF002200F8012DBD
:100D6000F9D5C71DB8F1010FC8DA0DF11100391A14
:100D7000B142B8BF0E4636B230000DF111072FD484
:100D8000884206DA04A9014449780829A8BF0F213E
:100D900000DA002104AA024400E0761E12F80139AC
:100DA000401E8B42F9D00F2904D104A901444A788E
:100DB000521C4A70002802D504AF761C2D1D36B295
:100DC000701E0DD439180A783032D2B23A2A03DBB9
:100DD0009DF838303A3B9A18401E01F80129F2D5A7
:100DE000206B002840F1EC80701E2063E8E0DDE914
:100DF00002010022002300F025FC3CBF81F00041ED
:100E0000CDE902012DB247F2975068434B49DFF814
:100E1000309190FBF1F52DB2C5F1070ABAF1010F3F
:100E200090461CDBDDE902675FEACA7007D54246DF
:100E30004B463046394600F0BFFD06460F46404659
:100E4000494642464B464FEA6A0A00F0B5FDBAF100
:100E5000000F80468946E7D1CDE9026724E0CAF158
:100E6000000A0026374F14E05FEACA7007D54246F1
:100E70004B463046394600F09FFD06460F46404639
:100E8000494642464B4600F097FD4FEA6A0A8046C3
:100E90008946BAF1000FE7D1DDE9020132463B464F
:100EA00000F05CFECDE90201BBF1660F216BDFF8BB
:100EB00098900CBF05F10A0006204618142EA8BF12
:100EC000132630208DF810000DF11107012E3DDBA7
:100ED000DDE9020100F082FC07F1080104220A2387
:100EE000B0FBF3F303EB8307A0EB4700303001F8CE
:100EF000010C0A20B3FBF0F000EB8007A3EB4703E3
:100F00003033521E01F8023DE9D1083E012E01F1B5
:100F10000807DBDBDDE9020100F060FC00F07EFC8D
:100F200002460B46DDE9020100F086FC00224B463A
:100F300000F042FDCDE90201CAE700BFA086010032
:100F4000000024400000F03F84D797410DF11100CC
:100F5000381A0DF1110702E0401E6D1E7F1C397812
:100F60003029F9D0BBF1660F08BF691C04D0BBF172
:100F7000650F0CBF01210021226B8E1836B2B042E2
:100F8000B8BF064636B231001AD4814204DA785C22
:100F90003528A8BF392000DA30207A18521E00E028
:100FA000761E12F80139491E8342F9D0392802D140
:100FB000785C401C7854002902D57F1E761C6D1C7D
:100FC0002DB29DF83810009533B23A46204600F015
:100FD00003F80FB0BDE8F08F2DE9F04786B0064664
:100FE0008A4690461D4600F002FF012D406A376B8D
:100FF00090F8009002DA01250FF278284AF02000DC
:10100000BDF93840662808BF641C12D0672878D123
:1010100014F1040F7BDBBC4279DA96F83800641CCB
:10102000000702D4BD42B8BF2F4624B23F1B48BFC1
:10103000002724B2F068B169012C23DA4A1C30235E
:101040004354012F03DA96F83800000703D5F068FF
:1010500000F80290521CE742B8BF7C4224B26042C2
:101060007062E719AF42B261B8BF3D46F068B3693C
:101070002DB2F5612A464146184400F0CDF9781B9F
:10108000B062BCE022469542084416DA2A46414640
:1010900000F0C2F9B1696918601B012FB16170627B
:1010A00003DA96F83800000705D5F06800F80190DB
:1010B000F069401CF061B762A1E0414600F0ACF974
:1010C000B06920182D1B012F03DA96F83810090794
:1010D00003D5F16801F80090401CB0612DB2AF4219
:1010E000B8BF3D46F068B3692DB22A4608EB04014B
:1010F000184400F091F9B0692818B061781B70624B
:101100007DE0BAF1610F14D14FF0700A16E0BD42D4
:1011100004DA96F83810090758BF2F467F1E48BFDB
:101120000027BAF1670F14BF4FF0450A4FF0650A68
:1011300004E0BAF1410F08BF4FF0500AB169F368FB
:10114000481CB061012F18F8012B5A5403DA96F8A5
:101150003810090717D5F168431CB36101F80090F6
:10116000012F10DB6D1E2DB2AF42B8BF3D46F068B7
:101170002DB22A464146184400F04EF9B0692818AD
:10118000B061781B7062F068B1690144200081F899
:1011900000A004D42B20487001F1020804E02D22A5
:1011A0004A7001F102086442002502AF08E00A22F9
:1011B000684600F035FE019807F8010B6D1C009C95
:1011C00021B20129F3DA022D06DA4AF0200065285F
:1011D00004BF302008F8010B4DB9302008F8010B8E
:1011E00007E06D1E02A8405D303008F8010B012DAC
:1011F000F7DAF068B1690844A8EB0000F06196F8EE
:10120000380000F0140010280DD17069B169081879
:10121000716A0818F1690818B16A0818716B884278
:10122000BCBF081A306206B0BDE8F087F8B50446C6
:101230000D4616461F46002077B116F8011BA86818
:10124000A047A86030B1E86A401CE86200207F1E19
:10125000F3D1F2BD4FF0FF30F2BD000000000000FE
:10126000000000006E616E004E414E00696E660027
:10127000494E46003000F8B504460D4616461F4656
:1012800000F0D6FD3B4632462946204601B0BDE877
:10129000F04000F0E4BD00000278C9B28A421AB101
:1012A0001CBF10F8012FF9E718BF0020704700009D
:1012B00000F10103810704D010F8011B89B18107F7
:1012C000FAD10268B2F10131914311F0803F04BFBD
:1012D00050F8042FF6E710F8011B11B110F8011BAC
:1012E000FBE7C01A70470000C9B2830706D0521E40
:1012F00022D310F8013B9942F7D11FE0083A13D3EB
:1013000002F1040241EA012141EA014150F8043BA3
:10131000121F21BF4B40A3F1013C2CEA030C1CF02F
:10132000803FF3D0C9B2001F083210F8013B521EB3
:1013300028BF91EA030FF8D818BF0120401E70475C
:1013400080B500F075FD012002BD000070B50546B6
:1013500005F10F00C408C046C046E400A54232D2E1
:10136000082C04D2082402E0083000F091F822484A
:10137000026811000CD1011D0A6802B31368A34270
:1013800038BF111DF8D310E01D68A5420DD2191DFC
:101390000B68002BF8D11268011D00E0191D0B68C5
:1013A00093420CD01D68A542F8D361B10D682A683C
:1013B000A2F10803A3420AD26A680A600FE000F0B3
:1013C00071FD0028D0D1C046C046002070BD2B1949
:1013D0000B60121B6E685E600B681A602C600968F7
:1013E00000291DBF4A68002A091D00210160C0466E
:1013F000C04605F1080070BDA008002070B5044685
:101400000D46164600F014FD324629462046BDE83A
:10141000704000F017BD000062B38B0708D0521E69
:1014200011F8013B00F8013B00F024808B07F6D156
:10143000830740F0208000BF103A07D330B4B1E8F2
:101440003810103AA0E83810F9D230BC530724BF46
:10145000B1E80810A0E8081044BF51F8043B40F878
:10146000043BD20724BF31F8022B20F8022B44BFE3
:101470000B7803707047083A07D3B1E80810083AB0
:1014800040F8043B40F804CBF7D25307E4E70000F0
:1014900000B9704738B5A0F108042068082833D394
:1014A00010F0070F30D1C046C0461848416809B156
:1014B0008C4203D26160446017E019464B680BB15F
:1014C000A342FAD30B68CD18AC421BD3A54204D17A
:1014D0002268D2180A600C4607E04A681AB12368ED
:1014E00023449A420ED362604C60616851B1226815
:1014F000A3188B4206D1002303600868801820607F
:1015000048686060C046C04631BD0000A0080020A9
:101510001B4213D1094236D12AB18446B0FBF2F006
:1015200002FB10C2704700F0D3BCFCD300220023A2
:1015300070470B000200002100207047904271EBC1
:10154000030CF6D370B5B1FA81F4B3FA83F52C1B12
:10155000A340C4F1200532FA05F63343A2405FF000
:101560000046E64002E05B085FEA3202841A71EB53
:10157000030524BF204629467641F4D302000B0020
:101580003000002170BD012ACFD970B5140C20D0D5
:10159000B1FA81F4B2FA82F5C4F120046419B4F10D
:1015A0002006D6D3B2405FF00044F440002502E0AC
:1015B00052085FEA3303C61A71EB020E24BF3046AD
:1015C000714664416D41F3D302000B0020002900F5
:1015D00070BD0C46B1FBF2F102FB11452D0445EA4A
:1015E0001045B5FBF2F402FB145580B240EA054504
:1015F000B5FBF2F002FB105240EA044070BD30B47B
:10160000436803F000420121C3F313034360002B3E
:1016100004BF0368002B08D10DE00368DD0F45EA25
:10162000440444605B000360491E4468E302F4D54F
:10163000C4F31303436043681A434260084630BC56
:10164000704700004FF4001C1CEB410F94BF1CEBD3
:10165000430F09E041EA030C50EA4C0C52EA0C0C2F
:1016600003D2994208BF9042704714BF8B42824216
:10167000704700004FF4001C1CEB410F94BF1CEBA3
:10168000430F09E041EA030C50EA4C0C52EA0C0CFF
:1016900003D28B4208BF8242704714BF99429042E6
:1016A0007047000070B504460D466068C0F30A50EC
:1016B00040F2FF71884207D16068000304BF2068D0
:1016C000002817D0022070BD20B92046FFF797FFF1
:1016D000012866DA012D0FDB40F2FF71091A8D42F5
:1016E0000AD36068002847BF00202F4900202F49F7
:1016F000C4E90001012070BD4142A942616806DAD7
:101700006FF31E51401941EA0050606040E0401EF6
:1017100063684519012205F1350062F31F5335282E
:1017200001F00041636003D361600020206070BD60
:10173000002015F11F0F04DA2068236000222035F5
:1017400062606A4212D0401E25688041C2F12003C7
:10175000C0439D4045EAD07025686668D54006FACA
:1017600003F32B4323606368D340636062680A43DA
:10177000B0F1004F626003D80DD12078C0070AD5C0
:101780002068401C2060206828B96068401C6060A8
:101790004FF0FF3070BD6068884204BF20680028A9
:1017A000F6D1002070BD00BF0000F0FF0000F07F08
:1017B000F446400D40EAC120490006D200F014F87A
:1017C000004248BF6FF00040604700F00DF84FF056
:1017D000004188428CBF084640426047400D40EAC5
:1017E000C120490080F00D8040F00040490DA1F576
:1017F0008061491C05D4D1F11F0154BFC840C017F6
:1018000070474FF000007047010040F10980F44636
:10181000404200F005F851F000416047010000BF70
:1018200009D0B0FA80F18840C91CC1F5846109056E
:1018300001EBD02140057047F0B44FF0004591EA2C
:10184000030F44BF6B4000F045BB00BF841A71EB2F
:10185000030604D26E40001BB141121973414FF4CC
:10186000001C1CEB410F34BF7CEB430684E00C0DE5
:10187000A4EB1356362E7DDC012E43DC45EAC32350
:1018800043EA525312BFD20292025B08240545EA92
:10189000C12141EA5051D2EBC020994125D407D152
:1018A000B0FA80F610FA06F164D00020203608E085
:1018B000B1FA81F6B140C6F1200220FA02F21143DA
:1018C000B0404FEAF474B4EB465434F001064FEAEA
:1018D00074040AD8D6F50016760D04F00044F040E2
:1018E00061FA06F25040F1404840C00A40EA4150D7
:1018F00021F0004128BF5FEA500550F1000044EBA1
:10190000D12137E045EAC323DB0A45EAC121C90AF0
:10191000B6F120050EDD42EA0242120CC5F12006A6
:1019200003FA06F6EB4042EA06056D42984161F182
:1019300000010DE062FA06F5F240554063FA06FC3C
:1019400082EA0C02F3405A406D42904161EB030180
:1019500011F4801F05D1641E620502D06D00404164
:10196000494121F48011430875F1004350F1000012
:1019700041EB0451F0BC70471CEB410F15D223F032
:10198000004352EA43060BD04FEA4C0CBCEB410F2C
:1019900004D80C0D661E342EB7DDEBE7801A994192
:1019A00050EA410608BF0021E4E708BF1CEB430FE3
:1019B00028BF6FF00001DDE7B0B581EA030C0CF041
:1019C000004C40F2FF7515EA11541DBF15EA13577C
:1019D000AC42AF4239E0E41923EA455343F48013A3
:1019E000C90241F0004141EA505EC7021100A7FB65
:1019F000020200284FF00000EEFB01204FF0000132
:101A0000E3FB072118BF42F00102401800214941C1
:101A1000E3FB0E01A4F580640F0302D252004041A3
:101A2000494154F101046CDD470872F1004250F164
:101A3000000051EB0451A1F580115CBF41EA0C019B
:101A4000B0BD4CEA05510020B0BD05EA1357AC42C9
:101A500014BFAF4241E050EA410E1CBF52EA430EB0
:101A600002E061460020B0BD24423C441BD15FEA45
:101A7000070EF6D0090302BF01460020AEF1140E96
:101A8000B1FA81F7AEEB070401FA07FE0C37C7F194
:101A9000200100FA07F7C8404EEA000E23EA45533A
:101AA00043F48013A2E733F00043B3FA83F704BF93
:101AB000B2FA82FE77440B3FE41BB7F1200E2FBF32
:101AC00002FA0EF3BB40C7F1200E22FA0EFE38BF19
:101AD00043EA0E03BA40641C82E750EA410E14BF89
:101AE00052EA430E6FF000014FF4001717EB430F5B
:101AF0008ABF194617EB410FB5E74CEA05510020A4
:101B0000B0BDD4F10104B4F120070FDAC4F120070D
:101B1000520828BF42F0010210FA07F501FA07F750
:101B2000E1BF2A43E0403843E1400FE0352C98DC28
:101B3000C7F1200452EA400220FA07F218BF42F02F
:101B4000010231FA07F0A1400A43002172F100427C
:101B500050F1000051EB0C01B0BD00002DE9F04147
:101B600040F2FF7581EA030C0CF0004C15EA1154A9
:101B70001DBF15EA1357AC42AF42E9E0BC41C1F3C7
:101B80001301C3F31303801A994143F4801304D261
:101B9000641E4000494180185941C90241EA505130
:101BA000B1FBF3F603FB1611A2FB0675D7EBC020C1
:101BB000A94102D2761E80185941C90241EA50510A
:101BC000B1FBF3FE03FB1E11A2FB0E75D7EBC02089
:101BD000A94103D2AEF1010E80185941890241EAB0
:101BE0009051760546EA8E2EB1FBF3F603FB1611F3
:101BF000A2FB0675D7EB8020A94102D2761E801881
:101C00005941C90241EA50514EEA060EB1FBF3F6C2
:101C100003FB1611A2FB0675D7EBC020A94102D227
:101C2000761E80185941C90241EA5051B1FBF3F7C1
:101C300003FB1711A2FB0735D3EBC020A94167F1C5
:101C400000070CBF004247F0010766F3D5274FEAB3
:101C50001E31B80814F5806414DDBD0775F100422B
:101C600050EB0E5051EB045111F5801F5CBF41EA5F
:101C70000C01BDE8F0814CF07F6141F0E0410020B3
:101C8000BDE8F081BD076D0840EA0E5041F48011B7
:101C9000D4F10104B4F120060ADAC4F120060200EE
:101CA000E04001FA06F3E1401843B24015430EE06C
:101CB000342C14DCC6F1200445EA40056D0820FAF6
:101CC00006F2154321FA06F0A1400D43002175F1FB
:101CD000004250F1000051EB0C01BDE8F081002002
:101CE0005FEA0C01BDE8F081CFB992185B41B3FA0D
:101CF00083F704BFB2FA82F6BF190B3FB7F1200693
:101D00002FBF02FA06F3BB40C7F1200622FA06F6FF
:101D100038BF3343BA401CB1E419641E2FE77F4239
:101D200031F00041B1FA81F404BFB0FA80F6A41991
:101D30000B3CB4F120062FBF00FA06F1A140C4F11C
:101D4000200620FA06F638BF3143A0403C1B16E7B8
:101D5000AC421ABF05EA1357AF4214E050EA4106FD
:101D60001CBF52EA4306BFE750EA410730466146CE
:101D70001CBF41EA0551BDE8F08152EA430C08BF9F
:101D8000C143BDE8F08100204FF4001616EB410F6F
:101D900098BF16EB430F08BF16EB410F24BFC1439A
:101DA00005E016EB430F0CBF61464CEA0551BDE858
:101DB000F081000080B5134800F0F6F80FF24C02F5
:101DC0000FF244010160426241600FF244028263FB
:101DD00081600FF24402C1600161416181618162F1
:101DE000C16201634163C2630164416401BD10B516
:101DF000044800F0D9F80446206808B9FFF7DAFF74
:101E0000204610BD54000020000000002E000000FD
:101E100066616C73650000007472756500000000F7
:101E200091FBF2F303FB1211C0E90031704700008F
:101E300080B5DFF80C0000F0B7F8806902BD000043
:101E4000E400002030B430B90FF24800D0E900457A
:101E5000C2E900451BE00170012030BC704730B47E
:101E600031B90FF23800D0E90045C3E900450EE072
:101E70001AB930BC6FF00100704708B10A780280CF
:101E80000978481E804130BCC043C00F7047002015
:101E900030BC70470000000000000000000000009F
:101EA000000000000749086808B100207047064894
:101EB000C008C00008600549C908C900091A0160C6
:101EC000704700BFA80800205706002050080020D7
:101ED00070470000841A71EB030603D2001BB14166
:101EE000121973414FF4001C1CEB410F34BF7CEB03
:101EF000430443E00C0DA4EB1356352E50DC45EAA9
:101F0000C323DB0A45EAC121C912B6F120050DDD64
:101F100063FA05F6EB4086EA0305124218BF45F066
:101F20000105C01851F100010CD213E062FA06F568
:101F3000F2405540F3415A40B340F3405A408018B4
:101F4000594107D349085FEA30005FEA350528BFE9
:101F500045F0010501F58011420875F1004250F18C
:101F6000000041EB0451F0BC4FF4001C1CEB410F8E
:101F700038BF70470020090D090570471CEB410F61
:101F800010D252EA43060BD0BCEB410F05D80C0D22
:101F9000AB43661E342EB5DD02E0AB4380185941D9
:101FA000F0BC7047F0BC704770470000DFF82801B4
:101FB000DFF828110860DFF82801DFF82011086039
:101FC0007047DFF82001006850F08000DFF814113E
:101FD0000860704710B5040004205FF4302000F062
:101FE00087F8C0B204281FD1DFF8F800006850F06D
:101FF0000200DFF8F0100860DFF8EC000460DFF8A2
:10200000E400006850F04000DFF8D81008605FF48A
:10201000302000F06DF8DFF8CC10096841F6FD7251
:102020001140DFF8C0201160C0B210BD38B5050006
:102030000C000420002000904FF4005000F058F8ED
:10204000C0B204282BD1DFF89C00006850F00100DA
:10205000DFF8901008602C804FF4005000F048F832
:10206000C0B2042812D1A81C0090200C009908804E
:102070004FF4005000F03CF8DFF86810096841F6B2
:10208000FE721140DFF85C20116008E0DFF85410A8
:10209000096841F6FE721140DFF848201160C0B2B5
:1020A00032BD124908607047042010480068C0071C
:1020B00001D501200CE00D480068400701D5022041
:1020C00006E00A480068C00601D5032000E00420AD
:1020D000C0B27047000000002301674504200240A1
:1020E000AB89EFCD10200240142002400C200240AA
:1020F00010B504000420FFF7D7FF02E0FFF7D4FF7C
:10210000641EC0B2012801D1002CF7D1002C00D1EF
:102110000520C0B210BD000080B54E48006850F0E8
:1021200001004C4908604C4800684C4908404A4945
:102130000860484800684A490840464908604548E0
:10214000006830F48020434908604348006830F458
:10215000FE00414908605FF41F004249086000F03A
:1021600005F85FF000604049086001BD80B500F0EF
:1021700001F801BD82B00020019000200090354898
:10218000006850F48030334908603248006810F429
:10219000003000900198401C01900098002803D165
:1021A0000198B0F5A06FF0D12A480068800302D5ED
:1021B0000120009001E0002000900098012847D104
:1021C0002A48006850F01000284908602748006835
:1021D00080088000254908602448006850F002000B
:1021E000224908601C4800681B4908601A480068BA
:1021F000194908601848006850F480601649086062
:102200001548006830F47C101349086012480068D3
:1022100050F4E810104908600E48006850F08070D3
:102220000C4908600B4800688001FBD50A4800682B
:1022300080088000084908600748006850F00200E4
:10224000054908600448006810F00C000828F9D11E
:1022500002B0704700100240041002400000FFF876
:10226000FFFFF6FE0810024008ED00E000200240EB
:1022700038B5454C002500F02CF800F03BF800F094
:1022800057F8FFF793FE3520FFF70BFF3F48FFF7A6
:10229000A1FE21003D48FFF7C9FEFFF792FE002492
:1022A0003A480568290037A000F078F800F062F895
:1022B000F8E710B504002000010089B2344800F0AE
:1022C000EDF84021324800F0EDF80028F9D0200068
:1022D00010BD80B5FFF720FF0121012000F053F968
:1022E0000121042000F04FF901214FF4804000F05B
:1022F0004AF901BD80B503208DF802004FF400704B
:10230000ADF8000018208DF803006946214800F060
:1023100057F903208DF802004FF48060ADF80000FB
:1023200004208DF8030069461A4800F049F901BD00
:1023300000B585B04FF4165000900020ADF80400B1
:102340000020ADF806000020ADF808000020ADF830
:102350000C000820ADF80A0069460D4800F030F87E
:1023600001210B4800F08CF84021094800F0A7F843
:1023700005B000BD0020002000E0401C0649884256
:10238000FBDB704725640900D8E1020000FC01086E
:102390000038014000080140814F12000EB400B522
:1023A00082B003A9009102466B460121034878449C
:1023B0000A30FDF79BFE06BC5DF810FBC903000068
:1023C00070B586B004000D0000200020002100211F
:1023D0000026A88900282600208A4CF6FF710840B4
:1023E000E98808432082A0894EF6F3110840A988A5
:1023F0002A8911436A8911430843A081A08A4FF6B4
:10240000FF410840A9890843A082684600F05EF8B1
:102410001A48864201D1039800E00298A189090474
:1024200006D51921484329684900B0FBF1F105E0C0
:102430001921484329688900B0FBF1F16420B1FB00
:10244000F0F000010209642303FB1211A2891204B7
:1024500008D5C90032316422B1FBF2F111F0070155
:10246000084307E0090132316422B1FBF2F111F0B7
:102470000F010843208106B070BD00000038014004
:10248000C9B2002904D0818951F40051818104E04E
:1024900081894DF6FF72114081817047C905C90DD0
:1024A00081807047002289B2B1F5007F0088084220
:1024B00001D0012200E000221000C0B2704789B2B2
:1024C0008A0589B2C94301807047000000210021BC
:1024D000002200213449096811F00C01002904D0C0
:1024E000042905D0082906D021E03049016020E008
:1024F0002E4901601DE02C49096811F470112A4A27
:10250000126812F48032890C891C002A03D1284AEF
:10251000514301600AE0244A1268920303D5244A19
:102520005143016002E0214A5143016001E01F492B
:1025300001601D49096811F0F00109091D4A515C4B
:102540000268CA4042601849096811F4E061090A4A
:10255000184A515C4268CA4082601349096811F404
:102560006051C90A134A515C4268CA40C2600E49B0
:10257000096811F44041890B0F4A515CC268B2FBF3
:10258000F1F101617047C9B2002905D00B49096812
:1025900008430A49086005E00849096831EA000073
:1025A00006490860704700000410024000127A00DB
:1025B00000093D000000002010000020181002401B
:1025C00070B4002200250023002600240025CA78CC
:1025D00012F00F02CB78DB0601D58B781A430B780B
:1025E0001B0621D00468002306E0CD78482D02D1D7
:1025F00001259D4005615B1C082B14D2012515FAAD
:1026000003F60D883540B542F5D19E000F25B54043
:10261000AC4312FA06F52C43CD78282DE5D10125DF
:102620009D404561E7E704600B88FF2B26DD446889
:10263000002320E0012513F1080615FA06F60D889F
:102640003540B54216D19E000F25B540AC4312FA75
:1026500006F52C43CD78282D04D1012513F1080669
:10266000B5404561CD78482D04D1012513F1080608
:10267000B54005615B1C082BDCD3446070BC70471F
:1026800019E050F8041BCB0744BFA9F10103591806
:10269000121F0023042A41F8043BF9D25FEA827C2E
:1026A0000B4604D54FF0000CA1F800C09B1CD107CD
:1026B00044BF0021197050F8042B002AE1D1704763
:1026C00030B5016842688468014401EB5203D207C7
:1026D00048BF4C44994201D10C3030BD11F9012B57
:1026E00011F8015B002A04F8015B02D5521CF9D1F4
:1026F000F0E7521EF4D5EDE710B5074979441831DB
:10270000064C7C44163404E00A68081D11448847CE
:102710000146A142F8D110BD0800000024000000CD
:1027200061FFFFFF5C000000500800200000000077
:1027300091FFFFFF600100007E000000000000200C
:1027400000F00BF8002801D0FFF7D6FF0020C046AC
:10275000C046FFF78DFD00F002F80120704700F041
:1027600001B800000746384600F002F8FBE7000019
:1027700080B5C046C046024A11001820ABBEFBE738
:102780002600020038B504460D46284600F006F83B
:10279000A84218BF0024204632BD00000149FFF7BF
:1027A00088BD00BF14000020014880470148004751
:1027B00019210108B9270108C046C046C046C046D5
:1027C000FFF7BEFFFFF7FEBFFFF7FEBFFFF7FEBF3D
:1027D000FFF7FEBFFFF7FEBFFFF7FEBFFFF7FEBF2D
:1027E000FFF7FEBFFFF7FEBFFFF7FEBFFFF7FEBF1D
:1027F000FFF7FEBFFFF7FEBFFFF7FEBFFFF7FEBF0D
:10280000FFF7FEBFFFF7FEBFFFF7FEBFFFF7FEBFFC
:10281000FFF7FEBFFFF7FEBFFFF7FEBFFFF7FEBFEC
:10282000FFF7FEBFFFF7FEBFFFF7FEBFFFF7FEBFDC
:10283000FFF7FEBFFFF7FEBFFFF7FEBFFFF7FEBFCC
:10284000FFF7FEBFFFF7FEBFFFF7FEBFFFF7FEBFBC
:10285000FFF7FEBFFFF7FEBFFFF7FEBFFFF7FEBFAC
:10286000FFF7FEBFFFF7FEBFFFF7FEBFFFF7FEBF9C
:10287000FFF7FEBFFFF7FEBFFFF7FEBFFFF7FEBF8C
:10288000FFF7FEBFFFF7FEBFFFF7FEBFFFF7FEBF7C
:10289000FFF7FEBFFC002F01020304010203040640
:1028A000070809020406080204010150080020A0DC
:1028B0000800205008002050080020500800205137
:1028C00000002038000020C400F8FFDC00FAFF817F
:0328D00000D10034
:04000005080127B90E
:00000001FF
