:020000040800F2
:1000000018300020CD1A0008DD1A0008DF1A000899
:10001000E11A0008E31A0008E51A000800000000D1
:10002000000000000000000000000000E71A0008C7
:10003000E91A0008000000000F0D0008170A000868
:10004000211B0008251B0008291B00082D1B000888
:10005000311B0008351B0008391B00083D1B000838
:10006000411B0008451B0008491B00084D1B0008E8
:10007000511B0008551B0008591B00085D1B000898
:10008000611B0008651B0008691B00086D1B000848
:10009000711B0008751B0008791B00087D1B0008F8
:1000A000811B0008851B0008891B00088D1B0008A8
:1000B000911B0008951B0008991B00089D1B000858
:1000C000A11B0008A51B0008A91B0008AD1B000808
:1000D000B11B0008B51B0008B91B0008BD1B0008B8
:1000E000C11B0008C51B0008C91B000880B500F033
:1000F0003FFC00F0FCF900F021FA00F07BFA00F080
:10010000C4F900F0BBFC00F0FBFC00F029FD00F09E
:1001100035FA00F051FA00F038FC00F04BFD01BD5B
:1001200010B50024DFF8D8070078012841D100F08D
:10013000CDFD0400DFF888060078002806D0DFF83F
:1001400080060078401EDFF878160870DFF8700629
:10015000007800282AD1DFF86C060078002825D125
:1001600000F0B3FADFF89C07DFF89C17097850F825
:100170002100DFF898170860DFF88C070078DFF8B7
:1001800090170978884211D0DFF880070068C06BAB
:10019000401CDFF878170968C863DFF87807006843
:1001A000401CDFF87017086000F0ADFD200000F083
:1001B00091FD10BD80B5DFF848070078002819D1FF
:1001C00000F083FADFF840070078DFF84417087082
:1001D000DFF83007DFF83017097850F82100DFF832
:1001E0002C170860DFF824070068DFF80C17086098
:1001F00000F073FD01BD10B5002000F00BFC00F015
:1002000065FDDFF820170968491CDFF81827116021
:1002100000F060FDDFF8E806007801285CD1DFF827
:1002200008070078002803D0022805D002D309E08F
:1002300001200CE000200AE001200121DFF8E8267F
:10024000117004E001200021DFF8DC261170C0B23B
:10025000002841D0DFF8D40604681FE0002184F8AC
:10026000351094F83410090715D4DFF8C41609784E
:1002700094F83A201143DFF8B8261170DFF8B4166D
:1002800094F83820895C94F839201143DFF8A426CB
:1002900094F83830D154646900F01CFD94F83600AD
:1002A0003F2819D000F012FD216B0029F3D0216BFB
:1002B000491E2163216B0029EDD194F834103722B7
:1002C0001142CBD094F8341011F0C80184F83410E6
:1002D000012184F83510C4E710BD7047F8B504005B
:1002E000DFF85406A57A405DDFF84C56C0B204EB47
:1002F0000006F67AAD5DC0B2EDB215EBC005DFF8D1
:100300000466EDB256F8256000273763716296F8EF
:100310003410914386F8341086F8353096F834104E
:10032000090713D4DFF80816097896F83A20114324
:10033000DFF8FC251170DFF8FC15C0B2095C96F8F7
:1003400039201143DFF8EC25C0B2115421003000F0
:1003500000F051F8306A002804D0316A300000F013
:1003600065F8F4612800C0B2F2BDDFF88C150968A9
:10037000C861DFF88415096891F838100144C97A1A
:10038000DFF87425126892F839201143DFF86825E8
:10039000126892F838200244D172817ADFF8582529
:1003A000126892F83A2011438172DFF84C05006818
:1003B00090F83800DFF87C15C0B2095CDFF838250A
:1003C000126892F839209143DFF86825C0B21154C1
:1003D000DFF86015C0B2085C00280BD1DFF85005CB
:1003E0000078DFF81415096891F83A108843DFF8AF
:1003F00040150870704710B490F83820D2B201EB65
:100400000203DB7A90F83940A343D2B201EB020435
:10041000E372D2B20A44D27A002A05D18A7A90F8DD
:100420003A0032EA0000887210BC704770B490F84D
:10043000382090F83A3090F83940086813E0D2B28A
:1004400000EB0205ED7AA543D2B200EB0206F5728D
:10045000D2B200EB0205ED7A002D02D1857A9D43E0
:100460008572091D08680028E9D170BC7047002119
:100470008172002105E00022C9B200EB0103DA72AB
:10048000491CC9B20829F6D3704710B5F021DFF82E
:10049000AC0400F0E3F8002013E0411CDFF89C24DA
:1004A00080B2182303FB00F31A44DFF8903489B2BA
:1004B00018246143194400231370516093A15161C2
:1004C000401C80B20928E8D3DFF8701480B21822EB
:1004D000504301EB000200201070002050608BA000
:1004E0005061DFF85804DFF85814086010BD002090
:1004F000DFF8301408600020B14908700020B149CD
:1005000008700020DFF83C1408700020DFF8F013BA
:1005100008700020DFF8FC1308600020DFF8F813F3
:1005200008600020DFF8201408600020DFF8EC13DA
:1005300008600020DFF8E813087070470020DFF83B
:10054000F0130870002005E00021DFF8E823C0B2B6
:100550001154401CC0B20828F6D30020DFF8B013B5
:1005600008700020DFF8A01308700020DFF89C134B
:1005700008600020DFF880130860704700B587B07E
:10058000032004900020039080200290DFF8BC0339
:1005900001904FF6FF7000903F23DFF8B423002155
:1005A0000FF2491000F038FC05AADFF8A8133F202D
:1005B00000F04DFD07B000BD00B587B003200490EA
:1005C0000020039080200290DFF88C0301904FF60A
:1005D000FE7000903E23DFF8842300210FF23110DB
:1005E00000F01AFC05AADFF878133E2000F02FFD7A
:1005F00007B000BD10B54FF4F261DFF8680300F0FA
:100600002DF84FF48071BF4800F028F8002011E069
:10061000411CDFF85023C0B2582303FB00F31A44F7
:10062000DFF84033C9B2582461431944516137A1FE
:100630001165401CC0B21528EAD3CA49C0B258227D
:10064000504301EB00020020506130A010650020F3
:10065000B6490860C348C449086010BD03E00022E1
:100660000270401C491E89B20029F8D1704710B5AC
:10067000002400F02BFB040051480078002820D112
:100680005048007800281CD100F01FF89D489E4972
:10069000097850F821009D4908609B4800789C49E2
:1006A000097888420DD099480068C06B401C974972
:1006B0000968C86397480068401C9649086000F0C4
:1006C0001EFB200000F006FB10BD9B4898490978EE
:1006D000405CC0B29849974A0300DBB2D25C895CA7
:1006E00011EBC000884908707047000080B50021F8
:1006F00000F0ECFA010088480068401C864A10604F
:10070000080000F0E7FA00F043F9F1E73F000000CD
:1007100080B50100002002E0142000F07BFD80483D
:1007200000780028F8D07D4800686421B0FBF1F023
:100730007A49086079480068002805D100208B4973
:100740000870FF2000F0ECFC00F0C0FA7249096864
:100750007D4A11600021704A116000F0BBFA7A48AE
:1007600000686E490968B0FBF1F0D0F164007F4980
:10077000087000F00FF900F004F80A2000F04AFDBC
:10078000E2E71CB5002417E069462000C0B200F083
:100790008BFCC0B200280ED15A48E4B250F82400B5
:1007A000002808D0012806D08168C26801EB8201C8
:1007B00081640199C164641CE4B2402CE4D313BD8C
:1007C00007430020084300202DE9F041040088463B
:1007D00017001E00002000F079FA63490D68002D13
:1007E00000F085806969604A116000F073FAC5F80D
:1007F000008085F83640002085F83400002085F818
:10080000350000202863079868600698E860AF60AC
:10081000089828826E82002085F83B002000C0B234
:10082000C00885F8380014F0070085F8370001206B
:1008300095F83810884085F83A00012095F837106F
:10084000884085F839000020E861002028620020F7
:10085000A862002068620020E8630020686400202D
:1008600028640020A8640020E86424A028650020F3
:1008700005E00021C0B205EB80025165401CC0B20A
:100880000028F6D0280000F0C4F8280000F07EF818
:1008900000F01CFA1B49E4B241F8245023490968CE
:1008A00069610021A96121490968002902D01F4915
:1008B00009688D611D490D601D49097895F83A2038
:1008C00011431B4A11701B4995F83820895C95F833
:1008D00039201143174A95F83830D154194909780D
:1008E000491C184A117000F0F5F9002002E000F0F0
:1008F000F1F94220BDE8F081E44200203F00000011
:100900000C430020A83F00200A430020EC420020B6
:1009100009430020CC420020E0420020D8420020C1
:1009200006430020FC4200200E430020F04200203D
:100930000B430020C042002088150008A84000207A
:10094000D04200200D430020DC420020A8390020C6
:10095000A43B0020AC1A0008A8370020A4390020CE
:10096000BC1A000818300020E8420020054300208F
:100970003A49802003E0401E00220A60091D002839
:10098000F9D137483749086070477047704770475A
:10099000704770477047030010005FF0807202607C
:1009A000001F0360001F304A0260001F5FF0123218
:1009B0000260001F5FF003320260001F5FF002322E
:1009C0000260001F5FF001320260001F0160001F23
:1009D0005FF011310160001F5FF010310160001FF6
:1009E0005FF009310160001F5FF008310160001FF6
:1009F0005FF007310160001F5FF006310160001FEA
:100A00005FF005310160001F5FF004310160704745
:100A100070477047704780B500F058F9134909785E
:100A2000491C124A117000F055F9FFF7E4FBFFF77B
:100A300077FB01BD401E0E490860FF200D4908707C
:100A40000D48006850F005000B4908600A4800682E
:100A500050F002000849086070470000A83B0020E1
:100A6000A43D002000430020BF11000807430020E0
:100A700014E000E023ED00E010E000E080B550213C
:100A80001448FFF7EBFD00200EE0411C114A80B234
:100A900003011A440F4B89B2090119440023137052
:100AA00051600AA1D160401C80B20428EDD30949ED
:100AB00080B2000101EB00020020107000205060A5
:100AC00002A0D06003480249086001BD3F00000059
:100AD000D44200207042002041680268002906D1FB
:100AE000C1684A60002A06D00021516003E00A6014
:100AF000002A00D0516080680021816270470100A7
:100B000080B578211548FFF7A9FD002110E01348B2
:100B100089B2182202FB01F21044104A89B218234C
:100B200003FB01F31A44183242600AA24261491CD5
:100B300089B20429EBD3094889B2182251430844E9
:100B40000021416003A1416104480349086001BDDF
:100B5000000000003F000000F44200209841002007
:100B600010B560211248FFF779FD00200DE0411C0F
:100B70000F4A80B2182303FB00F31A440C4B89B2CE
:100B80001824614319441160401C80B20328EED33D
:100B9000074980B21822504301EB00020020106088
:100BA00003480249086010BD00000000F842002020
:100BB00010420020174818481848194819481A4880
:100BC0001A481B481B481C481C481D481D481E4805
:100BD0001E481F481F4820482048214821482248D5
:100BE00022482348234824482448254825482648A5
:100BF00026482748274828482848294829482A4875
:100C00002A482B482B482C482C482D482D482E4844
:100C1000704700BFFE0A0008F81A000846190008CD
:100C2000761A00082E140008821A0008F61A000826
:100C3000CC1B0008CE1B0008D01B0008D21B0008EC
:100C4000D41B0008D61B0008D81B0008DA1B0008BC
:100C5000DC1B0008DE1B0008E01B0008E21B00088C
:100C6000E41B0008E61B0008E81B0008EA1B00085C
:100C7000EC1B0008EE1B0008F01B0008F21B00082C
:100C8000F41B0008F61B0008F81B0008FA1B0008FC
:100C9000FC1B0008FE1B0008001C0008021C0008CA
:100CA000041C0008061C0008081C00080A1C000898
:100CB0000C1C00080E1C0008101C0008121C000868
:100CC000141C0008161C00082A1C0008EFF31080F2
:100CD00072B6704780F3108870471D48FF2101707D
:100CE000002080F309881B48016881F308881A48AE
:100CF0000121017019481A49016062B6FEE71748E0
:100D0000174901607047154815490160704772B670
:100D1000EFF3098028B1203880E8F00F1149096805
:100D2000086000B5104880475DF804EB0F48104993
:100D30000A7802700B480F490A680260106890E850
:100D4000F00F203080F309884EF0040E62B6704731
:100D500022ED00E0004300200C43002004ED00E001
:100D600000000010E4420020110A0008094300209E
:100D70000A430020EC420020FEB505000E001700DB
:100D80001C000020FFF7A2FFDFF85C14097800299F
:100D900003D0FFF79FFF3C203DE0DFF83814E4B2BA
:100DA00051F82410002933D10121DFF82824E4B2BE
:100DB00042F82410FFF78EFF00233A00310028008C
:100DC000FFF7E9FD010000200290002001900020C3
:100DD0000090002300222000C0B2FFF7F5FC0500C0
:100DE000EDB2002D07D1DFF8FC03007801280CD10B
:100DF000FFF73DFC09E0FFF769FF0021DFF8D4238E
:100E0000E4B242F82410FFF765FF2800C0B202E008
:100E1000FFF760FF2820FEBD2DE9F04784B00600F3
:100E20000F0090461D000020FFF750FFDFF8B813B9
:100E30000978002903D0FFF74DFF3C2049E0DFF897
:100E40009413EDB251F8251000293FD10121DFF8AC
:100E50008423EDB242F82510FFF73CFFDDF8349013
:100E6000DDF838A0109C220092B25146484600F0AE
:100E7000C5F923009BB2424639003000FFF78BFDD5
:100E80000100A4B202940F980190CDF800A00C9B31
:100E90004A462800C0B2FFF797FC0400E4B2002CD9
:100EA00007D1DFF84003007801280CD1FFF7DFFB02
:100EB00009E0FFF70BFF0021DFF81823EDB242F83D
:100EC0002510FFF707FF2000C0B202E0FFF702FF86
:100ED000282004B0BDE8F08770B504000025DFF8D5
:100EE00008030078002801D04020AFE0E4B23F2C96
:100EF00001D13E20AAE0FFF7E9FE0500E4B2FF2C95
:100F000004D1DFF8D402006890F83640DFF8C4025C
:100F1000E4B250F82460002E04D12800FFF7DAFE76
:100F2000432093E0012E04D12800FFF7D3FE3D209B
:100F30008CE0DFF8A80296F83810405C96F839107B
:100F40008843DFF8981296F838208854DFF88C022E
:100F500096F83810405C002808D1DFF88402007849
:100F600096F83A108843DFF878120870F069002884
:100F700003D0F1693000FFF73EFA306A002803D051
:100F8000316A3000FFF752FAB06A002801D0FFF74B
:100F9000A3FD00203063002086F83400002086F88E
:100FA0003500DFF848020078FF2806D0DFF83C0261
:100FB0000078401CDFF8341208702800FFF78AFE22
:100FC000FFF78BF9FFF782FE0500DFF820020078BB
:100FD000002806D0DFF814020078401EDFF80C125B
:100FE00008703000FFF7D3FCDFF804020078401EE1
:100FF000DFF8FC1108700020DFF8D811E4B241F8E6
:101000002400B069002807D10020716988617069E7
:10101000DFF8E011086005E07069B1694861B06906
:1010200071698861DFF8D00100687061DFF8C8017C
:1010300006603AA030652800FFF74CFEDFF8A401F7
:101040000078012801D1FFF712FB002070BD70B5B8
:1010500006000D001400002063480078002802D02C
:10106000122020701FE0FFF731FEF6B2FF2E03D1F1
:101070005949096891F836605649F6B251F8261078
:10108000002904D1FFF726FE432020700BE0012940
:1010900004D1FFF71FFE4320207004E00D65FFF729
:1010A00019FE0020207070BDF8B505000C0000206E
:1010B0000020206000206060FFF708FEEDB2FF2DE9
:1010C00003D14549096891F836504249EDB251F8CB
:1010D0002510002903D1FFF7FDFD43201CE0012965
:1010E00003D1FFF7F7FD432016E00A7CD20703D4B3
:1010F000FFF7F0FD45200FE00026CF688D68FFF771
:10110000E9FD00E0761C2800051D00680028F9D0E4
:101110002660B81B60600020F2BD00003F000000A8
:1011200038B505000020FFF7D1FDEDB2FF2D05D148
:101130002949096891F8365001240AE02900264A15
:10114000126892F83620C9B2914201D1012400E020
:1011500000242049EDB251F82510002903D1FFF7F2
:10116000B9FD48202AE0012903D1FFF7B3FD432050
:1011700024E091F83820194BD2B29B5C91F8395099
:10118000AB43164DD2B2AB54144BD2B29A5C002A88
:1011900006D1134A127891F83A309A43104B1A70DC
:1011A00091F8342052F0080281F83420FFF792FDC4
:1011B000E4B2012C01D1FFF75AFA002032BD80B50C
:1011C00005480068FFF7E5FBFF20FFF785FE01BD3E
:1011D00000000000A83F0020E4420020C0420020A0
:1011E0000B4300200C43002007430020084300204D
:1011F0000D430020F0420020E8420020D30708D52C
:10120000920704D405E0491E00220260001D002957
:10121000F9D1704710B50400002018480078002864
:101220002BD117480078002827D1002C25D0FFF7B4
:101230004DFD1449096891F83810134AC9B2525C3F
:10124000104B1B6893F839309A430F4BC9B25A546C
:101250000D4AC9B2515C002908D10C490978094AE4
:10126000126892F83A209143084A117005490968BA
:101270000C63FFF72FFDFFF7FAF910BD07430020BD
:1012800008430020E4420020C04200200B4300201D
:1012900038B5040000204B480078002801D0002019
:1012A0001BE0FFF713FD48490D684749096800290D
:1012B00004D0454909684968434A1160FFF70AFDAF
:1012C000002D09D0032028702C81002068603CA0EC
:1012D00068612800FFF7CBF8280032BDF8B505009B
:1012E0000E00140000272878032802D00120207067
:1012F00064E034480078002802D0022020705DE0CD
:1013000032480078002802D00D20207056E0FFF708
:10131000DDFC07002889002808D02889401E288184
:101320003800FFF7D7FC0020207047E0284800680D
:1013300090F8340050F001002549096881F8340024
:1013400000202349096881F83500214800680663B8
:101350002800FFF70AF83800FFF7BCFCFFF787F911
:10136000FFF7B4FC07001A48006890F83500002821
:1013700002D0022803D005E00020207009E00E20F2
:10138000207006E0290012480068FFF734F80A20B0
:10139000207000200E49096881F8340000200C49B3
:1013A000096881F83500002009490968C8610020F2
:1013B0000749096808623800FFF78CFCF1BD00009E
:1013C0003F00000007430020D042002008430020D7
:1013D000E442002038B5040000252078032801D01D
:1013E000012023E0FFF772FC0500A07A00280CD052
:1013F0000023012200212000FEF770FF2800FFF7E4
:1014000069FCFFF734F9002010E020894FF6FF71E6
:10141000884207D02089401C20812800FFF75AFC11
:10142000002003E02800FFF755FC332032BD010007
:1014300080B54E48006850F001004C4908604C48A7
:1014400000684C4908404A490860484800684A49D1
:101450000840464908604548006830F48020434908
:1014600008604348006830F4FE00414908605FF4BA
:101470001F004249086000F005F85FF00060404935
:10148000086001BD80B500F001F801BD82B0002008
:101490000190002000903548006850F480303349B6
:1014A00008603248006810F4003000900198401C39
:1014B00001900098002803D10198B0F5A06FF0D1F9
:1014C0002A480068800302D50120009001E0002036
:1014D00000900098012847D12A48006850F0100079
:1014E000284908602748006880088000254908606E
:1014F0002448006850F00200224908601C48006837
:101500001B4908601A4800681949086018480068B3
:1015100050F48060164908601548006830F47C106B
:10152000134908601248006850F4E8101049086038
:101530000E48006850F080700C4908600B48006845
:101540008001FBD50A4800688008800008490860CF
:101550000748006850F00200054908600448006828
:1015600010F00C000828F9D102B0704700100240BA
:10157000041002400000FFF8FFFFF6FE08100240D2
:1015800008ED00E000200240000001000200010020
:10159000030001000200010004000100020001003C
:1015A000030001000200010005000100020001002B
:1015B000030001000200010004000100020001001C
:1015C000030001000200010006000100020001000A
:1015D00003000100020001000400010002000100FC
:1015E00003000100020001000500010002000100EB
:1015F00003000100020001000400010002000100DC
:1016000003000100020001000700010002000100C8
:1016100003000100020001000400010002000100BB
:1016200003000100020001000500010002000100AA
:10163000030001000200010004000100020001009B
:101640000300010002000100060001000200010089
:10165000030001000200010004000100020001007B
:10166000030001000200010005000100020001006A
:10167000030001000200010004000100020001005B
:1016800003000100020001000021002100220021CE
:101690003449096811F00C01002904D0042905D04F
:1016A000082906D021E03049016020E02E49016080
:1016B0001DE02C49096811F470112A4A126812F4CD
:1016C0008032890C891C002A03D1284A51430160C9
:1016D0000AE0244A1268920303D5244A5143016068
:1016E00002E0214A5143016001E01F4901601D49A8
:1016F000096811F0F00109091D4A515C0268CA40ED
:1017000042601849096811F4E061090A184A515CFD
:101710004268CA4082601349096811F46051C90ADD
:10172000134A515C4268CA40C2600E49096811F40C
:101730004041890B0F4A515CC268B2FBF1F1016173
:101740007047C9B2002905D00B49096808430A4906
:10175000086005E00849096831EA000006490860A8
:10176000704700000410024000127A0000093D009A
:1017700000000020100000201810024070B4002269
:1017800000250023002600240025CA7812F00F024D
:10179000CB78DB0601D58B781A430B781B0621D05A
:1017A0000468002306E0CD78482D02D101259D4034
:1017B00005615B1C082B14D2012515FA03F60D8870
:1017C0003540B542F5D19E000F25B540AC4312FA25
:1017D00006F52C43CD78282DE5D101259D404561A6
:1017E000E7E704600B88FF2B26DD4468002320E038
:1017F000012513F1080615FA06F60D883540B542A5
:1018000016D19E000F25B540AC4312FA06F52C43C5
:10181000CD78282D04D1012513F10806B540456186
:10182000CD78482D04D1012513F10806B540056196
:101830005B1C082BDCD3446070BC704789B201612B
:10184000704789B24161704780B5FEF74FFC0120B7
:10185000FFF71EFD1A49086004231A4A00210FF2FF
:101860001100FFF789FAFEF7A5FC002002BD000079
:1018700080B5002000F034F800F02AF84FF47A71B7
:10188000B0FBF1F0FFF7D6F805230F4A00210FF265
:101890001500FFF771FA0D490870FF20FFF71CFBD8
:1018A00001BD000080B5094A002105480068FFF726
:1018B00015FD00F049F802480068FFF78BFDF2E7DC
:1018C000C8420020A43E0020A43F00200443002082
:1018D00000B585B06846FFF7D7FE019805B000BD9A
:1018E00080B5FFF7A5FD00F003F800F021F801BD79
:1018F00080B501212420FFF724FF4FF48070ADF85C
:10190000000010208DF8030003208DF802006946C6
:101910000548FFF733FF0420ADF80000694603488F
:10192000FFF72CFF01BD000000080140001401403A
:1019300080B500215FF0006000F021F84FF44070A6
:1019400000F018F801BD0A0080B54FF48071084816
:10195000FFF777FF4FF4FA70FFF75CFC4FF48071EC
:101960000348FFF76BFF4FF4FA70FFF753FC01BD1C
:101970000008014005490843054908607047054AC9
:101980001140084304490860704700000000FA0550
:101990000CED00E080FFFF1F08ED00E019E050F8BB
:1019A000041BCB0744BFA9F101035918121F0023E0
:1019B000042A41F8043BF9D25FEA827C0B4604D545
:1019C0004FF0000CA1F800C09B1CD10744BF0021C0
:1019D000197050F8042B002AE1D1704710B450F868
:1019E000041B79B10268436802440830DC0744BF35
:1019F000A9F10104E31852F8044B43F8044B091F02
:101A0000F9D1ECE710BC704710B50749794418319B
:101A1000064C7C44163404E00A68081D11448847CB
:101A20000146A142F8D110BD0800000028000000C6
:101A30006DFFFFFFF81200001830002000000000CA
:101A40009DFFFFFF14000000500000000000002078
:101A50000000000000F00BF8002801D0FFF7D4FFD1
:101A60000020C046C046FFF7EFFE00F002F801205C
:101A7000704700F001B801000746384600F002F850
:101A8000FBE7180080B5C046C046024A1100182086
:101A9000ABBEFBE7260002000000000001020304C9
:101AA00001020304060708090204060875432F4FC4
:101AB000532D49492049646C6500000075432F4F40
:101AC000532D494920537461740000000148804738
:101AD0000148004731140008EB1A00087047FEE780
:101AE000FEE7FEE7FEE770477047C046C046C046C7
:101AF000C046FFF7AFFFF00078563412FFF7EEBF95
:101B0000FFF7EDBFFFF7ECBFFFF7EBBFFFF7EABF53
:101B1000FFF7E9BFFFF7E8BFFFF7F9B8FEF77BBFB4
:101B2000FFF7FEBFFFF7FEBFFFF7FEBFFFF7FEBFE9
:101B3000FFF7FEBFFFF7FEBFFFF7FEBFFFF7FEBFD9
:101B4000FFF7FEBFFFF7FEBFFFF7FEBFFFF7FEBFC9
:101B5000FFF7FEBFFFF7FEBFFFF7FEBFFFF7FEBFB9
:101B6000FFF7FEBFFFF7FEBFFFF7FEBFFFF7FEBFA9
:101B7000FFF7FEBFFFF7FEBFFFF7FEBFFFF7FEBF99
:101B8000FFF7FEBFFFF7FEBFFFF7FEBFFFF7FEBF89
:101B9000FFF7FEBFFFF7FEBFFFF7FEBFFFF7FEBF79
:101BA000FFF7FEBFFFF7FEBFFFF7FEBFFFF7FEBF69
:101BB000FFF7FEBFFFF7FEBFFFF7FEBFFFF7FEBF59
:101BC000FFF7FEBFFFF7FEBFFFF7FEBF01000100FA
:101BD000100014000200050001003F000100010098
:101BE0000500010018007800010004000100040055
:101BF000180008000100040001000100010080003D
:101C000001001600010001008000010001004000F9
:101C100058006400010024010000100001000800C9
:0C1C20000A000000000000000000EE0EB2
:0400000508001AEBEA
:00000001FF
