S010000073746D33325F30312E737265639B
S3150800000000040020B9020008A5020008A70200089B
S31508000010A9020008AB020008AD02000800000000B3
S31508000020000000000000000000000000AF02000809
S31508000030B102000800000000B3020008B50200087B
S31508000040F9020008FD02000801030008050300087C
S31508000050090300080D03000811030008150300082A
S31508000060190300081D0300082103000825030008DA
S31508000070290300082D03000831030008350300088A
S31508000080390300083D03000841030008450300083A
S31508000090490300084D0300085103000855030008EA
S315080000A0590300085D03000861030008650300089A
S315080000B0690300086D03000871030008750300084A
S315080000C0790300087D0300088103000885030008FA
S315080000D0890300088D0300089103000895030008AA
S315080000E0990300089D030008A103000880B54F483E
S315080000F0006850F001004D4908604D4800684D49B8
S3150800010008404B490860494800684B490840474938
S3150800011008604648006830F480204449086044482E
S31508000120006830F4FE004249086044485FF41F0145
S31508000130016000F005F842485FF00061016001BD0A
S3150800014080B500F001F801BD82B0002001900020C2
S3150800015000903648006850F48030344908603348C7
S31508000160006810F4003000900198401C0190009837
S31508000170002803D10198B0F5A06FF0D12B4800688C
S31508000180800302D50120009001E00020009000982D
S31508000190012847D12B48006850F01000294908600B
S315080001A028480068800880002649086025480068B5
S315080001B050F00200234908601D481D49096801607E
S315080001C01B481B49096801601948006850F480609B
S315080001D0174908601648006830F47C10144908600E
S315080001E01348006850F4E810114908600F48006881
S315080001F050F080700D4908600C4800688001FBD5F6
S315080002000B480068800880000949086008480068AB
S3150800021050F00200064908600548006810F00C0016
S315080002200828F9D102B0704700000000001002400B
S31508000230041002400000FFF8FFFFF6FE0810024017
S3150800024008ED00E00020024000F009F8002801D07F
S31508000250C046C046002000F005F800F00DF8012061
S315080002607047000080B50021024800F007F800201A
S3150800027002BD00BF0008014000F004B889B2016160
S31508000280704700000746384600F002F8FBE7000012
S3150800029080B5C046C046024A11001820ABBEFBE72F
S315080002A0260002007047FEE7FEE7FEE7FEE7704716
S315080002B0704770477047000001488047014800476B
S315080002C0ED000008C9020008C046C046C046C04640
S315080002D0FFF7BAFFFFF7E6BFFFF7E5BFFFF7E4BF93
S315080002E0FFF7E3BFFFF7E2BFFFF7E1BFFFF7E0BFA6
S315080002F0FFF7DFBFFFF7DEBFFFF7FEBFFFF7FEBF63
S31508000300FFF7FEBFFFF7FEBFFFF7FEBFFFF7FEBF13
S31508000310FFF7FEBFFFF7FEBFFFF7FEBFFFF7FEBF03
S31508000320FFF7FEBFFFF7FEBFFFF7FEBFFFF7FEBFF3
S31508000330FFF7FEBFFFF7FEBFFFF7FEBFFFF7FEBFE3
S31508000340FFF7FEBFFFF7FEBFFFF7FEBFFFF7FEBFD3
S31508000350FFF7FEBFFFF7FEBFFFF7FEBFFFF7FEBFC3
S31508000360FFF7FEBFFFF7FEBFFFF7FEBFFFF7FEBFB3
S31508000370FFF7FEBFFFF7FEBFFFF7FEBFFFF7FEBFA3
S31508000380FFF7FEBFFFF7FEBFFFF7FEBFFFF7FEBF93
S31508000390FFF7FEBFFFF7FEBFFFF7FEBFFFF7FEBF83
S309080003A0FFF7FEBF98
S705080002C927
